:100000000C9469010C949A010C949A010C949A0135
:100010000C949A010C949A010C949A010C949A01F4
:100020000C949A010C949A010C949A010C949A01E4
:100030000C949A010C949A010C949A010C949A01D4
:100040000C949A010C94D00D0C949A010C949A0182
:100050000C949A010C949A010C949A010C94DC0A69
:100060000C949A010C94F80B0C94CE0B0C949A01FE
:100070000C949A010C949A010C949A010C949A0194
:100080000C94A20D0C949A010C949A010C949A0170
:100090000C94A40B0C947A0B0C949A010C94220CE3
:1000A0000C949A010C949A010C94740D0C949A017E
:1000B0000C949A010C949A010C949A010C94460D9C
:1000C0000C949A010C949A010C949A010C94500B84
:1000D0000C94260B0C949A010C949A010C949A019E
:1000E0000C949A010C94B2040C9483020C94750243
:1000F0000C9490040C9475030C946B020C94A4045F
:100100000C944C020C9414070C943B040C947E0247
:100110000C9487030C94C8030C9448020C9444027A
:100120000C9481040C9479020C9450020C944F03AB
:100130000C947D030C9467020C9471020C94AA0336
:100140000C94FE040C9453020C94EA060C94630283
:100150000C949B030C940D070C943A040C947F02AE
:100160000C944B050C94EB060C94FA060C94700757
:100170000C9491030C946D030C94190E0C94D203FF
:100180000C94DC030C9441070C943E020C94420343
:100190000C94B4030C94BE030C9459020C944A03BF
:1001A0000C9439040C9463030C9459030C945D0271
:1001B00000002100240027002A002D003000330019
:1001C00001010000040107010A01000022002500CE
:1001D00028002B002E003100340002010000050130
:1001E00008010B01000020002300260029002C003C
:1001F0002F0032000001000003010601090105057E
:100200000505070508080808020202020A0A08088C
:1002100004040404010101010101010103030303BA
:1002200003030303040707070C0C0C0C0C0C0C0C49
:100230000202020206060606060606060B0B0B0B5A
:100240000B0B0B0B0102102020080810204010207F
:10025000408002010201080402010102040810208A
:100260004080804020100804020180040201804088
:1002700020100804020108040201010204081020F1
:100280004080010204081020408000000A0B02098F
:100290000C0D0E0807030401000000000000000020
:1002A000000000000000000000000000000000004E
:1002B000000000000000121110000000000000000B
:1002C000000000000000000000000000000000002E
:1002D000190E11241FBECFEFD1E2DEBFCDBF00E06B
:1002E0000CBF12E0A0E0B2E0E2E0F8E300E00BBFF8
:1002F00002C007900D92AA3AB107D9F726E0AAEA00
:10030000B2E001C01D92AB37B207E1F711E0C9E6D8
:10031000D1E000E006C021970109802FFE010E9474
:10032000C218C836D10780E00807A9F70E940A1052
:100330000C94FF1B0C940000CF93DF93EC019A0107
:10034000AB01E889F98982E08083211581EE3807C5
:100350004105510581F160E079E08DE390E00E9474
:10036000851821503109410951095695479537950E
:100370002795EC85FD851082EE85FF852083188EFC
:10038000EC89FD8986E08083EA89FB898081806130
:100390008083EA89FB89808188608083EA89FB8980
:1003A000808180688083EA89FB8980818F7D80835A
:1003B000DF91CF910895E889F989108220E1D9CFA2
:1003C000FC018081803378F42FB7F89490E0FC0131
:1003D000EE0FFF1FE80FF91FE058FC4F84EB9BE086
:1003E000928381832FBF0895482F181634F52091EA
:1003F0002E0330912F038A3079F4C9010196260F1C
:10040000371FF9014083680F791FFB01108210929A
:100410002F0310922E0308952331310574F4C9017E
:10042000019690932F0380932E03260F371FF90117
:100430004083680F791FFB01108290E080E00895EF
:100440008150823108F05AC0E82FF0E08827E45D3F
:10045000FD4F8F4F0C94C2184C0250023E024402D2
:1004600048027E02530259025D02630267026B0278
:10047000710275027E0279027F0283028091800000
:100480008F77809380000895809180008F7DF9CFD1
:1004900080918000877FF5CF84B58F7784BD0895E4
:1004A00084B58F7DFBCF8091B0008F778093B000B3
:1004B00008958091B0008F7DF9CF809190008F7763
:1004C000809390000895809190008F7DF9CF809166
:1004D0009000877FF5CF8091A0008F778093A00058
:1004E00008958091A0008F7DF9CF8091A000877F33
:1004F000F5CF809120018F7780932001089580911E
:1005000020018F7DF9CF80912001877FF5CFCF9398
:10051000DF93282F30E0F901E657FD4F8491F90170
:10052000EC5BFD4FD491F901E250FE4FC491CC2316
:10053000A1F081110E942002EC2FF0E0EE0FFF1FCE
:10054000EC51FE4FA591B491EC91ED2381E090E048
:1005500009F480E0DF91CF91089580E090E0FACF38
:100560001F93CF93DF93282F30E0F901E657FD4F1B
:100570008491F901EC5BFD4FD491F901E250FE4FFB
:10058000C491CC23A9F0162F81110E942002EC2FD8
:10059000F0E0EE0FFF1FE653FE4FA591B4918FB729
:1005A000F894EC91111108C0D095DE23DC938FBF35
:1005B000DF91CF911F910895DE2BF8CFCF93DF937A
:1005C00090E0FC01EC5BFD4F249182509E4FFC01BA
:1005D00084918823D1F090E0880F991FFC01E055A9
:1005E000FE4FA591B491FC01E653FE4FC591D49105
:1005F000623071F49FB7F8943C91822F80958323E9
:100600008C93E8812E2B28839FBFDF91CF91089593
:100610008FB7F894EC912E2B2C938FBFF6CF1F93AE
:10062000CF93DF93182FEB0161E00E94DE02209749
:1006300039F460E0812FDF91CF911F910C94B002CB
:10064000E12FF0E0E657FD4FE491E150E23108F090
:10065000B3C0F0E08827E05DFC4F8F4F0C94C218C8
:1006600042034A034F0359036303DC036D0375031D
:100670007D03870391039B03AA03B403DC03BE033A
:10068000C803D20384B5806884BDC7BDDF91CF9114
:100690001F91089584B5806284BDC8BDF7CF809155
:1006A0008000806880938000D0938900C093880088
:1006B000EDCF80918000806280938000D0938B008A
:1006C000C0938A00E3CF809180008860809380008F
:1006D000D0938D00C0938C00D9CF8091B0008068FA
:1006E0008093B000C093B300D1CF8091B0008062FE
:1006F0008093B000C093B400C9CF8091900080680F
:1007000080939000D0939900C0939800BFCF8091C0
:100710009000806280939000D0939B00C0939A00D9
:10072000B5CF80919000886080939000D0939D0019
:10073000C0939C00ABCF8091A00080688093A00004
:100740008091A0008F7B8093A000D093A900C093DC
:10075000A8009CCF8091A00080628093A000D093DD
:10076000AB00C093AA0092CF8091A00088608093D4
:10077000A000D093AD00C093AC0088CF8091200141
:10078000806880932001D0932901C09328017ECFF7
:1007900080912001806280932001D0932B01C0932F
:1007A0002A0174CF80912001886080932001D0932A
:1007B0002D01C0932C016ACFC038D1050CF439CF7C
:1007C00061E038CF3FB7F89480912A0390912B03D2
:1007D000A0912C03B0912D0326B5A89B05C02F3FF7
:1007E00019F00196A11DB11D3FBFBA2FA92F982F57
:1007F0008827BC01CD01620F711D811D911D42E052
:10080000660F771F881F991F4A95D1F708958F9219
:100810009F92AF92BF92CF92DF92EF92FF924B01E5
:100820005C010E94E2036B017C010E94E2036C19EF
:100830007D098E099F09683E734081059105A8F3E3
:1008400021E0821A9108A108B10888EEC80E83E061
:10085000D81EE11CF11C81149104A104B10429F7F4
:10086000FF90EF90DF90CF90BF90AF909F908F90D0
:10087000089508950895AF92BF92CF92DF92EF92BC
:10088000FF920F931F93CF93DF936C017B018B013A
:10089000040F151FEB015E01AE18BF08C017D1078A
:1008A00059F06991D601ED91FC910190F081E02D14
:1008B000C6011995892B79F7C501DF91CF911F9159
:1008C0000F91FF90EF90DF90CF90BF90AF90089581
:1008D000FC01A089B1898C91A689B78982FD0FC0DE
:1008E0009C91818D8F5F8F73228D821749F0A18D2E
:1008F000AE0FBF2FB11D5D969C93818F08958C9193
:100900000895FC01538D448D252F30E0842F90E015
:10091000821B930B541710F0CF96089501970895FA
:10092000FC01918D828D981761F0A28DAE0FBF2FC3
:10093000B11D5D968C91928D9F5F9F73928F90E019
:1009400008958FEF9FEF0895FC01918D828D981788
:1009500031F0828DE80FF11D858D90E008958FEFC5
:100960009FEF0895FC01918D228D892F90E0805C8E
:100970009F4F821B91098F739927089580E194E01E
:100980000E94B20421E0892B09F420E0822F08950F
:100990008DEA94E00E94B20421E0892B09F420E062
:1009A000822F08958AE495E00E94B20421E0892B09
:1009B00009F420E0822F0895FC01A48DA80FB92F1F
:1009C000B11DA35ABF4F2C91848D90E001968F7377
:1009D0009927848FA689B7892C93A089B1898C9196
:1009E000837080648C93938D848D981306C00288E5
:1009F000F389E02D80818F7D80830895EF92FF92AF
:100A00000F931F93CF93DF93EC0181E0888F9B8D31
:100A10008C8D98131AC0E889F989808185FF15C0EB
:100A20009FB7F894EE89FF896083E889F98980810E
:100A30008370806480839FBF81E090E0DF91CF91DD
:100A40001F910F91FF90EF900895F62E0B8D10E0FF
:100A50000F5F1F4F0F731127E02E8C8D8E110CC06E
:100A60000FB607FCFACFE889F989808185FFF5CFB9
:100A7000CE010E94DC04F1CFEB8DEC0FFD2FF11DB8
:100A8000E35AFF4FF0829FB7F8940B8FEA89FB89F6
:100A900080818062CFCFCF93DF93EC01888D882354
:100AA000B9F0AA89BB89E889F9898C9185FD03C0D1
:100AB000808186FD0DC00FB607FCF7CF8C9185FFB6
:100AC000F2CF808185FFEDCFCE010E94DC04E9CF1B
:100AD000DF91CF91089580E090E0892B29F00E946A
:100AE000D20481110E94000080E090E0892B29F05F
:100AF0000E94C80481110E94000080E090E0892BD0
:100B000029F00E94BE0481110E94000080E090E064
:100B1000892B49F080E090E0892B29F00E940000A9
:100B200081110C94000008952091D002260F3327E4
:100B3000331F21323105ECF420915603FC0190E083
:100B400080E0243069F082E00895A091D0022191E4
:100B5000AC0140555D4FA40FB52FB11D2C930196EC
:100B6000861798F38091D002680F6093D00280E0DE
:100B7000089581E008951092560381E08093550313
:100B80001092300361E084E10E94B00261E085E1EF
:100B90000E94B002E9EBF0E080818E7F808380814B
:100BA0008D7F808388E48093B80085E48093BC00C7
:100BB0000895CF93DF9391E09093AF028823B9F02B
:100BC000C091B800D091BA008091BC008A7B80931C
:100BD000BC0060E084E10E94B00260E085E10E9418
:100BE000B0020E94BB05D093BA00C093B800DF9159
:100BF000CF9108958F929F92AF92BF92CF92DF9242
:100C0000EF92FF920F931F93CF93DF93D0917F03C7
:100C1000D13208F0D7C0182FC0917E030E94E203A2
:100C20006B017C018091560381116BC082E080933F
:100C30005603109355038FEF809354031092530380
:100C4000D0935203AEE5B3E0E2E3F3E080E0D813E3
:100C500091C01092310380913103CC0FC82BC09307
:100C6000310380913003813009F088C01092300345
:100C70000E94E2036B017C01809131038093BB00F1
:100C80008091580390915903A0915A03B0915B034E
:100C9000892B8A2B8B2BA1F00E94E2030091580331
:100CA0001091590320915A0330915B036C197D090F
:100CB0008E099F09061717072807390708F442C04D
:100CC0008091BC0083FDD8CF85EC8093BC000E944E
:100CD000E2036B017C0180915603823009F450C01D
:100CE000809154038F3F09F46FC080915403803288
:100CF00009F46CC080915403803309F469C084E026
:100D000026C08091580390915903A0915A03B09145
:100D10005B03892B8A2B8B2B09F484CF0E94E2037F
:100D20008090580390905903A0905A03B0905B03B1
:100D30006C197D098E099F0986169706A806B906C3
:100D400008F070CF809157030E94D90585E010927A
:100D50005D0310927F0310925C03DF91CF911F918E
:100D60000F91FF90EF90DF90CF90BF90AF909F904A
:100D70008F9008959D9191938F5F69CF85EEA5CF58
:100D80008091580390915903A0915A03B0915B034D
:100D9000892B8A2B8B2B09F49ECF0E94E2030091B2
:100DA00058031091590320915A0330915B036C1939
:100DB0007D098E099F09061717072807390708F0CC
:100DC0008ACFC0CF81E0C3CF80E0C1CF82E0BFCF68
:100DD00083E0BDCF0895E091F8028091F702E81713
:100DE00030F4F0E0E750FD4F808190E008958FEF00
:100DF0009FEF08959091F8028091F7022FEF3FEF57
:100E0000981748F4E92FF0E0E750FD4F208130E0DB
:100E10009F5F9093F802C90108958091F702909125
:100E2000F802891B990B0895CF92DF92EF92FF92FF
:100E30000F931F93CF93DF937C01CB018A01209105
:100E40005C03222389F0EB016B01C40ED51ECC1587
:100E5000DD0569F06991D701ED91FC910190F08178
:100E6000E02DC7011995F3CF642F0E949405C801A6
:100E7000DF91CF911F910F91FF90EF90DF90CF9076
:100E80000895CF93DF931F92CDB7DEB7698320918A
:100E90005C032223F9F020917F03203258F021E0F7
:100EA00030E0FC013383228390E080E00F90DF91FB
:100EB000CF91089580915D03E82FF0E0E25AFC4F56
:100EC000998190838F5F80935D0380937F0381E09E
:100ED00090E0ECCF61E0CE0101960E949405F7CF3F
:100EE00090E080E008951F93CF93DF93EC01162FDD
:100EF0008881803308F04EC061E0812F0E94DE02BD
:100F00008881282F30E0F901EE0FFF1FE20FF31F59
:100F1000E058FC4F1F736081607C612B60831982F5
:100F20001A822CE0622F0E94B618829FB001112411
:100F300030E020E0AB01420F531FFA01EE0FFF1F1C
:100F4000E40FF51FE058FC4F908196FD16C02F5F0F
:100F50003F4F2C30310571F7813009F51092800038
:100F600082E0809381001092850010928400B19AF3
:100F700080916F00826080936F00E8818E2F90E0F7
:100F8000FC01EE0FFF1FE80FF91FE058FC4F8081B6
:100F9000806480838881DF91CF911F910895823092
:100FA00061F410929000809391001092950010923D
:100FB000940088BB80937100E0CF833069F4109275
:100FC000A00082E08093A1001092A5001092A400DE
:100FD00089BB80937200D1CF8111CFCF10922001B5
:100FE00082E08093210110922501109224018ABB96
:100FF00080937300C2CFAF92BF92CF92DF92EF92F5
:10100000FF920F931F93CF93DF936B017A01EC0153
:10101000C655DD4F28813CE0389F8001399F100D77
:101020001124A090AE02B12C27FF1FC0FB0111823A
:10103000108288818F5F888388819801280F311DF5
:1010400087FD3A95F6012A153B051CF488818C3002
:10105000C4F180819181049680349C4908F473C066
:10106000F60180819181049670C088819801280FD3
:10107000311D87FD3A952A153B05DCF68881A801CC
:10108000480F511D87FD5A95FA01EE0FFF1FE40F1F
:10109000F51FE058FC4F808186FFCBCF8881F80197
:1010A000E80FF11D87FDFA95CF01EE0FFF1FE80F46
:1010B000F91FE058FC4F808160E08F730E94B002FE
:1010C000B8CF808191812881A801420F511D27FD51
:1010D0005A959A01FA01EE0FFF1FE20FF31FE05835
:1010E000FC4F21813281820F931FF701918380830E
:1010F00088819801280F311D87FD3A95F901EE0F7F
:10110000FF1FE20FF31FE058FC4F808186FF22C0D3
:101110008881080F111D87FD1A95F801EE0FFF1F3A
:10112000E00FF11FE058FC4F808161E08F73DF9189
:10113000CF911F910F91FF90EF90DF90CF90BF90D4
:10114000AF900C94B00280E49CE9F7019183808316
:101150008FEF8883DF91CF911F910F91FF90EF90D8
:10116000DF90CF90BF90AF900895680F791FFC017A
:101170001192CF01E617F707D1F7089570E060E00C
:101180008BE00E940F0370E060E08CE00C940F0392
:10119000FB0101900020E9F73197AF01461B570B87
:1011A0000C943B048F929F92AF92BF920F931F9328
:1011B000CF93DF93CDB7DEB7A1970FB6F894DEBF1C
:1011C0000FBECDBF19A2423008F44AE08E010F5D78
:1011D0001F4F842E912CB12CA12CA50194010E94AB
:1011E0008518E62FB901CA01EA3004F5E05DD8019F
:1011F000EE938D01232B242B252B79F790E080E0B3
:10120000109729F0BD018AE495E00E94C808A196D4
:101210000FB6F894DEBF0FBECDBFDF91CF911F9107
:101220000F91BF90AF909F908F900895E95CDFCFB2
:10123000CF92DF92EF92FF926B017C0163E372E049
:101240008AE495E00E94C8084AE0C701B6010E94FE
:10125000D2086DE372E08AE495E0FF90EF90DF90B2
:10126000CF900C94C8088F929F92AF92BF92CF926A
:10127000DF92EF92FF926B017C0163E372E08AE4FC
:1012800095E00E94C808A7019601C701B6010E9417
:10129000E41960E472E081111AC046015701E89434
:1012A000B7F82FEF3FEF4FE75FE7C501B4010E94AA
:1012B000E41981111EC02FEF3FEF4FE75FE7C50133
:1012C000B4010E9437171816A4F464E472E08AE4AB
:1012D00095E00E94C8086DE372E08AE495E0FF9013
:1012E000EF90DF90CF90BF90AF909F908F900C9435
:1012F000C8082FEF3FEF4FE75FE4C701B6010E9438
:10130000DF1918161CF468E472E0E1CF2FEF3FEF0D
:101310004FE75FECC701B6010E94371787FDF3CF97
:1013200020E030E0A901C701B6010E94371787FF0E
:1013300009C06DE28AE495E00E94FE04F7FAF09499
:10134000F7F8F0942AE037ED43EA5BE3C701B60112
:101350000E94D2184B015C010E94B0196B017C0104
:101360000E943C179B01AC01C501B4010E94D11839
:101370004B015C014AE0C701B6010E94D2086EE24F
:101380008AE495E00E94FE0420E030E040E251E46F
:10139000C501B4010E949D174B015C010E94B01968
:1013A0006B01F12CE12C4AE0C701B6010E94D20882
:1013B000C701B6010E943C179B01AC01C501B401F5
:1013C0000E94D11820E030E040E251E40E949D17D5
:1013D0000E94B01990E080E04AE00E94D2087BCFE2
:1013E000CF93DF93EC0163E372E08AE495E00E941F
:1013F000C808BE01DD0F880B990B4AE00E94D20895
:101400006DE372E08AE495E0DF91CF910C94C80817
:10141000CF93DF93EC0163E372E08AE495E00E94EE
:10142000C808BE018AE495E00E94C8086DE372E036
:101430008AE495E0DF91CF910C94C8088CE492E0A7
:101440000E94080A8CE496E00E94E00189E496E09C
:101450000E94E00186E496E00E94E00183E496E0C9
:101460000C94E0018FE492E00E94080A86E30E9457
:101470008702019759F468EC70E08BE00E940F033B
:1014800070E060E08CE00E940F03F0CF0C94BE0887
:10149000FC0180819181009711F00C94FB1660E0B3
:1014A00070E0CB010895FC0180819181009711F0DB
:1014B0000C94851A0895EF92FF920F931F93CF9388
:1014C000DF93EC017B01198218821B821A821D8234
:1014D0001C82FB0101900020E9F731978F01061B68
:1014E000170BB8016F5F7F4F90E080E00E940E1BEA
:1014F0000097B9F0998388831B830A832C813D81EF
:10150000232B11F4FC0110821D830C83B701888109
:101510009981DF91CF911F910F91FF90EF900C94E3
:10152000F81B88819981009711F00E94851A198211
:1015300018821D821C821B821A82DF91CF911F911B
:101540000F91FF90EF90089585ED8093BC008091FE
:10155000580390915903A0915A03B0915B030796E9
:10156000A11DB11D23E0B695A795979587952A955E
:10157000D1F72091BC0024FD03C0109256030895BA
:10158000409158035091590360915A0370915B0345
:10159000452B462B472B69F30097A105B10541F078
:1015A00025E32A95F1F700000197A109B109E1CFE0
:1015B000809157030C94D9051F920F920FB60F928A
:1015C00011242F933F938F939F93AF93BF93809159
:1015D000F3059091F405A091F505B091F6053091D1
:1015E000290323E0230F2D3758F50196A11DB11DC6
:1015F000209329038093F3059093F405A093F505B8
:10160000B093F60580912A0390912B03A0912C03AF
:10161000B0912D030196A11DB11D80932A039093D3
:101620002B03A0932C03B0932D03BF91AF919F91F7
:101630008F913F912F910F900FBE0F901F90189593
:1016400026E8230F0296A11DB11DD2CF1F920F9243
:101650000FB60F9211240BB60F922F933F934F9317
:101660005F936F937F938F939F93AF93BF93EF930A
:10167000FF9380E194E00E94DC04FF91EF91BF9121
:10168000AF919F918F917F916F915F914F913F911A
:101690002F910F900BBE0F900FBE0F901F901895BB
:1016A0001F920F920FB60F9211240BB60F922F9329
:1016B0003F934F935F936F937F938F939F93AF93DA
:1016C000BF93EF93FF9380E194E00E946804FF9141
:1016D000EF91BF91AF919F918F917F916F915F91AA
:1016E0004F913F912F910F900BBE0F900FBE0F9017
:1016F0001F9018951F920F920FB60F9211240BB6E0
:101700000F922F933F934F935F936F937F938F939A
:101710009F93AF93BF93EF93FF938DEA94E00E9462
:10172000DC04FF91EF91BF91AF919F918F917F91D9
:101730006F915F914F913F912F910F900BBE0F9042
:101740000FBE0F901F9018951F920F920FB60F9219
:1017500011240BB60F922F933F934F935F936F9388
:101760007F938F939F93AF93BF93EF93FF938DEAF4
:1017700094E00E946804FF91EF91BF91AF919F9117
:101780008F917F916F915F914F913F912F910F902A
:101790000BBE0F900FBE0F901F9018951F920F92C7
:1017A0000FB60F9211240BB60F922F933F934F93C6
:1017B0005F936F937F938F939F93AF93BF93EF93B9
:1017C000FF938AE495E00E94DC04FF91EF91BF91C2
:1017D000AF919F918F917F916F915F914F913F91C9
:1017E0002F910F900BBE0F900FBE0F901F9018956A
:1017F0001F920F920FB60F9211240BB60F922F93D8
:101800003F934F935F936F937F938F939F93AF9388
:10181000BF93EF93FF938AE495E00E946804FF91E1
:10182000EF91BF91AF919F918F917F916F915F9158
:101830004F913F912F910F900BBE0F900FBE0F90C5
:101840001F9018951F920F920FB60F9211240BB68E
:101850000F922F933F934F935F936F937F938F9349
:101860009F93AF93BF93EF93FF938091B900887FCD
:10187000803609F44DC008F040C0883209F4A9C090
:1018800028F5803109F49DC0C8F4882309F4FBC011
:10189000883009F496C0FF91EF91BF91AF919F916D
:1018A0008F917F916F915F914F913F912F910F9009
:1018B0000BBE0F900FBE0F901F901895883109F442
:1018C00088C0803241F78093540314C0803409F4F7
:1018D0009DC040F48033B9F38833E9F68093540314
:1018E00085ECB0C0803509F485C0883509F496C010
:1018F000883489F60E94A40ACECF883909F48CC0B6
:1019000038F5883729F050F4883611F0803719F609
:1019100083E0809356031092F20257C0883809F48E
:101920007BC0803919F0803809F0B5CF8091F20280
:10193000803208F071C0E091F20281E08E0F809356
:10194000F2028091BB00F0E0EE52FD4F80833DC07B
:10195000803B39F0E0F4803A09F479C0883A09F024
:101960009ACF84E0809356031092D1021092D00255
:10197000E091F502F091F60219958091D002811163
:101980000FC081E08093D0021092B00209C0803C69
:1019900009F4A6CF883C09F4A3CF883B09F07BCF9C
:1019A000E091D10281E08E0F8093D102F0E0E0550A
:1019B000FD4F80818093BB009091D1028091D00235
:1019C00029C0809131038093BB0085EC8093BC00DB
:1019D00062CF9091530380915203981758F5E0918C
:1019E000530381E08E0F80935303F0E0EE5CFC4FD5
:1019F0008081E9CFE091530381E08E0F8093530300
:101A00008091BB00F0E0EE5CFC4F8083909153032B
:101A1000809152039817C8F285E8D8CFE09153031C
:101A200081E08E0F809353038091BB00F0E0EE5C69
:101A3000FC4F80838091550381115CCF81E08093BE
:101A4000300384EA8093BC001092560324CF85ECC7
:101A50008093BC00109256038091F202803230F4E1
:101A6000E091F202F0E0EE52FD4F10826091F2023E
:101A700070E0E091F302F091F40282ED92E01995AA
:101A80001092F20208CF1092540334CF1F920F929B
:101A90000FB60F9211240BB60F922F933F934F93D3
:101AA0005F936F937F938F939F93AF93BF93EF93C6
:101AB000FF9348E251E064E271E090E080E00E9430
:101AC000FB07FF91EF91BF91AF919F918F917F9114
:101AD0006F915F914F913F912F910F900BBE0F909F
:101AE0000FBE0F901F9018951F920F920FB60F9276
:101AF00011240BB60F922F933F934F935F936F93E5
:101B00007F938F939F93AF93BF93EF93FF9348EA95
:101B100050E064EA70E083E090E00E94FB07FF91F0
:101B2000EF91BF91AF919F918F917F916F915F9155
:101B30004F913F912F910F900BBE0F900FBE0F90C2
:101B40001F9018951F920F920FB60F9211240BB68B
:101B50000F922F933F934F935F936F937F938F9346
:101B60009F93AF93BF93EF93FF9348E950E064E9ED
:101B700070E082E090E00E94FB07FF91EF91BF913F
:101B8000AF919F918F917F916F915F914F913F9115
:101B90002F910F900BBE0F900FBE0F901F901895B6
:101BA0001F920F920FB60F9211240BB60F922F9324
:101BB0003F934F935F936F937F938F939F93AF93D5
:101BC000BF93EF93FF9348E850E064E870E081E052
:101BD00090E00E94FB07FF91EF91BF91AF919F9121
:101BE0008F917F916F915F914F913F912F910F90C6
:101BF0000BBE0F900FBE0F901F901895FC01909197
:101C0000AE02903398F481E0890F8093AE02908306
:101C1000892F90E0FC01EE0FFF1FE80FF91FE0583D
:101C2000FC4F88EB9BE09283818308958FEF808344
:101C300008954F925F926F927F928F929F92AF9290
:101C4000BF92CF92DF92EF92FF92CF93DF931092E9
:101C500013041092120488EE93E0A0E0B0E08093A9
:101C6000140490931504A0931604B093170423E171
:101C700032E0309311042093100445ED50E050936E
:101C80001D0440931C0444ED50E050931F04409306
:101C90001E0440ED50E0509321044093200441ED98
:101CA00050E0509323044093220442ED50E05093BF
:101CB00025044093240446ED50E0509327044093BC
:101CC00026041092290410922A0410922B041092D8
:101CD0002C041092B0041092AF048093B10490933E
:101CE000B204A093B304B093B4043093AE04209331
:101CF000AD044DEC50E05093BA044093B9044CEC61
:101D000050E05093BC044093BB0448EC50E0509327
:101D1000BE044093BD0449EC50E05093C00440938E
:101D2000BF044AEC50E05093C2044093C1044EEC0F
:101D300050E05093C4044093C3041092C604109220
:101D4000C7041092C8041092C90410924D05109255
:101D50004C0580934E0590934F05A0935005B0938A
:101D6000510530934B0520934A0525EC30E0309324
:101D700057052093560524EC30E030935905209305
:101D8000580520EC30E030935B0520935A0521EC98
:101D900030E030935D0520935C0522EC30E0309319
:101DA0005F0520935E0526EC30E0309361052093BB
:101DB00060051092630510926405109265051092FB
:101DC00066051092EA051092E9058093EB05909361
:101DD000EC05A093ED05B093EE0585E292E09093BB
:101DE000E8058093E70580E090EAA0E8B4E48093FA
:101DF000730690937406A0937506B09376068FE4ED
:101E000096E00E94FE0D8CE496E00E94FE0D89E4AF
:101E100096E00E94FE0D86E496E00E94FE0D83E4AB
:101E200096E00E94FE0DC0900502D0900602E09060
:101E30000702F090080280903F0690904006A09024
:101E40004106B0904206409001025090020260901C
:101E50000302709004028BEF95E09093220680932A
:101E600021068FEF95E09093200680931F0687EF61
:101E700095E0909324068093230610923D061092DD
:101E8000350610923606109237061092380680E01A
:101E900090E0AFE7B3E48093390690933A06A093BD
:101EA0003B06B0933C0684E690E0A0E0B0E080936F
:101EB000310690933206A0933306B0933406C1E006
:101EC000D0E0D0931C06C0931B0620E030E0A901AF
:101ED000C301B2010E94371787FD6EC020E030E0D9
:101EE000A901C501B4010E94371787FD65C020E034
:101EF00030E0A901C701B6010E94371787FD5CC019
:101F0000D0931E06C0931D0681E080933E0640924A
:101F100003065092040660920506709206068092AF
:101F2000070690920806A0920906B0920A06C0928F
:101F30000B06D0920C06E0920D06F0920E06A3015D
:101F4000920160E070E0CB010E94D11860930F060F
:101F50007093100680931106909312062DEC3CECC2
:101F60004CEC5DE3C501B4010E949D179B01AC01DF
:101F700060E070E0CB010E94D1186093130670936B
:101F8000140680931506909316062DEC3CEC4CEC51
:101F90005DE3C701B6010E943E199B01AC0160E000
:101FA00070E0CB010E94D118609317067093180659
:101FB0008093190690931A062FB7F8948091F30531
:101FC0009091F405A091F505B091F6052FBF4091D1
:101FD0003106509132066091330670913406841BAD
:101FE000950BA60BB70B8093250690932606A0931E
:101FF0002706B0932806DF91CF91FF90EF90DF90F6
:10200000CF90BF90AF909F908F907F906F905F9098
:102010004F900895CF93DF93CDB7DEB7A3970FB658
:10202000F894DEBF0FBECDBF789484B5826084BDC6
:1020300084B5816084BD85B5826085BD85B58160CC
:1020400085BD80916E00816080936E00109281004A
:102050008091810082608093810080918100816005
:1020600080938100809180008160809380008091C6
:10207000B10084608093B1008091B0008160809352
:10208000B0008091910082608093910080919100D6
:102090008160809391008091900081608093900096
:1020A0008091A10082608093A1008091A100816055
:1020B0008093A1008091A00081608093A000809116
:1020C00021018260809321018091210181608093B0
:1020D00021018091200181608093200180917A000C
:1020E000846080937A0080917A00826080937A0085
:1020F00080917A00816080937A0080917A00806874
:1021000080937A001092C10061E08DE00E94DE02AF
:1021100061E08DE00E94B00262E086E30E94DE0290
:1021200062E087E30E94DE0261E08AE00E94DE0254
:1021300061E084E00E94DE0261E08BE00E94DE024A
:1021400061E08CE00E94DE0240E052EC61E070E071
:102150008AE495E00E949C0140E855E260E070E06E
:102160008DEA94E00E949C0140E052EC61E070E056
:1021700080E194E00E949C011092F8021092F70214
:1021800010925D0310927F030E94BB0589E394E0E7
:102190009093F6028093F5028AE394E09093F40220
:1021A0008093F30281E080935C0386E780937E0353
:1021B0006EE187EE95E00E94410781E00E94FA05FA
:1021C0006AE070E080E090E00E940704F2E5CF2E24
:1021D000F6E0DF2E00EA11E0A6E72A2E33243A9437
:1021E000B5EE8B2E85EC982E10935C0320927E0327
:1021F00010925D0310927F03602F87EE95E00E949E
:10220000410781E00E94FA050E94E2032B013C0194
:1022100080915603811161C01093560310935503AA
:1022200030925403109253031093520310933103CE
:10223000809131038C6E8093310380913003813023
:1022400009F0ECC0109230030E94E2032B013C0124
:10225000809131038093BB00809158039091590382
:10226000A0915A03B0915B03892B8A2B8B2BA1F091
:102270000E94E203209158033091590340915A0380
:1022800050915B036419750986099709261737076A
:102290004807590708F442C08091BC0083FDD8CF9D
:1022A0009092BC000E94E2032B013C0180915603F6
:1022B000813009F4B6C080915303823008F0D3C056
:1022C00080915303E2E3F3E0A9EFB2E090E09817C6
:1022D00051F121912D939F5FFACF809158039091F6
:1022E0005903A0915A03B0915B03892B8A2B8B2B46
:1022F00009F48ECF0E94E2032091580330915903D4
:1023000040915A0350915B03641975098609970936
:10231000261737074807590708F07ACF80915703E7
:102320000E94D90580E01092F8028093F70287EEB0
:1023300095E00E94FA06782E87EE95E00E94FA0654
:10234000A12C8A299729D6018D939D936D010E5F4B
:102350000E3A09F049CF8091520690915306592FB9
:1023600052955F709F70909353068093520610921F
:1023700061061092600630E020E090E080E0F90114
:10238000EE7FEE5AF94F6081418120FF6EC08627B3
:1023900048E0BC01880F991F77FF02C0B0E39B277C
:1023A0004150B9F72F5F3F4F2031310541F7892F59
:1023B00082958F7058135DC086E592E00E94080AEE
:1023C00064E670E080E090E00E94070410927206DC
:1023D00080E090E4A9E7B4E48093730690937406D8
:1023E000A0937506B093760661E084E00E94B00287
:1023F0000E94320A87E792E00E94080A87E30E945F
:102400008702892BD9F570E060E08BE00E940F0312
:1024100068EC70E08CE00E940F03F0CF8092BC006B
:1024200041CF8091580390915903A0915A03B091E4
:102430005B03892B8A2B8B2B09F438CF0E94E20394
:10244000209158033091590340915A0350915B03F6
:102450006419750986099709261737074807590728
:1024600008F024CF5BCF82E02DCFF12C84279F256D
:102470008FCF83E692E00E94080AB6CF0E94BE0882
:102480000E94320A8FE792E00E94080A67E070E03B
:102490008CE496E00E94730768E070E089E496E0BF
:1024A0000E94730766E070E086E496E00E9473077E
:1024B00069E070E083E496E00E94730764EF71E0E6
:1024C00080E090E00E9407040E941E0A64EF71E021
:1024D00080E090E00E9407048CE892E00E94080AE5
:1024E00080913D060091210610912206811146C07F
:1024F000F801C080D180E280F380C0922906D0929A
:102500002A06E0922B06F0922C06E0911F06F0912D
:10251000200680819181A281B38180932D069093C2
:102520002E06A0932F06B093300680903906909027
:102530003A06A0903B06B0903C06A5019401C70165
:10254000B6010E94DF1918164CF480922906909269
:102550002A06A0922B06B0922C0610C08090350659
:1025600090903606A0903706B0903806A5019401E9
:10257000C701B6010E94371787FDE7CF81E080933E
:102580003D06C12CD12C9AEFE92E93ECF92EC09286
:102590003506D0923606E0923706F0923806412C86
:1025A000512C2AEF622E23E4722E4092390650926B
:1025B0003A0660923B0670923C06D8018D909D9041
:1025C000AD90BC90A3019201C501B4010E94DF1936
:1025D000181634F5F801408251826282738280902D
:1025E000290690902A06A0902B06B0902C06C09049
:1025F0003906D0903A06E0903B06F0903C06A701E1
:102600009601C501B4010E94DF191816D4F4C092D6
:102610002906D0922A06E0922B06F0922C0621C0C1
:1026200020E030E04AEF53ECC501B4010E943717B7
:1026300087FFD5CFD801CD92DD92ED92FC92139712
:10264000CECFC0903506D0903606E0903706F09099
:102650003806A7019601C501B4010E94371787FD0E
:10266000D6CF84E992E00E94080A60E08DE00E94E3
:10267000B00285E0282E8E01055E1F4F332433946F
:102680008AE495E00E949004BE016F5F7F4F0E9434
:10269000F401181619060CF06BC1CE0101960E94C8
:1026A000080A8981803709F090C1F801222D119222
:1026B0002A95E9F7DE0112966801F8017F01E01A18
:1026C000F10A8D91893611F08193F8CFB801CE01CE
:1026D00045960E945B0ACE0145960E94480A0E94D8
:1026E0003E1720E030E048EC52E40E943E1960932F
:1026F00001027093020280930302909304020E94ED
:102700003309CE0145960E94530A65E070E0C80186
:102710000E94B508F701329681E090E08C0F9D1F72
:10272000E80FF91FD801C701801B910B7C01EA0E4D
:10273000FB1E2191243611F02D93F8CFB801CE0164
:1027400045960E945B0ACE0145960E94480A0E9467
:102750003E1720E030E048EC52E40E943E196093BE
:102760003F067093400680934106909342060E9474
:102770003309CE0145960E94530A65E070E0C80116
:102780000E94B50893E0E90EF11CE1E0F0E0EC0FE7
:10279000FD1FEE0DFF1D8191853621F0D6018D9331
:1027A0006D01F9CFB801CE0145960E945B0ACE01BA
:1027B00045960E94480A0E943E1720E030E048EC0F
:1027C00052E40E943E1960930502709306028093C2
:1027D0000702909308020E943309CE0145960E9499
:1027E000530A4090010250900202609003027090E0
:1027F000040220E030E0A901C301B2010E943717B2
:1028000087FDB6C080903F0690904006A09041069C
:10281000B090420620E030E0A901C501B4010E9459
:10282000371787FDA5C0C0900502D0900602E09042
:102830000702F090080220E030E0A901C701B601CC
:102840000E94371787FD94C081E020911D063091CA
:102850001E062130310509F080E080933E0640924B
:102860000306509204066092050670920606809256
:10287000070690920806A0920906B0920A06C09236
:102880000B06D0920C06E0920D06F0920E066091B7
:1028900031067091320680913306909134060E9481
:1028A0003C1720E030E04AE754E40E943E1968A358
:1028B00079A38AA39BA340920F06509210066092C0
:1028C0001106709212069B01AC01C501B4010E9471
:1028D0009D174B015C018092130690921406A09202
:1028E0001506B092160628A139A14AA15BA1C7011D
:1028F000B6010E943E196B017C01C0921706D0926E
:102900001806E0921906F0921A0680911B06909123
:102910001C06019769F5A301920160E070E0CB010C
:102920000E94D11860930F067093100680931106D1
:1029300090931206A501940160E070E0CB010E9423
:10294000D118609313067093140680931506909324
:102950001606A701960160E070E0CB010E94D11835
:1029600060931706709318068093190690931A06C1
:102970008DEA94E00E949004BE016F5F7F4F0E9439
:10298000F401181619060CF0CCC0CE0101960E9475
:10299000080A8981833709F0C4C08A81843709F025
:1029A000EEC01B8E1C8E1D8E1E8EDE0113967E01C8
:1029B000EBE1EE0EF11CF70147016F01CE18DF08C5
:1029C0008D91893659F18193F8CF833789F61B8E23
:1029D0001C8E1D8E1E8EDE011296FE017B96BF019F
:1029E0008D91853611F08193FBCFCE0145960E94E3
:1029F0005B0ACE0145960E94480A0E943E176093EA
:102A0000F7057093F8058093F9059093FA050E94F5
:102A10003309CE0145960E94530AAACFB701CE01D1
:102A200045960E945B0ACE0145960E94480A9B018A
:102A3000AC01A8EEB3E00E947A186093190370937A
:102A40001A0380931B0390931C030E941809CE0164
:102A500045960E94530A64E070E0C7010E94B508E1
:102A6000F601339621E030E02C0F3D1FE20FF31FFB
:102A7000D701CE18DF085601AA0EBB1E81918436FD
:102A800011F08D93F8CFB701CE0145960E945B0AF5
:102A9000CE0145960E94480A609323037093240355
:102AA00080932503909326030E941809CE01459632
:102AB0000E94530A64E070E0C7010E94B50834E048
:102AC000A30EB11CE1E0F0E0EC0FFD1FEA0DFB1DD1
:102AD0008191853621F0D7018D937D01F9CFB40125
:102AE000CE0145960E945B0ACE0145960E94480A97
:102AF0000E943E1720E030E0A9010E94D2186093A6
:102B0000F7057093F8058093F9059093FA050E94F4
:102B10003309CE0145960E94530A30922803309221
:102B2000220380912803882339F180912703882389
:102B300019F18091230390912403A0912503B09172
:102B40002603892B8A2B8B2B09F0BEC010922803F9
:102B50001092270310922203109221030E94320A3E
:102B600066EA72E08DEA94E00E94C8086DE372E0C4
:102B70008DEA94E00E94C8080E946B0581CD8037E1
:102B800009F097C01B8E1C8E1D8E1E8EDE011396C3
:102B9000F8017F01E01AF10A8D91843711F08193D9
:102BA000F8CFB801CE0145960E945B0ACE0145964A
:102BB0000E94480ADB0124EF31E00E94CA1824E693
:102BC00030E040E050E00E945B18C901253F3140F1
:102BD00014F084EF91E097FF02C090E080E00E9443
:102BE000F009CE0145960E94530A64E070E0C801E6
:102BF0000E94B508F701339621E030E02C0F3D1F0D
:102C0000E20FF31FD801E01AF10A6701CA0EDB1EBA
:102C10008191853611F08D93F8CFB801CE0145969C
:102C20000E945B0ACE0145960E94480A6B307105EE
:102C300014F06AE070E077FF02C070E060E0A8EE98
:102C4000B3E06A9FC0016B9F900D7A9F900D112495
:102C50000E94F009CE0145960E94530AE5E0F0E09B
:102C6000EC0FFD1FEC0DFD1D80818536F9F03CF465
:102C70008136B1F08436B9F00E941E0A52CF8337F4
:102C800061F0873729F08137B9F780EA92E002C016
:102C90008CE992E00E94080A44CF8EE992E0FACFD4
:102CA00081EA92E0F7CF84EA92E0F4CF83EA92E0FF
:102CB000F1CF833709F035CF80912803882309F4B9
:102CC00030CF309227032DCF809122038823A9F0A3
:102CD0002FB7F8948091F3059091F405A091F50534
:102CE000B091F6052FBF80931D0390931E03A09310
:102CF0001F03B093200310922203409119035091B7
:102D00001A0360911B0370911C038FB7F894C09055
:102D1000F305D090F405E090F505F090F6058FBF2F
:102D200080911D0390911E03A0911F03B091200379
:102D3000840F951FA61FB71F20912103C816D9061F
:102D4000EA06FB06A8F03092000230922203822F9E
:102D500083258093210381113AC0609123037091F0
:102D6000240380912503909126030E94180904CF23
:102D7000909100022223E1F0992309F4FDCE8FE423
:102D800092E00E94080A64E670E08BE00E940F0364
:102D900070E060E08CE00E940F0368E873E180E07F
:102DA00090E00E9407040E94BE0810920002E4CE48
:102DB000992309F4E1CE87E792E00E94080A70E0C7
:102DC00060E08BE00E940F0364E670E0E3CF809147
:102DD000230390912403A0912503B091260301972A
:102DE000A109B1098093230390932403A0932503A1
:102DF000B0932603B2CF1F93FC0199278827BC010B
:102E0000E89411911032E9F3193010F01E30C8F334
:102E10001B3251F01D3249F4689406C00E942217FB
:102E2000610F711D811D911D119110531A30B0F366
:102E30003EF490958095709561957F4F8F4F9F4F91
:102E40001F910895592F482F372F262F660F771F70
:102E5000881F991F660F771F881F991F620F731FA6
:102E6000841F951F660F771F881F991F08950E9462
:102E7000791708F481E00895E89409C097FB3EF4BF
:102E800090958095709561957F4F8F4F9F4F9923B7
:102E9000A9F0F92F96E9BB279395F6958795779535
:102EA0006795B795F111F8CFFAF4BB0F11F460FFF5
:102EB0001BC06F5F7F4F8F4F9F4F16C0882311F04D
:102EC00096E911C0772321F09EE8872F762F05C061
:102ED000662371F096E8862F70E060E02AF09A95FC
:102EE000660F771F881FDAF7880F9695879597F9F1
:102EF0000895990F0008550FAA0BE0E8FEEF16168B
:102F00001706E807F907C0F012161306E407F507DD
:102F100098F0621B730B840B950B39F40A2661F051
:102F2000232B242B252B21F408950A2609F4A140F4
:102F3000A6958FEF811D811D08950E94B0170C94F6
:102F400021180E94131838F00E941A1820F09523B7
:102F500011F00C940A180C94101811240C945518A4
:102F60000E94321870F3959FC1F3950F50E0551FE2
:102F7000629FF001729FBB27F00DB11D639FAA27CE
:102F8000F00DB11DAA1F649F6627B00DA11D661F1D
:102F9000829F2227B00DA11D621F739FB00DA11D3E
:102FA000621F839FA00D611D221F749F3327A00DF8
:102FB000611D231F849F600D211D822F762F6A2F94
:102FC00011249F5750409AF0F1F088234AF0EE0FF9
:102FD000FF1FBB1F661F771F881F91505040A9F726
:102FE0009E3F510580F00C940A180C9455185F3FD1
:102FF000E4F3983ED4F3869577956795B795F79562
:10300000E7959F5FC1F7FE2B880F911D96958795D9
:1030100097F9089597F99F6780E870E060E0089558
:103020009FEF80EC089500240A94161617061806E0
:103030000906089500240A941216130614060506BC
:103040000895092E0394000C11F4882352F0BB0F4D
:1030500040F4BF2B11F460FF04C06F5F7F4F8F4FB0
:103060009F4F089557FD9058440F551F59F05F3FEB
:1030700071F04795880F97FB991F61F09F3F79F09A
:1030800087950895121613061406551FF2CF46951C
:10309000F1DF08C0161617061806991FF1CF86959E
:1030A0007105610508940895E894BB276627772782
:1030B000CB0197F90895052E97FB1EF400940E940A
:1030C000721857FD07D00E94851807FC03D04EF4F4
:1030D0000C94721850954095309521953F4F4F4F65
:1030E0005F4F089590958095709561957F4F8F4FB4
:1030F0009F4F08950E94A718A59F900DB49F900D13
:10310000A49F800D911D11240895A1E21A2EAA1BDF
:10311000BB1BFD010DC0AA1FBB1FEE1FFF1FA21787
:10312000B307E407F50720F0A21BB30BE40BF50B84
:10313000661F771F881F991F1A9469F7609570950D
:10314000809590959B01AC01BD01CF010895A29F90
:10315000B001B39FC001A39F700D811D1124911D6B
:10316000B29F700D811D1124911D0895991B79E066
:1031700004C0991F961708F0961B881F7A95C9F707
:1031800080950895EE0FFF1F881F8BBF0790F69163
:10319000E02D19940E94A718B7FF0895821B930B86
:1031A00008955058BB27AA270E94E9180C942118AB
:1031B0000E94131838F00E941A1820F039F49F3F2B
:1031C00019F426F40C9410180EF4E095E7FB0C9417
:1031D0000A18E92F0E94321858F3BA1762077307CA
:1031E0008407950720F079F4A6F50C9454180EF492
:1031F000E0950B2EBA2FA02D0B01B90190010C0107
:10320000CA01A0011124FF27591B99F0593F50F41E
:10321000503E68F11A16F040A22F232F342F442776
:10322000585FF3CF469537952795A795F04053956E
:10323000C9F77EF41F16BA0B620B730B840BBAF03E
:103240009150A1F0FF0FBB1F661F771F881FC2F7A9
:103250000EC0BA0F621F731F841F48F487957795BD
:103260006795B795F7959E3F08F0B0CF9395880F77
:1032700008F09927EE0F9795879508950E945219A7
:103280000C9421180E941A1858F00E94131840F04C
:1032900029F45F3F29F00C940A1851110C94551829
:1032A0000C9410180E94321868F39923B1F3552337
:1032B00091F3951B550BBB27AA2762177307840749
:1032C00038F09F5F5F4F220F331F441FAA1FA9F3DF
:1032D00035D00E2E3AF0E0E832D091505040E695CD
:1032E000001CCAF72BD0FE2F29D0660F771F881F2E
:1032F000BB1F261737074807AB07B0E809F0BB0B21
:10330000802DBF01FF2793585F4F3AF09E3F510534
:1033100078F00C940A180C9455185F3FE4F3983E2B
:10332000D4F3869577956795B795F7959F5FC9F71D
:10333000880F911D9695879597F90895E1E0660F9E
:10334000771F881FBB1F621773078407BA0720F017
:10335000621B730B840BBA0BEE1F88F7E095089580
:103360000E943A1888F09F5798F0B92F9927B751C3
:10337000B0F0E1F0660F771F881F991F1AF0BA9519
:10338000C9F714C0B13091F00E945418B1E008950B
:103390000C945418672F782F8827B85F39F0B93FFD
:1033A000CCF3869577956795B395D9F73EF49095CC
:1033B0008095709561957F4F8F4F9F4F08950E9424
:1033C000791708F48FEF08950E947917880B990BED
:1033D00008950F931F93CF93DF938230910510F4DC
:1033E00082E090E0E0917906F0917A0630E020E00A
:1033F000B0E0A0E0309799F42115310509F44AC0F6
:10340000281B390B24303105D8F58A819B81611541
:10341000710589F1FB0193838283FE0111C0408114
:1034200051810281138148175907E0F04817590765
:1034300099F4109761F012960C93129713961C93BF
:103440003296CF01DF91CF911F910F910895009394
:10345000790610937A06F4CF2115310551F0421701
:10346000530738F0A901DB019A01BD01DF01F80122
:10347000C1CFEF01F9CF90937A0680937906CDCF33
:10348000FE01E20FF31F819391932250310939839A
:103490002883D7CF2091770630917806232B41F4EB
:1034A00020910B0230910C0230937806209377061E
:1034B0002091090230910A022115310541F42DB7FE
:1034C0003EB740910D0250910E02241B350BE09146
:1034D0007706F0917806E217F307A0F42E1B3F0B56
:1034E0002817390778F0AC014E5F5F4F2417350776
:1034F00048F04E0F5F1F50937806409377068193F4
:1035000091939FCFF0E0E0E09CCFCF93DF930097C3
:10351000E9F0FC01329713821282A0917906B091F2
:103520007A06ED0130E020E01097A1F4208131818E
:10353000820F931F2091770630917806281739075C
:1035400009F061C0F0937806E0937706DF91CF91A0
:103550000895EA01CE17DF07E8F54A815B819E01F5
:1035600041155105B1F7E901FB83EA83499159916E
:10357000C40FD51FEC17FD0761F48081918102967D
:10358000840F951FE90199838883828193819B83AE
:103590008A83F0E0E0E012968D919C91139700975A
:1035A000B9F52D913C911197CD010296820F931F91
:1035B00020917706309178062817390739F6309729
:1035C00051F510927A0610927906B0937806A0937E
:1035D0007706BCCFD383C28340815181840F951F6E
:1035E000C817D90761F44E5F5F4F88819981480FF2
:1035F000591F518340838A819B8193838283211544
:10360000310509F0B0CFF0937A06E09379069ECFAA
:10361000FD01DC01C0CF13821282D7CF4F925F929F
:103620006F927F928F929F92AF92BF92CF92DF92D2
:10363000EF92FF920F931F93CF93DF938C0100972C
:1036400099F4CB01DF91CF911F910F91FF90EF90F3
:10365000DF90CF90BF90AF909F908F907F906F90B2
:103660005F904F900C94E919FC01E60FF71F9C0145
:1036700022503109E217F30708F4AEC0D901CD9109
:10368000DC911197C617D70720F1C530D10578F026
:10369000CE0104978617970750F0C61BD70B2297C9
:1036A000C193D1936D937C93CF010E94851AC80179
:1036B000DF91CF911F910F91FF90EF90DF90CF900E
:1036C000BF90AF909F908F907F906F905F904F9042
:1036D00008955B01AC1ABD0A4C018C0E9D1EA09191
:1036E0007906B0917A06512C412CF12CE12C1097DF
:1036F00031F580917706909178068815990509F043
:103700005CC04616570608F058C080910902909197
:103710000A02009741F48DB79EB740910D02509177
:103720000E02841B950BE817F90708F055C0F093BB
:103730007806E0937706F90171836083B8CF8D91A5
:103740009C91119712966C90129713967C901397F8
:10375000A815B90559F56C0142E0C40ED11CCA1474
:10376000DB0420F1AC014A195B09DA0112961597C6
:1037700080F06282738251834083D9016D937C9380
:10378000E114F10471F0D7011396FC93EE931297B4
:103790008ECF22968C0F9D1FF90191838083F301B8
:1037A000EFCFF0937A06E093790681CF4816590659
:1037B00008F42C017D01D3019ACFCB010E94E919B5
:1037C0007C01009749F0AE01B8010E94EF1BC801CF
:1037D0000E94851A87016BCF10E000E068CFFB01E3
:1037E000DC0102C001900D9241505040D8F708957D
:1037F000FB01DC0101900D920020E1F70895F8949F
:02380000FFCFF8
:1038020001000020400000104100007B0680000003
:10381200000000FE043B0481044B05B2049004A4A2
:103822000400000000410714077007EA060D07FABA
:1038320006EB065B44454255475D3A20000D0A00FF
:103842006E616E00696E66006F76660053540045C5
:103852007874656E6400502053656E736F72204FEA
:103862004B2E00502053656E736F7220496E69743F
:10387200204661696C2E0052657472616374004166
:1038820063747561746F72204F4B2E004553432051
:103892004F4B2E00496E6974204F4B004600420088
:0A38A200524C005252006465000011
:00000001FF
