:100000000C9469010C949A010C949A010C949A0135
:100010000C949A010C949A010C949A010C949A01F4
:100020000C949A010C949A010C949A010C949A01E4
:100030000C949A010C949A010C949A010C949A01D4
:100040000C949A010C94DF0D0C949A010C949A0173
:100050000C949A010C949A010C949A010C94EB0A5A
:100060000C949A010C94070C0C94DD0B0C949A01DF
:100070000C949A010C949A010C949A010C949A0194
:100080000C94B10D0C949A010C949A010C949A0161
:100090000C94B30B0C94890B0C949A010C94310CB6
:1000A0000C949A010C949A010C94830D0C949A016F
:1000B0000C949A010C949A010C949A010C94550D8D
:1000C0000C949A010C949A010C949A010C945F0B75
:1000D0000C94350B0C949A010C949A010C949A018F
:1000E0000C949A010C9459020C946C040C947102B7
:1000F0000C945A030C9426040C94F8060C946B028E
:100100000C94AB030C947E030C944C020C944402AC
:100110000C9497030C945B070C9446030C94A10376
:100120000C947E020C94D5060C945D020C9425046C
:100130000C9462030C9450020C947F020C9488037C
:100140000C946A030C94D6060C949D040C947902CA
:100150000C9474030C94E5060C942C070C94320355
:100160000C947B040C9448020C9475020C948F043C
:100170000C94B5030C9463020C9483020C946702F4
:100180000C9450030C943C030C9424040C94FF0630
:100190000C94280E0C9437030C94C9030C9453024E
:1001A0000C94BF030C9436050C943E020C94E904A5
:1001B00000002100240027002A002D003000330019
:1001C00001010000040107010A01000022002500CE
:1001D00028002B002E003100340002010000050130
:1001E00008010B01000020002300260029002C003C
:1001F0002F0032000001000003010601090105057E
:100200000505070508080808020202020A0A08088C
:1002100004040404010101010101010103030303BA
:1002200003030303040707070C0C0C0C0C0C0C0C49
:100230000202020206060606060606060B0B0B0B5A
:100240000B0B0B0B0102102020080810204010207F
:10025000408002010201080402010102040810208A
:100260004080804020100804020180040201804088
:1002700020100804020108040201010204081020F1
:100280004080010204081020408000000A0B02098F
:100290000C0D0E0807030401000000000000000020
:1002A000000000000000000000000000000000004E
:1002B000000000000000121110000000000000000B
:1002C000000000000000000000000000000000002E
:1002D000280E11241FBECFEFD1E2DEBFCDBF00E05C
:1002E0000CBF12E0A0E0B2E0ECE9F7E300E00BBFE6
:1002F00002C007900D92A83AB107D9F726E0A8EA04
:10030000B2E001C01D92A737B207E1F711E0C9E6DC
:10031000D1E000E006C021970109802FFE010E9474
:100320008F18C836D10780E00807A9F70E94191076
:100330000C94CC1B0C940000CF93DF93EC019A013A
:10034000AB01E889F98982E08083211581EE3807C5
:100350004105510581F160E079E08DE390E00E9474
:100360005218215031094109510956954795379541
:100370002795EC85FD851082EE85FF852083188EFC
:10038000EC89FD8986E08083EA89FB898081806130
:100390008083EA89FB89808188608083EA89FB8980
:1003A000808180688083EA89FB8980818F7D80835A
:1003B000DF91CF910895E889F989108220E1D9CFA2
:1003C000FC018081803378F42FB7F89490E0FC0131
:1003D000EE0FFF1FE80FF91FE458FC4F84EB9BE082
:1003E000928381832FBF0895482F181634F52091EA
:1003F0002A0330912B038A3079F4C9010196260F24
:10040000371FF9014083680F791FFB01108210929A
:100410002B0310922A0308952331310574F4C90186
:10042000019690932B0380932A03260F371FF9011F
:100430004083680F791FFB01108290E080E00895EF
:100440008150823108F05AC0E82FF0E08827E45D3F
:10045000FD4F8F4F0C948F184C0250023E02440205
:1004600048027E02530259025D02630267026B0278
:10047000710275027E0279027F0283028091800000
:100480008F77809380000895809180008F7DF9CFD1
:1004900080918000877FF5CF84B58F7784BD0895E4
:1004A00084B58F7DFBCF8091B0008F778093B000B3
:1004B00008958091B0008F7DF9CF809190008F7763
:1004C000809390000895809190008F7DF9CF809166
:1004D0009000877FF5CF8091A0008F778093A00058
:1004E00008958091A0008F7DF9CF8091A000877F33
:1004F000F5CF809120018F7780932001089580911E
:1005000020018F7DF9CF80912001877FF5CFCF9398
:10051000DF93282F30E0F901E657FD4F8491F90170
:10052000EC5BFD4FD491F901E250FE4FC491CC2316
:10053000A1F081110E942002EC2FF0E0EE0FFF1FCE
:10054000EC51FE4FA591B491EC91ED2381E090E048
:1005500009F480E0DF91CF91089580E090E0FACF38
:100560001F93CF93DF93282F30E0F901E657FD4F1B
:100570008491F901EC5BFD4FD491F901E250FE4FFB
:10058000C491CC23A9F0162F81110E942002EC2FD8
:10059000F0E0EE0FFF1FE653FE4FA591B4918FB729
:1005A000F894EC91111108C0D095DE23DC938FBF35
:1005B000DF91CF911F910895DE2BF8CFCF93DF937A
:1005C00090E0FC01EC5BFD4F249182509E4FFC01BA
:1005D00084918823D1F090E0880F991FFC01E055A9
:1005E000FE4FA591B491FC01E653FE4FC591D49105
:1005F000623071F49FB7F8943C91822F80958323E9
:100600008C93E8812E2B28839FBFDF91CF91089593
:100610008FB7F894EC912E2B2C938FBFF6CF982F99
:10062000E82FF0E0E657FD4FE491E150E23108F0A9
:10063000B0C0F0E08827E05EFC4F8F4F0C948F181D
:10064000320337033C0346035003C9035A036203D2
:100650006A0374037E0388039703A103C903AB03F2
:10066000B503BF0384B5806884BD67BD089584B5B4
:10067000806284BD68BD0895809180008068809309
:1006800080007093890060938800089580918000B5
:1006900080628093800070938B0060938A0008953D
:1006A0008091800088608093800070938D006093BB
:1006B0008C0008958091B00080688093B0006093B2
:1006C000B30008958091B00080628093B000609381
:1006D000B40008958091900080688093900070939A
:1006E00099006093980008958091900080628093B3
:1006F000900070939B0060939A0008958091900001
:1007000088608093900070939D0060939C00089592
:100710008091A00080688093A0008091A0008F7BD2
:100720008093A0007093A9006093A8000895809121
:10073000A00080628093A0007093AB006093AA0039
:1007400008958091A00088608093A0007093AD0010
:100750006093AC000895809120018068809320010F
:10076000709329016093280108958091200180628F
:100770008093200170932B0160932A01089580914A
:10078000200188608093200170932D0160932C01DB
:10079000089560E0892F0C94B0023FB7F8948091DF
:1007A000260390912703A0912803B091290326B531
:1007B000A89B05C02F3F19F00196A11DB11D3FBF99
:1007C000BA2FA92F982F8827BC01CD01620F711D68
:1007D000811D911D42E0660F771F881F991F4A9562
:1007E000D1F708958F929F92AF92BF92CF92DF92EE
:1007F000EF92FF924B015C010E94CD036B017C01E3
:100800000E94CD036C197D098E099F09683E7340D3
:1008100081059105A8F321E0821A9108A108B10889
:1008200088EEC80E83E0D81EE11CF11C81149104EF
:10083000A104B10429F7FF90EF90DF90CF90BF9013
:10084000AF909F908F90089508950895AF92BF92B2
:10085000CF92DF92EF92FF920F931F93CF93DF938C
:100860006C017B018B01040F151FEB015E01AE18BB
:10087000BF08C017D10759F06991D601ED91FC91DD
:100880000190F081E02DC6011995892B79F7C501FA
:10089000DF91CF911F910F91FF90EF90DF90CF905C
:1008A000BF90AF900895FC01A089B1898C91A68971
:1008B000B78982FD0FC09C91818D8F5F8F73228DD0
:1008C000821749F0A18DAE0FBF2FB11D5D969C938D
:1008D000818F08958C910895FC01538D448D252FAF
:1008E00030E0842F90E0821B930B541710F0CF96CA
:1008F000089501970895FC01918D828D981761F0FC
:10090000A28DAE0FBF2FB11D5D968C91928D9F5F12
:100910009F73928F90E008958FEF9FEF0895FC01F1
:10092000918D828D981731F0828DE80FF11D858DA4
:1009300090E008958FEF9FEF0895FC01918D228D37
:10094000892F90E0805C9F4F821B91098F739927BC
:1009500008958CE094E00E949D0421E0892B09F425
:1009600020E0822F089589EA94E00E949D0421E00E
:10097000892B09F420E0822F089586E495E00E94F7
:100980009D0421E0892B09F420E0822F0895FC01C9
:10099000A48DA80FB92FB11DA35ABF4F2C91848DE0
:1009A00090E001968F739927848FA689B7892C933D
:1009B000A089B1898C91837080648C93938D848D90
:1009C000981306C00288F389E02D80818F7D808393
:1009D0000895EF92FF920F931F93CF93DF93EC0153
:1009E00081E0888F9B8D8C8D98131AC0E889F989D6
:1009F000808185FF15C09FB7F894EE89FF896083D9
:100A0000E889F98980818370806480839FBF81E059
:100A100090E0DF91CF911F910F91FF90EF9008959B
:100A2000F62E0B8D10E00F5F1F4F0F731127E02E76
:100A30008C8D8E110CC00FB607FCFACFE889F989AE
:100A4000808185FFF5CFCE010E94C704F1CFEB8DE9
:100A5000EC0FFD2FF11DE35AFF4FF0829FB7F89482
:100A60000B8FEA89FB8980818062CFCFCF93DF93A0
:100A7000EC01888D8823B9F0AA89BB89E889F989B6
:100A80008C9185FD03C0808186FD0DC00FB607FCEB
:100A9000F7CF8C9185FFF2CF808185FFEDCFCE011E
:100AA0000E94C704E9CFDF91CF91089580E090E0E4
:100AB000892B29F00E94BD0481110E94000080E072
:100AC00090E0892B29F00E94B30481110E9400005C
:100AD00080E090E0892B29F00E94A90481110E94F6
:100AE000000080E090E0892B49F080E090E0892BC5
:100AF00029F00E94000081110C94000008952091BB
:100B0000CE02260F3327331F21323105ECF420911A
:100B10005203FC0190E080E0243069F082E0089507
:100B2000A091CE022191AC0142555D4FA40FB52F8B
:100B3000B11D2C930196861798F38091CE02680F11
:100B40006093CE0280E0089581E0089510925203F0
:100B500081E08093510310922C0361E084E10E94B4
:100B6000B00261E085E10E94B002E9EBF0E0808133
:100B70008E7F808380818D7F808388E48093B8001E
:100B800085E48093BC000895CF93DF9391E0909328
:100B9000AD028823B9F0C091B800D091BA0080911D
:100BA000BC008A7B8093BC0060E084E10E94B002BC
:100BB00060E085E10E94B0020E94A605D093BA00D1
:100BC000C093B800DF91CF9108958F929F92AF921A
:100BD000BF92CF92DF92EF92FF920F931F93CF932A
:100BE000DF93D0917B03D13208F0D7C0182FC0918A
:100BF0007A030E94CD036B017C0180915203811125
:100C00006BC082E080935203109351038FEF809367
:100C1000500310924F03D0934E03AAE5B3E0EEE2E7
:100C2000F3E080E0D81391C010922D0380912D0342
:100C3000CC0FC82BC0932D0380912C03813009F079
:100C400088C010922C030E94CD036B017C0180911F
:100C50002D038093BB008091540390915503A09184
:100C60005603B0915703892B8A2B8B2BA1F00E943E
:100C7000CD030091540310915503209156033091F8
:100C800057036C197D098E099F0906171707280756
:100C9000390708F442C08091BC0083FDD8CF85ECB1
:100CA0008093BC000E94CD036B017C0180915203B4
:100CB000823009F450C0809150038F3F09F46FC017
:100CC00080915003803209F46CC0809150038033CE
:100CD00009F469C084E026C08091540390915503C3
:100CE000A0915603B0915703892B8A2B8B2B09F4C3
:100CF00084CF0E94CD038090540390905503A09020
:100D00005603B09057036C197D098E099F0986160A
:100D10009706A806B90608F070CF809153030E9489
:100D2000C40585E01092590310927B03109258037A
:100D3000DF91CF911F910F91FF90EF90DF90CF90B7
:100D4000BF90AF909F908F9008959D9191938F5FEA
:100D500069CF85EEA5CF8091540390915503A09162
:100D60005603B0915703892B8A2B8B2B09F49ECF06
:100D70000E94CD0300915403109155032091560316
:100D8000309157036C197D098E099F0906171707C3
:100D90002807390708F08ACFC0CF81E0C3CF80E0B1
:100DA000C1CF82E0BFCF83E0BDCF0895E091F602CE
:100DB0008091F502E81730F4F0E0E950FD4F8081B2
:100DC00090E008958FEF9FEF08959091F602809143
:100DD000F5022FEF3FEF981748F4E92FF0E0E950C4
:100DE000FD4F208130E09F5F9093F602C901089586
:100DF0008091F5029091F602891B990B0895CF928C
:100E0000DF92EF92FF920F931F93CF93DF937C01BA
:100E1000CB018A0120915803222389F0EB016B0159
:100E2000C40ED51ECC15DD0569F06991D701ED9191
:100E3000FC910190F081E02DC7011995F3CF642F4B
:100E40000E947F05C801DF91CF911F910F91FF9004
:100E5000EF90DF90CF900895CF93DF931F92CDB79F
:100E6000DEB76983209158032223F9F020917B0398
:100E7000203258F021E030E0FC013383228390E0FF
:100E800080E00F90DF91CF91089580915903E82F72
:100E9000F0E0E65AFC4F998190838F5F809359036D
:100EA00080937B0381E090E0ECCF61E0CE0101967E
:100EB0000E947F05F7CF90E080E008951F93CF93C5
:100EC000DF93EC01162F8881803308F04EC061E07B
:100ED000812F0E94DE028881282F30E0F901EE0F79
:100EE000FF1FE20FF31FE458FC4F1F736081607C0B
:100EF000612B608319821A822CE0622F0E94831872
:100F0000829FB001112430E020E0AB01420F531F5B
:100F1000FA01EE0FFF1FE40FF51FE458FC4F90811C
:100F200096FD16C02F5F3F4F2C30310571F7813091
:100F300009F51092800082E0809381001092850074
:100F400010928400B19A80916F00826080936F004C
:100F5000E8818E2F90E0FC01EE0FFF1FE80FF91FD4
:100F6000E458FC4F8081806480838881DF91CF9139
:100F70001F910895823061F4109290008093910047
:100F8000109295001092940088BB80937100E0CF7E
:100F9000833069F41092A00082E08093A100109247
:100FA000A5001092A40089BB80937200D1CF81115B
:100FB000CFCF1092200182E0809321011092250171
:100FC000109224018ABB80937300C2CFAF92BF926C
:100FD000CF92DF92EF92FF920F931F93CF93DF9305
:100FE0006B017A01EC01C855DD4F28813CE0389F48
:100FF0008001399F100D1124A090AC02B12C27FF65
:101000001FC0FB011182108288818F5F88838881D5
:101010009801280F311D87FD3A95F6012A153B05E9
:101020001CF488818C30C4F18081918104968034D5
:101030009C4908F473C0F60180819181049670C0C8
:1010400088819801280F311D87FD3A952A153B05A7
:10105000DCF68881A801480F511D87FD5A95FA01D9
:10106000EE0FFF1FE40FF51FE458FC4F808186FF51
:10107000CBCF8881F801E80FF11D87FDFA95CF01EC
:10108000EE0FFF1FE80FF91FE458FC4F808160E06E
:101090008F730E94B002B8CF808191812881A8010E
:1010A000420F511D27FD5A959A01FA01EE0FFF1FBD
:1010B000E20FF31FE458FC4F21813281820F931F0E
:1010C000F7019183808388819801280F311D87FD66
:1010D0003A95F901EE0FFF1FE20FF31FE458FC4FA2
:1010E000808186FF22C08881080F111D87FD1A9517
:1010F000F801EE0FFF1FE00FF11FE458FC4F808155
:1011000061E08F73DF91CF911F910F91FF90EF906E
:10111000DF90CF90BF90AF900C94B00280E49CE938
:10112000F701918380838FEF8883DF91CF911F91A7
:101130000F91FF90EF90DF90CF90BF90AF90089508
:10114000680F791FFC011192CF01E617F707D1F75D
:10115000089561E08BE00E94DE0260E08BE00E9477
:10116000B00261E08CE00E94DE0260E08CE00C9452
:10117000B002FB0101900020E9F73197AF01461B57
:10118000570B0C9426048F929F92AF92BF920F93AD
:101190001F93CF93DF93CDB7DEB7A1970FB6F89427
:1011A000DEBF0FBECDBF19A2423008F44AE08E0167
:1011B0000F5D1F4F842E912CB12CA12CA501940101
:1011C0000E945218E62FB901CA01EA3004F5E05D29
:1011D000D801EE938D01232B242B252B79F790E05A
:1011E00080E0109729F0BD0186E495E00E94B908DF
:1011F000A1960FB6F894DEBF0FBECDBFDF91CF91A1
:101200001F910F91BF90AF909F908F900895E95CD0
:10121000DFCF8F929F92AF92BF92CF92DF92EF92E9
:10122000FF926B017C0162E372E086E495E00E942C
:10123000B908A7019601C701B6010E94B1196CE374
:1012400072E081111AC046015701E894B7F82FEFF8
:101250003FEF4FE75FE7C501B4010E94B11981116B
:101260001EC02FEF3FEF4FE75FE7C501B4010E94BB
:1012700004171816A4F460E472E086E495E00E9476
:10128000B90868E472E086E495E0FF90EF90DF90A3
:10129000CF90BF90AF909F908F900C94B9082FEF94
:1012A0003FEF4FE75FE4C701B6010E94AC19181683
:1012B0001CF464E472E0E1CF2FEF3FEF4FE75FEC07
:1012C000C701B6010E94041787FDF3CF20E030E08C
:1012D000A901C701B6010E94041787FF09C06DE28A
:1012E00086E495E00E94E904F7FAF094F7F8F094A8
:1012F0002AE037ED43EA5BE3C701B6010E949F187D
:101300004B015C010E947D196B017C010E94091751
:101310009B01AC01C501B4010E949E184B015C0108
:101320004AE0C701B6010E94C3086EE286E495E078
:101330000E94E90420E030E040E251E4C501B4013C
:101340000E946A174B015C010E947D196B01F12C10
:10135000E12C4AE0C701B6010E94C308C701B601EB
:101360000E9409179B01AC01C501B4010E949E189F
:1013700020E030E040E251E40E946A170E947D19AB
:1013800090E080E04AE00E94C3087BCFCF92DF92DA
:10139000EF92FF926C0162E372E086E495E00E94B6
:1013A000B9080D2C000CEE08FF084AE0C701B60191
:1013B000F7FE0DC06DE286E495E00E94E904662721
:1013C0007727CB016C197D098E099F094AE00E949D
:1013D000C30868E472E086E495E0FF90EF90DF9048
:1013E000CF900C94B908CF93DF93EC0162E372E0E5
:1013F00086E495E00E94B908BE0186E495E00E946B
:10140000B90868E472E086E495E0DF91CF910C942E
:10141000B9088BE492E00E94F30988E496E00E9408
:10142000E00185E496E00E94E00182E496E00E94FB
:10143000E0018FE396E00C94E0018EE492E00E94DC
:10144000F30987E30E948702892B91F461E08BE026
:101450000E94DE0260E08BE00E94B00261E08CE05E
:101460000E94DE0264E670E08CE00E940F03E9CF88
:101470000C94A90886E592E00E94F30986E30E9495
:101480008702019791F461E08BE00E94DE0264E63E
:1014900070E08BE00E940F0361E08CE00E94DE02AE
:1014A00060E08CE00E94B002E9CF0C94A908FC0136
:1014B00080819181009711F00C94C81660E070E073
:1014C000CB010895FC0180819181009711F00C946B
:1014D000521A0895EF92FF920F931F93CF93DF93C9
:1014E000EC017B01198218821B821A821D821C82E8
:1014F000FB0101900020E9F731978F01061B170BC4
:10150000B8016F5F7F4F90E080E00E94DB1A009788
:10151000B9F0998388831B830A832C813D81232B17
:1015200011F4FC0110821D830C83B701888199811D
:10153000DF91CF911F910F91FF90EF900C94C51BFD
:1015400088819981009711F00E94521A198218829D
:101550001D821C821B821A82DF91CF911F910F91F5
:10156000FF90EF90089585ED8093BC008091540327
:1015700090915503A0915603B09157030796A11D72
:10158000B11D23E0B695A795979587952A95D1F734
:101590002091BC0024FD03C0109252030895409195
:1015A0005403509155036091560370915703452B96
:1015B000462B472B69F30097A105B10541F025E3C0
:1015C0002A95F1F700000197A109B109E1CF8091B7
:1015D00053030C94C4051F920F920FB60F9211245F
:1015E0002F933F938F939F93AF93BF938091EF057A
:1015F0009091F005A091F105B091F205309125038D
:1016000023E0230F2D3758F50196A11DB11D20931E
:1016100025038093EF059093F005A093F105B09317
:10162000F2058091260390912703A0912803B091A1
:1016300029030196A11DB11D8093260390932703D2
:10164000A0932803B0932903BF91AF919F918F91ED
:101650003F912F910F900FBE0F901F90189526E885
:10166000230F0296A11DB11DD2CF1F920F920FB66C
:101670000F9211240BB60F922F933F934F935F93CA
:101680006F937F938F939F93AF93BF93EF93FF934A
:101690008CE094E00E94C704FF91EF91BF91AF915D
:1016A0009F918F917F916F915F914F913F912F917A
:1016B0000F900BBE0F900FBE0F901F9018951F92AA
:1016C0000F920FB60F9211240BB60F922F933F93E8
:1016D0004F935F936F937F938F939F93AF93BF933A
:1016E000EF93FF938CE094E00E945304FF91EF91FD
:1016F000BF91AF919F918F917F916F915F914F912A
:101700003F912F910F900BBE0F900FBE0F901F9027
:1017100018951F920F920FB60F9211240BB60F92CD
:101720002F933F934F935F936F937F938F939F93E9
:10173000AF93BF93EF93FF9389EA94E00E94C704AD
:10174000FF91EF91BF91AF919F918F917F916F9199
:101750005F914F913F912F910F900BBE0F900FBE55
:101760000F901F9018951F920F920FB60F92112491
:101770000BB60F922F933F934F935F936F937F938B
:101780008F939F93AF93BF93EF93FF9389EA94E076
:101790000E945304FF91EF91BF91AF919F918F9160
:1017A0007F916F915F914F913F912F910F900BBE61
:1017B0000F900FBE0F901F9018951F920F920FB6AB
:1017C0000F9211240BB60F922F933F934F935F9379
:1017D0006F937F938F939F93AF93BF93EF93FF93F9
:1017E00086E495E00E94C704FF91EF91BF91AF910D
:1017F0009F918F917F916F915F914F913F912F9129
:101800000F900BBE0F900FBE0F901F9018951F9258
:101810000F920FB60F9211240BB60F922F933F9396
:101820004F935F936F937F938F939F93AF93BF93E8
:10183000EF93FF9386E495E00E945304FF91EF91AC
:10184000BF91AF919F918F917F916F915F914F91D8
:101850003F912F910F900BBE0F900FBE0F901F90D6
:1018600018951F920F920FB60F9211240BB60F927C
:101870002F933F934F935F936F937F938F939F9398
:10188000AF93BF93EF93FF938091B900887F803629
:1018900009F44DC008F040C0883209F4A9C028F509
:1018A000803109F49DC0C8F4882309F4FBC0883056
:1018B00009F496C0FF91EF91BF91AF919F918F91E5
:1018C0007F916F915F914F913F912F910F900BBE40
:1018D0000F900FBE0F901F901895883109F488C0A3
:1018E000803241F78093500314C0803409F49DC0C6
:1018F00040F48033B9F38833E9F68093500385ECE4
:10190000B0C0803509F485C0883509F496C08834A4
:1019100089F60E94B30ACECF883909F48CC038F515
:10192000883729F050F4883611F0803719F683E0B3
:10193000809352031092F00257C0883809F47BC09C
:10194000803919F0803809F0B5CF8091F0028032EB
:1019500008F071C0E091F00281E08E0F8093F002F8
:101960008091BB00F0E0E053FD4F80833DC0803BA1
:1019700039F0E0F4803A09F479C0883A09F09ACF56
:1019800084E0809352031092CF021092CE02E09135
:10199000F302F091F40219958091CE0281110FC0EB
:1019A00081E08093CE021092AE0209C0803C09F41F
:1019B000A6CF883C09F4A3CF883B09F07BCFE09108
:1019C000CF0281E08E0F8093CF02F0E0E255FD4F11
:1019D00080818093BB009091CF028091CE0229C07C
:1019E00080912D038093BB0085EC8093BC0062CF77
:1019F00090914F0380914E03981758F5E0914F0353
:101A000081E08E0F80934F03F0E0E25DFC4F808118
:101A1000E9CFE0914F0381E08E0F80934F038091D7
:101A2000BB00F0E0E25DFC4F808390914F0380911A
:101A30004E039817C8F285E8D8CFE0914F0381E0B4
:101A40008E0F80934F038091BB00F0E0E25DFC4F6E
:101A500080838091510381115CCF81E080932C03BE
:101A600084EA8093BC001092520324CF85EC8093CB
:101A7000BC00109252038091F002803230F4E09169
:101A8000F002F0E0E053FD4F10826091F00270E050
:101A9000E091F102F091F20280ED92E0199510923E
:101AA000F00208CF1092500334CF1F920F920FB65E
:101AB0000F9211240BB60F922F933F934F935F9386
:101AC0006F937F938F939F93AF93BF93EF93FF9306
:101AD00048E251E064E271E090E080E00E94E607B5
:101AE000FF91EF91BF91AF919F918F917F916F91F6
:101AF0005F914F913F912F910F900BBE0F900FBEB2
:101B00000F901F9018951F920F920FB60F921124ED
:101B10000BB60F922F933F934F935F936F937F93E7
:101B20008F939F93AF93BF93EF93FF9348EA50E057
:101B300064EA70E083E090E00E94E607FF91EF9195
:101B4000BF91AF919F918F917F916F915F914F91D5
:101B50003F912F910F900BBE0F900FBE0F901F90D3
:101B600018951F920F920FB60F9211240BB60F9279
:101B70002F933F934F935F936F937F938F939F9395
:101B8000AF93BF93EF93FF9348E950E064E970E0AF
:101B900082E090E00E94E607FF91EF91BF91AF9144
:101BA0009F918F917F916F915F914F913F912F9175
:101BB0000F900BBE0F900FBE0F901F9018951F92A5
:101BC0000F920FB60F9211240BB60F922F933F93E3
:101BD0004F935F936F937F938F939F93AF93BF9335
:101BE000EF93FF9348E850E064E870E081E090E014
:101BF0000E94E607FF91EF91BF91AF919F918F9166
:101C00007F916F915F914F913F912F910F900BBEFC
:101C10000F900FBE0F901F901895FC019091AC0291
:101C2000903398F481E0890F8093AC029083892FE0
:101C300090E0FC01EE0FFF1FE80FF91FE458FC4F86
:101C400088EB9BE09283818308958FEF80830895D2
:101C50004F925F926F927F928F929F92AF92BF92BC
:101C6000CF92DF92EF92FF92CF93DF9310920F0407
:101C700010920E0488EE93E0A0E0B0E08093100490
:101C800090931104A0931204B093130422E132E064
:101C900030930D0420930C0445ED50E0509319044B
:101CA0004093180444ED50E050931B0440931A04F1
:101CB00040ED50E050931D0440931C0441ED50E072
:101CC00050931F0440931E0442ED50E050932104B2
:101CD0004093200446ED50E05093230440932204A7
:101CE00010922504109226041092270410922804C2
:101CF0001092AC041092AB048093AD049093AE04A8
:101D0000A093AF04B093B0043093AA042093A90425
:101D10004DEC50E05093B6044093B5044CEC50E0C9
:101D20005093B8044093B70448EC50E05093BA0481
:101D30004093B90449EC50E05093BC044093BB0479
:101D40004AEC50E05093BE044093BD044EEC50E08A
:101D50005093C0044093BF041092C2041092C30475
:101D60001092C4041092C5041092490510924805BF
:101D700080934A0590934B05A0934C05B0934D0575
:101D8000309347052093460525EC30E0309353050A
:101D90002093520524EC30E03093550520935405F0
:101DA00020EC30E0309357052093560521EC30E0CD
:101DB000309359052093580522EC30E030935B05B1
:101DC00020935A0526EC30E030935D0520935C05A6
:101DD00010925F05109260051092610510926205E5
:101DE0001092E6051092E5058093E7059093E805CB
:101DF000A093E905B093EA0584E292E09093E405AC
:101E00008093E30580E090EAA0E8B4E480936F0655
:101E100090937006A0937106B09372068BE496E0DF
:101E20000E940D0E88E496E00E940D0E85E496E077
:101E30000E940D0E82E496E00E940D0E8FE396E064
:101E40000E940D0EC0900402D0900502E0900602A0
:101E5000F090070280903B0690903C06A0903D06D3
:101E6000B0903E0640900002509001026090020245
:101E70007090030287EF95E090931E0680931D06F5
:101E80008BEF95E090931C0680931B0683EF95E003
:101E90009093200680931F06109239061092310607
:101EA00010923206109233061092340680E090E0D1
:101EB000AFE7B3E48093350690933606A0933706D8
:101EC000B093380684E690E0A0E0B0E080932D0661
:101ED00090932E06A0932F06B0933006C1E0D0E079
:101EE000D0931806C093170620E030E0A901C30183
:101EF000B2010E94041787FD6EC020E030E0A90106
:101F0000C501B4010E94041787FD65C020E030E0E0
:101F1000A901C701B6010E94041787FD5CC0D093D8
:101F20001A06C093190681E080933A064092FF0595
:101F3000509200066092010670920206809203069B
:101F400090920406A0920506B0920606C09207067B
:101F5000D0920806E0920906F0920A06A3019201C7
:101F600060E070E0CB010E949E1860930B067093B6
:101F70000C0680930D0690930E062DEC3CEC4CEC79
:101F80005DE3C501B4010E946A179B01AC0160E0EA
:101F900070E0CB010E949E1860930F0670931006AC
:101FA00080931106909312062DEC3CEC4CEC5DE313
:101FB000C701B6010E940B199B01AC0160E070E003
:101FC000CB010E949E1860931306709314068093B1
:101FD0001506909316062FB7F8948091EF0590910F
:101FE000F005A091F105B091F2052FBF40912D06AB
:101FF00050912E0660912F0670913006841B950B30
:10200000A60BB70B8093210690932206A09323067C
:10201000B0932406DF91CF91FF90EF90DF90CF90A7
:10202000BF90AF909F908F907F906F905F904F90F8
:102030000895CF93DF93CDB7DEB7A3970FB6F8948B
:10204000DEBF0FBECDBF789484B5826084BD84B5F9
:10205000816084BD85B5826085BD85B5816085BDA3
:1020600080916E00816080936E001092810080915B
:1020700081008260809381008091810081608093E3
:102080008100809180008160809380008091B10008
:1020900084608093B1008091B00081608093B00033
:1020A0008091910082608093910080919100816085
:1020B0008093910080919000816080939000809146
:1020C000A10082608093A1008091A1008160809333
:1020D000A1008091A00081608093A00080912101E7
:1020E0008260809321018091210181608093210190
:1020F0008091200181608093200180917A0084602A
:1021000080937A0080917A00826080937A00809137
:102110007A00816080937A0080917A008068809351
:102120007A001092C10061E08DE00E94DE0261E061
:102130008DE00E94B00262E086E30E94DE0262E06F
:1021400087E30E94DE0261E08AE00E94DE0261E035
:1021500084E00E94DE0261E08BE00E94DE0261E02A
:102160008CE00E94DE0240E052EC61E070E086E428
:1021700095E00E949C0140E855E260E070E089EA49
:1021800094E00E949C0140E052EC61E070E08CE041
:1021900094E00E949C011092F6021092F5021092B7
:1021A000590310927B030E94A60584E294E0909369
:1021B000F4028093F30285E294E09093F20280931C
:1021C000F10281E08093580386E780937A036EE101
:1021D00083EE95E00E942C0781E00E94E5056AE00D
:1021E00070E080E090E00E94F203FEE4CF2EF6E083
:1021F000DF2E00EA11E0A6E72A2E33243A94B5EE4A
:102200008B2E85EC982E1093580320927A0310920F
:10221000590310927B03602F83EE95E00E942C07F8
:1022200081E00E94E5050E94CD032B013C018091D5
:102230005203811161C010935203109351033092E5
:10224000500310924F0310934E0310932D0380916F
:102250002D038C6E80932D0380912C03813009F027
:1022600048C110922C030E94CD032B013C018091A8
:102270002D038093BB008091540390915503A0914E
:102280005603B0915703892B8A2B8B2BA1F00E9408
:10229000CD03209154033091550340915603509142
:1022A00057036419750986099709261737074807E0
:1022B000590708F442C08091BC0083FDD8CF9092AA
:1022C000BC000E94CD032B013C0180915203813060
:1022D00009F412C180914F03823008F02FC1809120
:1022E0004F03EEE2F3E0A7EFB2E090E0981751F170
:1022F00021912D939F5FFACF8091540390915503C4
:10230000A0915603B0915703892B8A2B8B2B09F48C
:102310008ECF0E94CD0320915403309155034091FC
:1023200056035091570364197509860997092617B2
:1023300037074807590708F07ACF809153030E9466
:10234000C40580E01092F6028093F50283EE95E0DA
:102350000E94E506782E83EE95E00E94E506A12C0A
:102360008A299729D6018D939D936D010E5F0E3AB0
:1023700009F049CF80914E0690914F06592F529502
:102380005F709F7090934F0680934E0610925D068B
:1023900010925C0630E020E090E080E0F901EE7FF2
:1023A000E25BF94F6081418120FFCAC0862748E087
:1023B000BC01880F991F77FF02C0B0E39B274150F3
:1023C000B9F72F5F3F4F2031310541F7892F8295B3
:1023D0008F705813B9C08DE592E00E94F30964E64E
:1023E00070E080E090E00E94F20310926E0680E0C0
:1023F00090E4A9E7B4E480936F0690937006A093ED
:102400007106B093720661E084E00E94B0020E94FF
:102410003A0A0E941D0A0E943A0A8EE792E00E9440
:10242000F30967E070E088E496E00E945E0768E0E8
:1024300070E085E496E00E945E0766E070E082E46A
:1024400096E00E945E0769E070E08FE396E00E94EC
:102450005E0764EF71E080E090E00E94F2030E946A
:10246000090A64EF71E080E090E00E94F2038BE8DB
:1024700092E00E94F3098091390600911D061091A7
:102480001E06811176C0F801C080D180E280F38001
:10249000C0922506D0922606E0922706F0922806E2
:1024A000E0911B06F0911C0680819181A281B3818D
:1024B0008093290690932A06A0932B06B0932C06AE
:1024C0008090350690903606A0903706B09038067A
:1024D000A5019401C701B6010E94AC191816CCF5EC
:1024E0008092250690922606A0922706B092280692
:1024F00040C08092BC00E5CE80915403909155037A
:10250000A0915603B0915703892B8A2B8B2B09F48A
:10251000DCCE0E94CD0320915403309155034091AD
:1025200056035091570364197509860997092617B0
:1025300037074807590708F0C8CEFFCE82E0D1CE52
:10254000F12C84279F2533CF8AE692E00E94F3097D
:102550005ACF8090310690903206A0903306B0900A
:102560003406A5019401C701B6010E94041787FD36
:10257000B7CF81E080933906C12CD12C9AEFE92E98
:1025800093ECF92EC0923106D0923206E0923306D7
:10259000F0923406412C512C2AEF622E23E4722E45
:1025A0004092350650923606609237067092380691
:1025B000D8018D909D90AD90BC90A3019201C50172
:1025C000B4010E94AC19181634F5F801408251820A
:1025D000628273828090250690902606A09027063E
:1025E000B0902806C0903506D0903606E0903706A9
:1025F000F0903806A7019601C501B4010E94AC19FC
:102600001816D4F4C0922506D0922606E09227062A
:10261000F092280621C020E030E04AEF53ECC501DB
:10262000B4010E94041787FFD5CFD801CD92DD9267
:10263000ED92FC921397CECFC0903106D090320627
:10264000E0903306F0903406A7019601C501B4016D
:102650000E94041787FDD6CF83E992E00E94F30918
:1026600060E08DE00E94B00285E0282E8E01055EBC
:102670001F4F3324339486E495E00E947B04BE010F
:102680006F5F7F4F0E94F401181619060CF06BC1A2
:10269000CE0101960E94F3098981803709F091C12A
:1026A000F801222D11922A95E9F7DE0112966801B0
:1026B000F8017F01E01AF10A8D91893611F08193BA
:1026C000F8CFB801CE0145960E946A0ACE01459620
:1026D0000E94570A0E940B1720E030E048EC52E4B9
:1026E0000E940B1960930002709301028093020212
:1026F000909303020E940909CE0145960E94620A46
:1027000065E070E0C8010E94A008F701329681E000
:1027100090E08C0F9D1FE80FF91FD801C701801BA7
:10272000910B7C01EA0EFB1E2191243611F02D93B2
:10273000F8CFB801CE0145960E946A0ACE014596AF
:102740000E94570A0E940B1720E030E048EC52E448
:102750000E940B1960933B0670933C0680933D06E4
:1027600090933E060E940909CE0145960E94620A96
:1027700065E070E0C8010E94A00893E0E90EF11C3A
:10278000E1E0F0E0EC0FFD1FEE0DFF1D81918536BD
:1027900021F0D6018D936D01F9CFB801CE01459698
:1027A0000E946A0ACE0145960E94570A0E940B17A2
:1027B00020E030E048EC52E40E940B1960930402E0
:1027C0007093050280930602909307020E94090904
:1027D000CE0145960E94620A40900002509001028C
:1027E000609002027090030220E030E0A901C30172
:1027F000B2010E94041787FDB6C080903B069090FE
:102800003C06A0903D06B0903E0620E030E0A901D5
:10281000C501B4010E94041787FDA5C0C090040241
:10282000D0900502E0900602F090070220E030E030
:10283000A901C701B6010E94041787FD94C081E079
:102840002091190630911A062130310509F080E0F7
:1028500080933A064092FF0550920006609201066E
:10286000709202068092030690920406A0920506DA
:10287000B0920606C0920706D0920806E0920906BA
:10288000F0920A0660912D0670912E0680912F0617
:10289000909130060E94091720E030E04AE754E4A6
:1028A0000E940B1968A379A38AA39BA340920B06ED
:1028B00050920C0660920D0670920E069B01AC01C0
:1028C000C501B4010E946A174B015C0180920F069A
:1028D00090921006A0921106B092120628A139A17A
:1028E0004AA15BA1C701B6010E940B196B017C01D3
:1028F000C0921306D0921406E0921506F0921606C6
:102900008091170690911806019769F5A30192012D
:1029100060E070E0CB010E949E1860930B067093FC
:102920000C0680930D0690930E06A501940160E0BD
:1029300070E0CB010E949E1860930F067093100602
:102940008093110690931206A701960160E070E053
:10295000CB010E949E186093130670931406809317
:1029600015069093160689EA94E00E947B04BE0146
:102970006F5F7F4F0E94F401181619060CF0DCC03F
:10298000CE0101960E94F3098981833709F0D4C0F2
:102990008A81843709F043C11B8E1C8E1D8E1E8ECA
:1029A000DE0113967E01EBE1EE0EF11CF7017E2CA9
:1029B0006F2C6F01CE18DF088D91893659F1819304
:1029C000F8CF833781F61B8E1C8E1D8E1E8EDE0186
:1029D0001296FE017B96BF018D91853611F0819391
:1029E000FBCFCE0145960E946A0ACE0145960E9411
:1029F000570A0E940B176093F3057093F4058093B8
:102A0000F5059093F6050E940909CE0145960E94AE
:102A1000620AA9CFB701CE0145960E946A0ACE018B
:102A200045960E94570A9B01AC01A8EEB3E00E94B4
:102A300047184B015C0180921E0390921F03A092E5
:102A40002003B092210362E372E086E495E00E94E5
:102A5000B9084AE0C501B4010E94C30868E472E005
:102A600086E495E00E94B908CE0145960E94620A6C
:102A700064E070E0C7010E94A008F601339621E0EF
:102A800030E02C0F3D1FE20FF31FD701CE18DF08F7
:102A90005601AA0EBB1E8191843611F08D93F8CF9A
:102AA000B701CE0145960E946A0ACE0145960E9462
:102AB000570A7093180360931703CB010E94C6094D
:102AC000CE0145960E94620A64E070E0C7010E9450
:102AD000A00834E0A30EB11CE1E0F0E0EC0FFD1F14
:102AE000EA0DFB1D8191853621F0D7018D937D0183
:102AF000F9CF672D762DCE0145960E946A0ACE0148
:102B000045960E94570A0E940B1720E030E0A90169
:102B10000E949F186093F3057093F4058093F50568
:102B20009093F6050E940909CE0145960E94620A1B
:102B3000309224033092220380912403882309F4E5
:102B400017C180912303882309F412C180912203C5
:102B5000882309F18FB7F8944091EF055091F00563
:102B60006091F1057091F2058FBF80911E039091E5
:102B70001F03A0912003B0912103840F951FA61F6E
:102B8000B71F80931A0390931B03A0931C03B09369
:102B90001D03109222038FB7F8944091EF055091D6
:102BA000F0056091F1057091F2058FBFC0901A0396
:102BB000D0901B03E0901C03F0901D03809119033B
:102BC0004C155D056E057F0508F4CEC08111D6C099
:102BD00080911703909118031816190694F010921B
:102BE00023031092240365EA72E089EA94E00E94CC
:102BF000B90868E472E089EA94E00E94B9080E948A
:102C00003A0A309222038091190383258093190395
:102C100080911703909118030E94C609A9C08037BC
:102C200009F097C01B8E1C8E1D8E1E8EDE01139622
:102C3000F8017F01E01AF10A8D91843711F0819338
:102C4000F8CFB801CE0145960E946A0ACE0145969A
:102C50000E94570ADB0124EF31E00E94971824E616
:102C600030E040E050E00E942818C901253F314083
:102C700014F084EF91E097FF02C090E080E00E94A2
:102C8000C609CE0145960E94620A64E070E0C80160
:102C90000E94A008F701339621E030E02C0F3D1F81
:102CA000E20FF31FD801E01AF10A6701CA0EDB1E1A
:102CB0008191853611F08D93F8CFB801CE014596FC
:102CC0000E946A0ACE0145960E94570A6B30710530
:102CD00014F06AE070E077FF02C070E060E0A8EEF8
:102CE000B3E06A9FC0016B9F900D7A9F900D1124F5
:102CF0000E94C609CE0145960E94620AE5E0F0E016
:102D0000EC0FFD1FEC0DFD1D80818536F9F03CF4C4
:102D10008136B1F08436B9F00E94090A0DCF8337AD
:102D200061F0873729F08137B9F78FE992E002C067
:102D30008BE992E00E94F309FFCE8DE992E0FACF91
:102D400080EA92E0F7CF83EA92E0F4CF82EA92E061
:102D5000F1CF833709F0F0CE80912403882309F462
:102D6000EBCE30922303E8CE882329F00E943A0A62
:102D70000E94560580CC0E941D0AFACF809117034D
:102D8000909118030197909318038093170320CF15
:102D90001F93FC0199278827BC01E89411911032F8
:102DA000E9F3193010F01E30C8F31B3251F01D3218
:102DB00049F4689406C00E94EF16610F711D811DD1
:102DC000911D119110531A30B0F33EF490958095F7
:102DD000709561957F4F8F4F9F4F1F910895592F89
:102DE000482F372F262F660F771F881F991F660FD2
:102DF000771F881F991F620F731F841F951F660F0F
:102E0000771F881F991F08950E94461708F481E0D4
:102E10000895E89409C097FB3EF4909580957095CD
:102E200061957F4F8F4F9F4F9923A9F0F92F96E916
:102E3000BB279395F695879577956795B795F1118B
:102E4000F8CFFAF4BB0F11F460FF1BC06F5F7F4F28
:102E50008F4F9F4F16C0882311F096E911C077233A
:102E600021F09EE8872F762F05C0662371F096E843
:102E7000862F70E060E02AF09A95660F771F881F12
:102E8000DAF7880F9695879597F90895990F0008B6
:102E9000550FAA0BE0E8FEEF16161706E807F9072C
:102EA000C0F012161306E407F50798F0621B730BC7
:102EB000840B950B39F40A2661F0232B242B252B48
:102EC00021F408950A2609F4A140A6958FEF811DEB
:102ED000811D08950E947D170C94EE170E94E01743
:102EE00038F00E94E71720F0952311F00C94D717C3
:102EF0000C94DD1711240C9422180E94FF1770F314
:102F0000959FC1F3950F50E0551F629FF001729F8E
:102F1000BB27F00DB11D639FAA27F00DB11DAA1F9D
:102F2000649F6627B00DA11D661F829F2227B00DEA
:102F3000A11D621F739FB00DA11D621F839FA00D75
:102F4000611D221F749F3327A00D611D231F849FC5
:102F5000600D211D822F762F6A2F11249F5750401C
:102F60009AF0F1F088234AF0EE0FFF1FBB1F661F97
:102F7000771F881F91505040A9F79E3F510580F060
:102F80000C94D7170C9422185F3FE4F3983ED4F3C7
:102F9000869577956795B795F795E7959F5FC1F704
:102FA000FE2B880F911D9695879597F9089597F9AF
:102FB0009F6780E870E060E008959FEF80EC0895DF
:102FC00000240A9416161706180609060895002408
:102FD0000A9412161306140605060895092E039482
:102FE000000C11F4882352F0BB0F40F4BF2B11F4F6
:102FF00060FF04C06F5F7F4F8F4F9F4F089557FD55
:103000009058440F551F59F05F3F71F04795880F56
:1030100097FB991F61F09F3F79F0879508951216ED
:1030200013061406551FF2CF4695F1DF08C0161699
:1030300017061806991FF1CF86957105610508944A
:103040000895E894BB2766277727CB0197F9089561
:10305000052E97FB1EF400940E943F1857FD07D0E1
:103060000E94521807FC03D04EF40C943F18509560
:103070004095309521953F4F4F4F5F4F0895909564
:103080008095709561957F4F8F4F9F4F08950E9457
:103090007418A59F900DB49F900DA49F800D911D55
:1030A00011240895A1E21A2EAA1BBB1BFD010DC01D
:1030B000AA1FBB1FEE1FFF1FA217B307E407F507E8
:1030C00020F0A21BB30BE40BF50B661F771F881FC4
:1030D000991F1A9469F760957095809590959B015A
:1030E000AC01BD01CF010895A29FB001B39FC00103
:1030F000A39F700D811D1124911DB29F700D811D24
:103100001124911D0895991B79E004C0991F961709
:1031100008F0961B881F7A95C9F780950895EE0FE1
:10312000FF1F881F8BBF0790F691E02D19940E9416
:103130007418B7FF0895821B930B08955058BB274E
:10314000AA270E94B6180C94EE170E94E01738F0D8
:103150000E94E71720F039F49F3F19F426F40C94ED
:10316000DD170EF4E095E7FB0C94D717E92F0E94CA
:10317000FF1758F3BA17620773078407950720F003
:1031800079F4A6F50C9421180EF4E0950B2EBA2FC5
:10319000A02D0B01B90190010C01CA01A00111245D
:1031A000FF27591B99F0593F50F4503E68F11A1609
:1031B000F040A22F232F342F4427585FF3CF46959A
:1031C00037952795A795F0405395C9F77EF41F16BC
:1031D000BA0B620B730B840BBAF09150A1F0FF0F86
:1031E000BB1F661F771F881FC2F70EC0BA0F621F72
:1031F000731F841F48F4879577956795B795F79562
:103200009E3F08F0B0CF9395880F08F09927EE0FF6
:103210009795879508950E941F190C94EE170E94A8
:10322000E71758F00E94E01740F029F45F3F29F0BB
:103230000C94D71751110C9422180C94DD170E948E
:10324000FF1768F39923B1F3552391F3951B550BA1
:10325000BB27AA2762177307840738F09F5F5F4F69
:10326000220F331F441FAA1FA9F335D00E2E3AF0A8
:10327000E0E832D091505040E695001CCAF72BD0C0
:10328000FE2F29D0660F771F881FBB1F2617370711
:103290004807AB07B0E809F0BB0B802DBF01FF2743
:1032A00093585F4F3AF09E3F510578F00C94D71732
:1032B0000C9422185F3FE4F3983ED4F386957795FB
:1032C0006795B795F7959F5FC9F7880F911D9695FC
:1032D000879597F90895E1E0660F771F881FBB1F58
:1032E000621773078407BA0720F0621B730B840B05
:1032F000BA0BEE1F88F7E09508950E94071888F032
:103300009F5798F0B92F9927B751B0F0E1F0660FA9
:10331000771F881F991F1AF0BA95C9F714C0B130EA
:1033200091F00E942118B1E008950C942118672FA4
:10333000782F8827B85F39F0B93FCCF38695779519
:103340006795B395D9F73EF4909580957095619502
:103350007F4F8F4F9F4F08950E94461708F48FEFBD
:1033600008950E944617880B990B08950F931F9399
:10337000CF93DF938230910510F482E090E0E091EA
:103380007506F091760630E020E0B0E0A0E03097DE
:1033900099F42115310509F44AC0281B390B243052
:1033A0003105D8F58A819B816115710589F1FB0191
:1033B00093838283FE0111C0408151810281138178
:1033C00048175907E0F04817590799F4109761F02A
:1033D00012960C93129713961C933296CF01DF919D
:1033E000CF911F910F910895009375061093760663
:1033F000F4CF2115310551F04217530738F0A901D8
:10340000DB019A01BD01DF01F801C1CFEF01F9CF66
:103410009093760680937506CDCFFE01E20FF31FE1
:10342000819391932250310939832883D7CF2091FA
:10343000730630917406232B41F420910A023091D7
:103440000B0230937406209373062091080230918A
:1034500009022115310541F42DB73EB740910C0208
:1034600050910D02241B350BE0917306F091740608
:10347000E217F307A0F42E1B3F0B2817390778F04B
:10348000AC014E5F5F4F2417350748F04E0F5F1FAA
:103490005093740640937306819391939FCFF0E00D
:1034A000E0E09CCFCF93DF930097E9F0FC013297E7
:1034B00013821282A0917506B0917606ED0130E07C
:1034C00020E01097A1F420813181820F931F209179
:1034D0007306309174062817390709F061C0F0931C
:1034E0007406E0937306DF91CF910895EA01CE1739
:1034F000DF07E8F54A815B819E0141155105B1F76F
:10350000E901FB83EA8349915991C40FD51FEC1758
:10351000FD0761F4808191810296840F951FE90176
:1035200099838883828193819B838A83F0E0E0E0A2
:1035300012968D919C9113970097B9F52D913C911E
:103540001197CD010296820F931F2091730630913F
:1035500074062817390739F6309751F51092760618
:1035600010927506B0937406A0937306BCCFD383F4
:10357000C28340815181840F951FC817D90761F418
:103580004E5F5F4F88819981480F591F5183408357
:103590008A819B81938382832115310509F0B0CF05
:1035A000F0937606E09375069ECFFD01DC01C0CF57
:1035B00013821282D7CF4F925F926F927F928F9237
:1035C0009F92AF92BF92CF92DF92EF92FF920F93B2
:1035D0001F93CF93DF938C01009799F4CB01DF9178
:1035E000CF911F910F91FF90EF90DF90CF90BF9000
:1035F000AF909F908F907F906F905F904F900C94C2
:10360000B619FC01E60FF71F9C0122503109E217A1
:10361000F30708F4AEC0D901CD91DC911197C6171C
:10362000D70720F1C530D10578F0CE010497861771
:10363000970750F0C61BD70B2297C193D1936D9378
:103640007C93CF010E94521AC801DF91CF911F9144
:103650000F91FF90EF90DF90CF90BF90AF909F9031
:103660008F907F906F905F904F9008955B01AC1AA0
:10367000BD0A4C018C0E9D1EA0917506B091760678
:10368000512C412CF12CE12C109731F580917306CF
:10369000909174068815990509F05CC04616570686
:1036A00008F058C08091080290910902009741F4F7
:1036B0008DB79EB740910C0250910D02841B950B63
:1036C000E817F90708F055C0F0937406E093730605
:1036D000F90171836083B8CF8D919C9111971296F7
:1036E0006C90129713967C901397A815B90559F50D
:1036F0006C0142E0C40ED11CCA14DB0420F1AC0101
:103700004A195B09DA011296159780F0628273827A
:1037100051834083D9016D937C93E114F10471F0DE
:10372000D7011396FC93EE9312978ECF22968C0FAF
:103730009D1FF90191838083F301EFCFF09376060B
:10374000E093750681CF4816590608F42C017D01D7
:10375000D3019ACFCB010E94B6197C01009749F0A2
:10376000AE01B8010E94BC1BC8010E94521A870119
:103770006BCF10E000E068CFFB01DC0102C00190DC
:103780000D9241505040D8F70895FB01DC010190A3
:0C3790000D920020E1F70895F894FFCF9F
:10379C00000020400000104100007706800000006F
:1037AC000000E90426046C0436059D047B048F0498
:1037BC00000000002C07FF065B07D506F806E5069F
:1037CC00D6065B44454255475D3A20006E616E005B
:1037DC00696E66006F7666000D0A005354005265E0
:1037EC00747261637400457874656E640050205384
:1037FC00656E736F72204F4B2E00502053656E73A5
:10380C006F7220496E6974204661696C2E004163A9
:10381C00747561746F72204F4B2E00455343204FCB
:10382C004B2E00496E6974204F4B004600420052EB
:08383C004C00525200646500CB
:00000001FF
