:100000000C948D010C94BE010C94BE010C94BE01A5
:100010000C94BE010C94BE010C94BE010C94BE0164
:100020000C94BE010C94BE010C94BE010C94BE0154
:100030000C94BE010C94BE010C94BE010C94BE0144
:100040000C94BE010C94290D0C94BE010C94BE01BD
:100050000C94BE010C94BE010C94BE010C94550E80
:100060000C94BE010C94BB0A0C94910A0C94BE0132
:100070000C94BE010C94BE010C94BE010C94BE0104
:100080000C94FB0C0C94BE010C94BE010C94BE01AC
:100090000C94670A0C943D0A0C94BE010C94E50A7A
:1000A0000C94BE010C94BE010C94CD0C0C94BE01BA
:1000B0000C94BE010C94BE010C94BE010C949F0CD8
:1000C0000C94BE010C94BE010C94BE010C94130A56
:1000D0000C94E9090C94BE010C94BE010C94BE0171
:1000E0000C94BE01DB01DE01CD01D101D701150267
:1000F000E201E601EC01F001F401FA01FE01020265
:10010000150208020C021002F105F605FB050506B2
:100110000F06880619062106290633063D064706FE
:100120005606600688066A0674067E060C94DE0192
:100130000C94FE010C947E060C94F6050C94BF07FB
:100140000C9446080C9472080C94F0010C946A0606
:100150000C9444080C94CB060C9474060C9472070F
:100160000C94E2010C9433060C943D060C94CD01E2
:100170000C9445080C9402020C94E11B0C9421068B
:100180000C9456080C9456060C9410020C944706D6
:100190000C946A080C9404070C94F5060C94190648
:1001A0000C94EC010C9460060C9488060C94E60107
:1001B0000C94F1050C9429060C94FA010C94F401AA
:1001C0000C9405060C940F060C9415020C940C026A
:1001D0000C94D7010C9426070C9447080C94CF0874
:1001E0000C94FB050C949F080C94D1010C9408020C
:1001F0000C94DB010C941807000021002400270058
:100200002A002D0030003300010100000401070125
:100210000A0100002200250028002B002E003100DA
:10022000340002010000050108010B01000020005C
:100230002300260029002C002F00320000010000BE
:100240000301060109010505050507050808080859
:10025000020202020A0A080804040404010101015E
:100260000101010103030303030303030407070759
:100270000C0C0C0C0C0C0C0C0202020206060606FE
:10028000060606060B0B0B0B0B0B0B0B01021020CB
:1002900020080810204010204080020102010804BC
:1002A0000201010204081020408080402010080450
:1002B00002018004020180402010080402010804A9
:1002C00002010102040810204080010204081020ED
:1002D000408000000A0B02090C0D0E080703040100
:1002E000000000000000000000000000000000000E
:1002F00000000000000000000000000000001211DB
:1003000010000000000000000000000000000000DD
:100310000000000000000000E11B11241FBECFEF11
:10032000D1E2DEBFCDBF00E00CBF12E0A0E0B2E042
:10033000E8E0F8E400E00BBF02C007900D92A23C99
:10034000B107D9F726E0A2ECB2E001C01D92AB38AC
:10035000B207E1F711E0CDE8D1E000E006C0219757
:100360000109802FFE010E94C51FCC38D10780E013
:100370000807A9F70E949F0E0C9402240C94000019
:1003800090E0FC013197E231F10508F04EC088277A
:10039000EE58FF4F8F4F0C94C51F809180008F77D0
:1003A00003C0809180008F7D8093800008958091AC
:1003B0008000877FF9CF84B58F7702C084B58F7DA9
:1003C00084BD08958091B0008F7703C08091B00004
:1003D0008F7D8093B0000895809190008F7707C043
:1003E000809190008F7D03C080919000877F8093E3
:1003F000900008958091A0008F7707C08091A000A1
:100400008F7D03C08091A000877F8093A000089516
:10041000809120018F7707C0809120018F7D03C0DC
:1004200080912001877F809320010895CF92DF92F1
:10043000EF92FF92809130068130A9F460912C06F2
:1004400070912D0680912E0690912F060E94311EEC
:1004500020E030E048EC52E40E94901E20E030E0C2
:1004600048EC52E414C060912C0670912D068091E6
:100470002E0690912F060E94311E20E030E048ECBD
:1004800052E40E94901E20E030E040E251E40E94DD
:10049000352120E03AED45EC57E40E94C8206B017D
:1004A0007C012AE038EE4CE151E460913106709114
:1004B000320680913306909134060E94901E9B0173
:1004C000AC01C701B6010E943521FF90EF90DF908B
:1004D000CF900895CF92DF92EF92FF92CF93DF9368
:1004E000EC016A017B01E889F98982E0808341158A
:1004F000514E61057105B1F060E079E08DE390E067
:10050000A70196010E94781FDA01C9010197A1098C
:10051000B109B695A795979587959C01211580E11E
:100520003807A8F0E889F989108260E874E88EE15C
:1005300090E0A70196010E94781FDA01C901019796
:10054000A109B109B695A795979587959C01EC856A
:10055000FD853083EE85FF852083188EEC89FD892B
:1005600086E08083EA89FB89808180618083EA89D3
:10057000FB89808188608083EA89FB89808180682B
:100580008083EA89FB8980818F7D8083DF91CF9191
:10059000FF90EF90DF90CF9008956115710551F0B5
:1005A000FB0101900020E9F73197AF01461B570B83
:1005B0000C94CB0680E090E00895BC018BE095E0C0
:1005C0000C94CD028F929F92AF92BF920F931F9384
:1005D000CF93DF93CDB7DEB7A1970FB6F894DEBF08
:1005E0000FBECDBF19A2423008F44AE08E010F5D64
:1005F0001F4F842E912CA12CB12CA50194010E9497
:10060000781FE62FB901CA0101501109EA3014F42C
:10061000E05D01C0E95CD801EC93232B242B252B52
:1006200061F7B8018BE095E00E94CD02A1960FB66C
:10063000F894DEBF0FBECDBFDF91CF911F910F9118
:10064000BF90AF909F908F900895CF92DF92EF92DE
:10065000FF92CF93DF936B017C016DE28BE095E01D
:100660000E947207EC0166277727CB016C197D0980
:100670008E099F094AE00E94E2028C0F9D1FDF91C4
:10068000CF91FF90EF90DF90CF9008958F929F923F
:10069000AF92BF92CF92DF92EF92FF920F931F9390
:1006A000CF93DF936B017C01142F9B01AC010E945F
:1006B000E221882319F06CEA72E027C04601570155
:1006C000E894B7F82FEF3FEF4FE75FE7C501B401BC
:1006D0000E94E22181110DC02FEF3FEF4FE75FE74E
:1006E000C501B4010E942A1E18161CF460EB72E0CA
:1006F0000CC02FEF3FEF4FE75FE4C701B6010E9448
:10070000DD21181694F464EB72E08BE095E0DF9144
:10071000CF911F910F91FF90EF90DF90CF90BF90FE
:10072000AF909F908F900C94CD022FEF3FEF4FE74B
:100730005FECC701B6010E942A1E87FDE4CF20E0CE
:1007400030E0A901C701B6010E942A1E87FF0BC035
:100750006DE28BE095E00E947207EC01F7FAF094ED
:10076000F7F8F09402C0C0E0D0E000E060E070E094
:1007700080E09FE3101741F020E030E040E251E4D8
:100780000E9435210F5FF6CFA70196010E94C92074
:100790006B017C010E94AE214B015C014AE00E948A
:1007A000E202C80FD91F1123B9F1C501B4010E949B
:1007B0002F1E9B01AC01C701B6010E94C8206B012E
:1007C0007C016EE28BE095E00E947207C80FD91F92
:1007D00020E030E040E251E4C701B6010E94901EE3
:1007E0004B015C010E94AE216B01E12CF12C4AE02F
:1007F000C701B6010E94E202C80FD91FC701B601A6
:100800000E942F1E9B01AC01C501B4010E94C820AB
:100810006B017C011150E1F6CE01DF91CF911F9168
:100820000F91FF90EF90DF90CF90BF90AF909F908F
:100830008F900895FC018081803380F42FB7F89465
:1008400090E0FC01EE0FFF1F8E0F9F1FFC01EF5B7E
:10085000FC4F84EB9BE0928381832FBF089590919E
:1008600040039111FCCF91E09093400390933F039C
:100870002FEF20933E0310923D03260F20933C035D
:1008800090933B0390913B03880F892B80933B030C
:1008900080913A03813061F410923A0380913B03D6
:1008A0008093BB008091BC0083FDF8CF85EC01C034
:1008B00085EE8093BC00809140038130E1F380910C
:1008C0003D03861710F460913D03AAE1B3E0EAEF1F
:1008D000F2E080E0861721F09D9191938F5FFACF2F
:1008E0000895813208F080E2682F86E70E942F0485
:1008F0001092F9028093F80208953091F702313294
:1009000008F04BC0809140038111FCCF9091F6021A
:1009100022E02093400321E020933F032FEF209318
:100920003E0310923D0330933C03E6EDF2E0AAE172
:10093000B3E020E0321721F041914D932F5FFACFC1
:1009400010923B0320913B03990F922B90933B0312
:1009500090913A03913061F410923A0390913B03E5
:100960009093BB009091BC0093FDF8CF95EC01C033
:1009700095EE9093BC00909140039230E1F39091FA
:100980003E039F3F79F080913E03803241F0809199
:100990003E03803331F084E005C081E003C082E093
:1009A00001C083E01092D5021092F7021092D40297
:1009B0000895682F88EA95E00C949F08E82F181690
:1009C0003CF520913506309136068A3079F4C9011C
:1009D0000196DB01A20FB31FEC93FB01E80FF91F97
:1009E0001082109236061092350608952331310593
:1009F0007CF4A9014F5F5F4F509336064093350654
:100A0000DB01A20FB31F8C93FB01E40FF51F1082D3
:100A100080E090E00895FC01808191810C947F2218
:100A2000FC0180819181009711F00C94EE1D60E033
:100A300070E0CB010895FC01A089B1898C91A68951
:100A4000B78982FD0FC09C91818D8F5F8F73228D3E
:100A5000821749F0218DDF01A20FB11D5D969C9395
:100A6000818F08958C910895CF93DF93282F30E0E4
:100A7000F901EE52FD4F8491F901E457FD4FD491F5
:100A8000F901EA5BFD4FC491CC2391F081110E94E2
:100A9000C001EC2FF0E0EE0FFF1FE45DFD4FA591CC
:100AA000B491EC91ED2381E090E021F480E002C06C
:100AB00080E090E0DF91CF9108951F93CF93DF9373
:100AC000282F30E0F901EE52FD4F8491F901E457EF
:100AD000FD4FD491F901EA5BFD4FC491CC23C1F0E5
:100AE000162F81110E94C001EC2FF0E0EE0FFF1FC6
:100AF000EE5EFD4FA591B4919FB7F894111104C01B
:100B00008C91D095D82302C0EC91DE2BDC939FBF53
:100B1000DF91CF911F910895CF93DF9390E0FC0177
:100B2000E457FD4F2491FC01EA5BFD4F849188233B
:100B300061F190E0880F991FFC01E850FE4FC591CC
:100B4000D491FC01EE5EFD4FA591B491611109C0F5
:100B50009FB7F8948881209582238883EC912E2377
:100B60000BC0623061F49FB7F8948881322F3095C2
:100B700083238883EC912E2B2C939FBF06C08FB7C5
:100B8000F894E8812E2B28838FBFDF91CF910895B1
:100B90001F93CF93DF93182FEB0161E00E948C0528
:100BA000209711F460E004C0CF3FD10539F461E033
:100BB000812FDF91CF911F910C945D05E12FF0E023
:100BC000EE52FD4FE4918E2F90E0FC013197E2311F
:100BD000F10508F09DC08827EC57FF4F8F4F0C940C
:100BE000C51F84B5806884BDC7BD97C084B58062C9
:100BF00084BDC8BD92C080918000806880938000D1
:100C0000D0938900C093880088C080918000806262
:100C100080938000D0938B00C0938A007EC0809127
:100C20008000886080938000D0938D00C0938C00FA
:100C300074C08091B00080688093B000C093B3000E
:100C40006CC08091B00080628093B000C093B4000B
:100C500064C080919000806880939000D093990048
:100C6000C09398005AC08091900080628093900059
:100C7000D0939B00C0939A0050C0809190008860F0
:100C800080939000D0939D00C0939C0046C08091BB
:100C9000A00080688093A0008091A0008F7B80934B
:100CA000A000D093A900C093A80037C08091A000F5
:100CB00080628093A000D093AB00C093AA002DC0A7
:100CC0008091A00088608093A000D093AD00C09375
:100CD000AC0023C080912001806880932001D093D4
:100CE0002901C093280119C080912001806280935E
:100CF0002001D0932B01C0932A010FC080912001C5
:100D0000886080932001D0932D01C0932C0105C0F1
:100D1000C038D1050CF04BCF45CFDF91CF911F915B
:100D200008958F929F92AF92BF92CF92DF92EF92EF
:100D3000FF926B017C010E94300E4B015C01C114DB
:100D4000D104E104F104F1F00E94300EDC01CB018A
:100D500088199909AA09BB09883E9340A105B105E4
:100D600070F321E0C21AD108E108F10888EE880E7C
:100D700083E0981EA11CB11CC114D104E104F1044C
:100D800019F7DDCFFF90EF90DF90CF90BF90AF903D
:100D90009F908F900895CF92DF92EF92FF920F93E2
:100DA0001F93CF93DF936C017A018B01C0E0D0E0F9
:100DB000CE15DF0581F0D8016D918D01D601ED9141
:100DC000FC910190F081E02DC6011995892B11F05D
:100DD0002196EECF7E01C701DF91CF911F910F9138
:100DE000FF90EF90DF90CF900895FC01538D448DDC
:100DF000252F30E0842F90E0821B930B541710F0C6
:100E0000CF96089501970895FC01918D828D9817D2
:100E100061F0828DDF01A80FB11D5D968C91928DDE
:100E20009F5F9F73928F90E008958FEF9FEF0895DB
:100E3000FC01918D828D981731F0828DE80FF11DA4
:100E4000858D90E008958FEF9FEF0895FC01918DBF
:100E5000228D892F90E0805C9F4F821B91098F73B8
:100E60009927089581ED93E00E94260721E0892BC0
:100E700009F420E0822F08958EE694E00E94260770
:100E800021E0892B09F420E0822F08958BE095E082
:100E90000E94260721E0892B09F420E0822F089583
:100EA000FC01848DDF01A80FB11DA35ABF4F2C9107
:100EB000848D90E001968F739927848FA689B789D6
:100EC0002C93A089B1898C91837080648C93938DCD
:100ED000848D981306C00288F389E02D80818F7D70
:100EE00080830895EF92FF920F931F93CF93DF9328
:100EF000EC0181E0888F9B8D8C8D981305C0E8896B
:100F0000F989808185FD26C0F62E0B8D10E00F5FDC
:100F10001F4F0F731127E02E8C8DE8120CC00FB6F7
:100F200007FCFACFE889F989808185FFF5CFCE01EA
:100F30000E945007F1CF8B8DFE01E80FF11DE35A9F
:100F4000FF4FF0829FB7F8940B8FEA89FB8980816D
:100F500080620AC09FB7F894EE89FF896083E889B0
:100F6000F98980818370806480839FBF81E090E0F5
:100F7000DF91CF911F910F91FF90EF900895CF9344
:100F8000DF93EC01888D8823C9F0EA89FB89808191
:100F900085FD05C0A889B9898C9186FD0FC00FB663
:100FA00007FCF5CF808185FFF2CFA889B9898C91A4
:100FB00085FFEDCFCE010E945007E7CFDF91CF91A3
:100FC000089580E090E0892B21F00E94460781116E
:100FD0001DC080E090E0892B21F00E943C07811128
:100FE00018C080E090E0892B21F00E943207811127
:100FF00013C080E090E0892BA1F080E090E0892B85
:1010000081F00E94000081110AC008950E94000032
:10101000E0CF0E940000E5CF0E940000EACF0C94D0
:101020000000089585ED8093BC008091BC0084FD94
:10103000FCCF10924003089540915F06262F30E0C8
:10104000240F311D21323105DCF42091400324307E
:10105000C9F4FC0180E090E0861758F430915F06F7
:101060002191DC01A15CB94FA30FB11D2C93019616
:10107000F3CF80915F06680F60935F0680E008956C
:1010800081E0089582E00895089508950895E0911B
:10109000F9028091F802E81730F4F0E0E650FD4FD5
:1010A000808190E008958FEF9FEF08959091F9026D
:1010B0008091F802981750F4E92FF0E0E650FD4FC8
:1010C000208130E09F5F9093F90202C02FEF3FEF45
:1010D000C90108958091F80290E02091F902821BE5
:1010E00091090895CF92DF92EF92FF920F931F9391
:1010F000CF93DF937C01CB018A012091D40222237C
:1011000089F0EB016B01C40ED51ECC15DD0569F02D
:101110006991D701ED91FC910190F081E02DC7011B
:101120001995F3CF642F0E941C08C801DF91CF915D
:101130001F910F91FF90EF90DF90CF900895CF9384
:10114000DF931F92CDB7DEB769832091D4022223AB
:10115000D1F02091F702203240F021E030E0FC0194
:101160003383228380E090E015C08091D502E82F80
:10117000F0E0EA52FD4F998190838F5F8093D50212
:101180008093F70205C061E0CE0101960E941C0821
:1011900081E090E00F90DF91CF910895089580E075
:1011A00090E008950E94ED23CF92DF92EF92FF929C
:1011B0000F931F93CF93DF936C018B017A01EC01A6
:1011C000C65CD94F888187FF04C0FB011182108261
:1011D00024C02CE02C9DC0012D9D900D1124288150
:1011E000AC01420F511D27FD5A9520913E0630E07B
:1011F0004217530794F42881AC01420F511D27FD7B
:101200005A959A01FA01EE0FFF1F2E0F3F1FF901A9
:10121000EF5BFC4F208126FD19C088818F5F88839A
:101220002CE02C9DC0012D9D900D11242881AC0136
:10123000420F511D27FD5A9520913E0630E042177E
:101240005307BCF428812C3044F113C02881820F4D
:10125000911D27FD9A95FC01EE0FFF1F8E0F9F1F1A
:10126000FC01EF5BFC4F808160E08F730E945D05A5
:10127000D4CFF80180819181049680349C4918F480
:1012800080E49CE904C0F801808191810496F70113
:10129000918380838FEF888345C0F801408151811D
:1012A0002881BC01620F711D27FD7A959B01FB010E
:1012B000EE0FFF1F2E0F3F1FF901EF5BFC4F218147
:1012C0003281240F351FF701318320832881AC013F
:1012D000420F511D27FD5A959A01FA01EE0FFF1F8B
:1012E0002E0F3F1FF901EF5BFC4F208126FF1AC034
:1012F0002881820F911D27FD9A95FC01EE0FFF1F9B
:101300008E0F9F1FFC01EF5BFC4F808161E08F73AC
:10131000DF91CF911F910F91FF90EF90DF90CF90D1
:101320000C945D05DF91CF911F910F91FF90EF908D
:10133000DF90CF900895EF92FF920F931F93CF937A
:10134000DF93EC01198218821B821A821D821C8293
:1013500061157105B9F17B01FB0101900020E9F7EE
:1013600031978F01061B170BB8016F5F7F4F80E02D
:1013700090E00E940823009759F0998388831B838B
:101380000A832C813D81232B81F4FC0110820DC046
:1013900088819981009711F00E947F22198218821A
:1013A0001D821C821B821A820DC01D830C83B70113
:1013B00088819981DF91CF911F910F91FF90EF90DC
:1013C0000C94FB23DF91CF911F910F91FF90EF9031
:1013D00008951F920F920FB60F9211240BB60F9221
:1013E0002F933F934F935F936F937F938F939F932D
:1013F000AF93BF93EF93FF9381ED93E00E9450076B
:10140000FF91EF91BF91AF919F918F917F916F91DC
:101410005F914F913F912F910F900BBE0F900FBE98
:101420000F901F9018951F920F920FB60F921124D4
:101430000BB60F922F933F934F935F936F937F93CE
:101440008F939F93AF93BF93EF93FF9381ED93E0BF
:101450000E941B05FF91EF91BF91AF919F918F91DA
:101460007F916F915F914F913F912F910F900BBEA4
:101470000F900FBE0F901F9018951F920F920FB6EE
:101480000F9211240BB60F922F933F934F935F93BC
:101490006F937F938F939F93AF93BF93EF93FF933C
:1014A0008EE694E00E945007FF91EF91BF91AF91BB
:1014B0009F918F917F916F915F914F913F912F916C
:1014C0000F900BBE0F900FBE0F901F9018951F929C
:1014D0000F920FB60F9211240BB60F922F933F93DA
:1014E0004F935F936F937F938F939F93AF93BF932C
:1014F000EF93FF938EE694E00E941B05FF91EF911E
:10150000BF91AF919F918F917F916F915F914F911B
:101510003F912F910F900BBE0F900FBE0F901F9019
:1015200018951F920F920FB60F9211240BB60F92BF
:101530002F933F934F935F936F937F938F939F93DB
:10154000AF93BF93EF93FF938BE095E00E9450071A
:10155000FF91EF91BF91AF919F918F917F916F918B
:101560005F914F913F912F910F900BBE0F900FBE47
:101570000F901F9018951F920F920FB60F92112483
:101580000BB60F922F933F934F935F936F937F937D
:101590008F939F93AF93BF93EF93FF938BE095E06F
:1015A0000E941B05FF91EF91BF91AF919F918F9189
:1015B0007F916F915F914F913F912F910F900BBE53
:1015C0000F900FBE0F901F9018951F920F920FB69D
:1015D0000F9211240BB60F922F933F934F935F936B
:1015E0006F937F938F939F93AF93BF93EF93FF93EB
:1015F0008091B900887F803609F49CC068F58832F4
:1016000009F45BC090F4803109F454C038F48823A5
:1016100009F4F6C0883009F44DC0F6C0883109F4E9
:101620004CC0803209F45DC0EFC0803409F468C05A
:1016300048F4803309F455C0883309F0E5C080933D
:101640003E03D8C0803509F44FC0883509F45DC029
:10165000883409F0D9C0D6C0883909F4C7C0A8F4C5
:10166000883709F467C038F4883609F463C08037D6
:1016700009F460C0C9C0883809F4B8C0803909F4D9
:101680005FC0803809F0C0C05BC0803B09F486C0F1
:1016900038F4803A09F466C0883A09F47FC0B4C0CF
:1016A000803C09F4A7C0883C09F4A4C0883B09F435
:1016B0008AC0AAC080913B0310C090913D038091E5
:1016C0003C03981770F5E0913D0381E08E0F809305
:1016D0003D03F0E0E65EFC4F80818093BB0085EC2B
:1016E00086C080933E038EC0E0913D0381E08E0F63
:1016F00080933D038091BB00F0E0E65EFC4F808369
:1017000090913D0380913C036EC0E0913D0381E0E8
:101710008E0F80933D038091BB00F0E0E65EFC4FAE
:10172000808380913F0381116DC081E080933A03F3
:1017300084EA61C083E08093400310928106CFCF9A
:1017400080918106803208F051C0E091810681E0ED
:101750008E0F809381068091BB00F0E0EF59F94F26
:101760008083BDCF85EC8093BC00109240038091B4
:101770008106803230F4E0918106F0E0EF59F94FB4
:1017800010826091810670E0E091C202F091C30284
:1017900081E696E019951092810636C084E0809328
:1017A00040031092600610925F06E091C402F0912F
:1017B000C502199580915F06811105C081E0809373
:1017C0005F0610923F06E091600681E08E0F8093E5
:1017D0006006F0E0E15CF94F80818093BB0090915E
:1017E000600680915F06981708F479CF85E88093AA
:1017F000BC000AC085EC8093BC001092400304C07A
:1018000010923E030E941208FF91EF91BF91AF9199
:101810009F918F917F916F915F914F913F912F9108
:101820000F900BBE0F900FBE0F901F9018951F9337
:10183000CF93DF93EC01162F8881803308F04EC0E0
:1018400061E0812F0E948C058881E82FF0E09F01E4
:10185000220F331FE20FF31FEF5BFC4F1F739081CA
:10186000907C192B108319821A826CE00E94B91F98
:101870009CE0899FB001112440E050E09B01240FBF
:10188000351FF901EE0FFF1F2E0F3F1FF901EF5B10
:10189000FC4F908196FD16C04F5F5F4F4C30510555
:1018A00069F7813001F51092800082E08093810019
:1018B0001092850010928400B19A80916F0082602E
:1018C00080936F00E881F0E0CF01880F991FE80F47
:1018D000F91FEF5BFC4F8081806480838881DF91FA
:1018E000CF911F910895823061F4109290008093FF
:1018F0009100109295001092940088BB8093710023
:10190000E1CF833069F41092A00082E08093A100BF
:101910001092A5001092A40089BB80937200D2CFD0
:101920008111D0CF1092200182E08093210110928A
:101930002501109224018ABB80937300C3CF1F92AC
:101940000F920FB60F9211240BB60F922F933F9365
:101950004F935F936F937F938F939F93AF93BF93B7
:10196000EF93FF9348E251E064E271E080E090E0A1
:101970000E94D408FF91EF91BF91AF919F918F91F9
:101980007F916F915F914F913F912F910F900BBE7F
:101990000F900FBE0F901F9018951F920F920FB6C9
:1019A0000F9211240BB60F922F933F934F935F9397
:1019B0006F937F938F939F93AF93BF93EF93FF9317
:1019C00048EA50E064EA70E083E090E00E94D408C6
:1019D000FF91EF91BF91AF919F918F917F916F9107
:1019E0005F914F913F912F910F900BBE0F900FBEC3
:1019F0000F901F9018951F920F920FB60F921124FF
:101A00000BB60F922F933F934F935F936F937F93F8
:101A10008F939F93AF93BF93EF93FF9348E950E069
:101A200064E970E082E090E00E94D408FF91EF91B9
:101A3000BF91AF919F918F917F916F915F914F91E6
:101A40003F912F910F900BBE0F900FBE0F901F90E4
:101A500018951F920F920FB60F9211240BB60F928A
:101A60002F933F934F935F936F937F938F939F93A6
:101A7000AF93BF93EF93FF9348E850E064E870E0C2
:101A800081E090E00E94D408FF91EF91BF91AF9167
:101A90009F918F917F916F915F914F913F912F9186
:101AA0000F900BBE0F900FBE0F901F901895FC016A
:101AB0009F01281B390B2617370714F41192F8CF12
:101AC000089560E070E08BE00E94C80560E070E07F
:101AD0008CE00C94C805CF92DF92EF92FF92CF93E7
:101AE000DF93EC01CD3D85E0D807CCF086E30E9482
:101AF00034050197C1F4DE01AC5DB5402FEF30E055
:101B00000E94CD1F24EF31E040E050E00E944E1FC4
:101B1000B9018BE00E94C80560E070E026C0CC3DB2
:101B200085E0D80741F4DF91CF91FF90EF90DF90EF
:101B3000CF900C94610D87E30E943405892B99F7AF
:101B4000DE01AC5DB5402FEF30E00E94CD1F2CE0F0
:101B50003EEF4FEF5FEF0E944E1F69017A0160E098
:101B600070E08BE00E94C805B6018CE0DF91CF9158
:101B7000FF90EF90DF90CF900C94C805CF92DF924A
:101B8000EF92FF926B017C0187E592E00E94DD02FB
:101B900042E0C701B6010E94460361E672E08BE0B5
:101BA00095E0FF90EF90DF90CF900C94CD02CF9313
:101BB000DF93EC0187E592E00E94DD02BE01DD0FBC
:101BC000880B990B97FF03C00E94250303C04AE0CE
:101BD0000E94E20261E672E08BE095E0DF91CF9136
:101BE0000C94CD02CF93DF93EC0187E592E00E9445
:101BF000DD02BE018BE095E00E94CD0261E672E05D
:101C00008BE095E0DF91CF910C94CD0288EB92E0D0
:101C10000E94F20D8DE096E00E941A048AE096E0A0
:101C20000E941A0487E096E00E941A0484E096E07D
:101C30000C941A048BEB92E00E94F20D86E30E9452
:101C40003405019759F464E670E08BE00E94C80502
:101C500060E070E08CE00E94C805F0CF0C94610D4C
:101C60003FB7F8948091830690918406A0918506F1
:101C7000B091860626B5A89B05C02F3F19F00196A6
:101C8000A11DB11D3FBFBA2FA92F982F8827820F02
:101C9000911DA11DB11DBC01CD0142E0660F771F52
:101CA000881F991F4A95D1F708951F920F920FB67A
:101CB0000F9211242F933F938F939F93AF93BF93D2
:101CC0008091B4059091B505A091B605B091B70586
:101CD0003091820623E0230F2D3720F40196A11DB9
:101CE000B11D05C026E8230F0296A11DB11D20934A
:101CF00082068093B4059093B505A093B605B09382
:101D0000B7058091830690918406A0918506B091D5
:101D100086060196A11DB11D8093830690938406CB
:101D2000A0938506B0938606BF91AF919F918F9146
:101D30003F912F910F900FBE0F901F901895CF934A
:101D4000DF93CDB7DEB7C854D1090FB6F894DEBF24
:101D50000FBECDBF789484B5826084BD84B58160A8
:101D600084BD85B5826085BD85B5816085BD809166
:101D70006E00816080936E001092810080918100DE
:101D800082608093810080918100816080938100D6
:101D9000809180008160809380008091B100846098
:101DA0008093B1008091B00081608093B0008091F9
:101DB0009100826080939100809191008160809376
:101DC0009100809190008160809390008091A100AB
:101DD00082608093A1008091A10081608093A10026
:101DE0008091A00081608093A00080912101826099
:101DF0008093210180912101816080932101809154
:101E0000200181608093200180917A00846080931A
:101E10007A0080917A00826080937A0080917A00C3
:101E2000816080937A0080917A00806880937A0044
:101E30001092C10061E08DE00E948C0561E08DE0B0
:101E40000E945D0562E086E30E948C0562E087E304
:101E50000E948C0561E08AE00E948C0561E084E0CC
:101E60000E948C0561E08BE00E948C0561E08CE0B3
:101E70000E948C0540E052EC61E070E08BE095E060
:101E80000E946A0240E855E260E070E08EE694E06D
:101E90000E946A0240E052EC61E070E081ED93E064
:101EA0000E946A021092F9021092F8021092D50272
:101EB0001092F70210924003FF24F394F0923F0334
:101EC00010923A0361E084E10E945D0561E085E1E2
:101ED0000E945D058091B9008E7F8093B90080914A
:101EE000B9008D7F8093B90088E48093B80085E4C1
:101EF0008093BC0084E498E09093C5028093C40270
:101F000085E498E09093C3028093C202F092D402D9
:101F100086E78093F6021092D5021092F7028EE1C6
:101F200090E00E94D9040E947D046AE070E080E0A5
:101F300090E00E94910610E1A12E16E0B12E00EA79
:101F4000E02EF12C7724739486E7882E7092D402C9
:101F50008092F6021092D5021092F702C7010E94F9
:101F6000D9040E947D0462E086E70E942F0410924B
:101F7000F9028093F80288EA95E00E945608982EAC
:101F800088EA95E00E945608D92CC12C8C299D29FD
:101F9000D5018D939D935D01B2E0EB0EF11CEEEA4D
:101FA000EE16F10499F68091100690911106A92F72
:101FB000A295AF709F7090931106809310061092B7
:101FC0001F0610921E0640E050E020E030E0CA01FB
:101FD00095958795880F991FFC01E05FF94F40FFA9
:101FE00004C08081282788E008C0018110E02027F4
:101FF0003127F9CF9B01815049F0B901660F771F56
:1020000037FFF8CF9B01F0E33F27F5CF4F5F5F4FDE
:1020100040315105E1F6832F82958F70A813B8C423
:102020008BE892E00E94F20D64E670E080E090E0C0
:102030000E9491061092300680E090E4A9E7B4E493
:102040008093310690933206A0933306B093340602
:1020500061E084E00E945D050E941A0E82E392E036
:102060000E94F20D87E30E943405892B59F460E049
:1020700070E08BE00E94C80564E670E08CE00E948E
:10208000C805F0CF0E94610D0E941A0E8AE392E00B
:102090000E94F20D67E070E08DE096E00E94170C60
:1020A00068E070E08AE096E00E94170C66E070E05D
:1020B00087E096E00E94170C69E070E084E096E00B
:1020C0000E94170C64EF71E080E090E00E9491069E
:1020D0000E94060E64EF71E080E090E00E9491069D
:1020E00087E492E00E94F20D8091FE050091E205E6
:1020F0001091E305811145C0D801CD90DD90ED90A0
:10210000FC90C092EA05D092EB05E092EC05F092CB
:10211000ED05E091E005F091E10580819181A281DA
:10212000B3818093EE059093EF05A093F005B093F3
:10213000F1058090FA059090FB05A090FC05B09009
:10214000FD05A5019401C701B6010E94DD21181605
:1021500084F08090F6059090F705A090F805B09077
:10216000F905A5019401C701B6010E942A1E87FF47
:1021700008C08092EA059092EB05A092EC05B0921F
:10218000ED0581E08093FE05C12CD12C6AEFE62E8F
:1021900063ECF62EC092F605D092F705E092F805B2
:1021A000F092F905412C512C7AEF672E73E4772ECB
:1021B0004092FA055092FB056092FC057092FD0575
:1021C000F80180809180A280B380A3019201C501B3
:1021D000B4010E94DD2118163CF4D8014D925D92A5
:1021E0006D927C9213970FC020E030E04AEF53ECE1
:1021F000C501B4010E942A1E87FF05C0F801C082F4
:10220000D182E282F3828090EA059090EB05A09063
:10221000EC05B090ED05C090FA05D090FB05E0907C
:10222000FC05F090FD05A7019601C501B4010E94CF
:10223000DD21181684F0C090F605D090F705E090E7
:10224000F805F090F905A7019601C501B4010E94B7
:102250002A1E87FF08C0C092EA05D092EB05E092E3
:10226000EC05F092ED058FE492E00E94F20D60E043
:102270008DE00E945D058E01055E1F4F19A308A326
:102280008BE095E00E940407BE016F5F7F4F0E94C4
:10229000DE04181619060CF0A4C1CE0101960E94A6
:1022A000F20D8981803709F074C1A8A1B9A1E5E0D8
:1022B0001D92EA95E9F7DE0112968E01055E1F4F29
:1022C000F8017F0128A139A1E21AF30A8D9189361C
:1022D00011F08193F6CFBE01655E7F4FCE0145962A
:1022E0000E949B09CE0145960E9410050E94311E56
:1022F00020E030E048EC52E40E9435216093000277
:102300007093010280930202909303020E94BE0D1B
:10231000CE0145960E940B0565E070E0CE014B961C
:102320000E94570DF701329641E050E04C0F5D1FBF
:10233000E40FF51FDE015B96C70168A179A1861B3A
:10234000970B7C01EA0EFB1E2191243611F02D9390
:10235000F8CFBE01655E7F4FCE0145960E949B0976
:10236000CE0145960E9410050E94311E20E030E00B
:1023700048EC52E40E9435216093000670930106F8
:1023800080930206909303060E94BE0DCE014596EF
:102390000E940B0565E070E0CE014B960E94570D40
:1023A000F701339681E090E08C0F9D1FE80FF91F35
:1023B0008191853621F0D8018D938D01F9CFBE0131
:1023C000655E7F4FCE0145960E949B09CE014596E2
:1023D0000E9410050E94311E20E030E048EC52E4DB
:1023E0000E943521609304027093050280930602D7
:1023F000909307020E94BE0DCE0145960E940B05E8
:10240000409000025090010260900202709003021E
:1024100020E030E0A901C301B2010E942A1E87FD1D
:10242000E0C08090000690900106A0900206B09057
:10243000030620E030E0A901C501B4010E942A1E74
:1024400087FDCFC0C0900402D0900502E090060244
:10245000F090070220E030E0A901C701B6010E9418
:102460002A1E87FDBEC081E02091DE053091DF0588
:102470002130310509F080E08093FF054092C405CA
:102480005092C5056092C6057092C7058092C80536
:102490009092C905A092CA05B092CB05C092CC0516
:1024A000D092CD05E092CE05F092CF056091F20575
:1024B0007091F3058091F4059091F5050E942F1E0F
:1024C00020E030E04AE754E40E9435216AA37BA370
:1024D0008CA39DA34092D0055092D1056092D20565
:1024E0007092D3059B01AC01C501B4010E94901EFE
:1024F0004B015C016093D4057093D5058093D6059C
:102500009093D7052AA13BA14CA15DA1C701B601BB
:102510000E9435216B017C016093D8057093D90529
:102520008093DA059093DB058091DC059091DD05C1
:10253000019709F056C0A301920160E070E0CB0161
:102540000E94C8206093D0057093D1058093D20576
:102550009093D305A501940160E070E0CB010E9447
:10256000C8206093D4057093D5058093D6059093C9
:10257000D705A701960160E070E0CB010E94C8205A
:102580006093D8057093D9058093DA059093DB05A5
:1025900028C0833731F51B8E1C8E1D8E1E8EDE01EA
:1025A0001296FE017B96BF018D91853611F08193C5
:1025B000FBCFCE0145960E949B09CE0145960E9415
:1025C00010050E94311E6093B8057093B905809381
:1025D000BA059093BB050E94BE0DCE0145960E94A0
:1025E0000B058EE694E00E940407BE016F5F7F4FEB
:1025F0000E94DE04181619060CF06BC1CE0101967C
:102600000E94F20D8981833709F063C18A81843782
:1026100009F0ADC01B8E1C8E1D8E1E8EDE01139622
:102620008E01055E1F4FF80168017F01E01AF10A73
:102630008D91893611F08193F8CFB801CE0145967E
:102640000E949B09CE0145960E9410059B01AC019A
:10265000A8EEB3E00E946D1F4B015C01B0EA8B0E47
:10266000B6E89B1EB1E0AB1EB11C8092CD029092E9
:10267000CE02A092CF02B092D00287E592E00E94F3
:10268000DD024AE0C501B4010E94E20261E672E0A7
:102690008BE095E00E94CD02CE0145960E940B058D
:1026A00064E070E0C8010E94570DF701339621E005
:1026B00030E02C0F3D1FE20FF31FD801C701801B34
:1026C000910B7C01EA0EFB1E2191243611F02D9313
:1026D000F8CFB801CE0145960E949B09CE014596E0
:1026E0000E9410057093C7026093C602CB010E943E
:1026F000D70DCE0145960E940B0564E070E0C8013D
:102700000E94570D34E0E30EF11CE1E0F0E0EC0F25
:10271000FD1FEE0DFF1D8191853621F0D8018D93AF
:102720008D01F9CFB601CE0145960E949B09CE01DD
:1027300045960E9410050E94311E20E030E048ECD2
:1027400052E40E94C8206093B8057093B905809345
:10275000BA059093BB050E94BE0DCE0145960E941E
:102760000B05B1E0B093D302B093D102B2C0803771
:1027700009F0A6C01B8E1C8E1D8E1E8EDE011396C8
:10278000FE017B968F01E8A0F9A00E191F098D911B
:10279000843711F08193F6CFBE01655E7F4FCE0185
:1027A00045960E949B09CE0145960E941005DB01CB
:1027B00024EF31E00E94CD1F24E630E040E050E0FD
:1027C0000E944E1FC901853F21E0920714F084EF5B
:1027D00091E097FF02C080E090E00E94D70DCE010B
:1027E00045960E940B0564E070E0CE014B960E9476
:1027F000570DF801339641E050E04C0F5D1FE40F98
:10280000F51FDE015B96C80168A179A1861B970BB5
:102810008C010A0F1B1F2191253611F02D93F8CF43
:10282000BE01655E7F4FCE0145960E949B09CE0199
:1028300045960E941005CB016B30710514F08AE0BB
:1028400090E097FF02C080E090E0DC01E8EEF3E06A
:10285000AE9FC001AF9F900DBE9F900D11240E94AE
:10286000D70DCE0145960E940B05E5E0F0E0EC0F98
:10287000FD1FE00FF11F80818536D1F03CF48136D9
:10288000A1F08436D1F48CE692E014C0833751F085
:10289000873729F0813789F488E692E00BC084E617
:1028A00092E008C086E692E005C089E692E002C0A8
:1028B0008BE692E00E94F20D0CC00E94060E09C049
:1028C000833739F48091D302882319F0F1E0F09333
:1028D000D2028091D302882309F457C08091D2029A
:1028E000882309F452C08091D102882381F18FB7E7
:1028F000F894C090B405D090B505E090B605F0907E
:10290000B7058FBF8091CD029091CE02A091CF02EA
:10291000B091D002C80ED91EEA1EFB1EC092C90299
:10292000D092CA02E092CB02F092CC021092D10275
:1029300087E592E00E94DD024AE0C701B6010E94ED
:10294000E20261E672E08BE095E00E94CD028FB773
:10295000F8944091B4055091B5056091B605709119
:10296000B7058FBF0091C9021091CA022091CB0216
:102970003091CC028091C80240175107620773075B
:1029800060F48823F1F10E941A0E0E94E10778CCCE
:1029900088E992E00E94F20D5BCB882349F0809198
:1029A000C6029091C70201979093C7028093C60216
:1029B0008091C6029091C7021816190694F01092E1
:1029C000D2021092D30260EC72E08EE694E00E9494
:1029D000CD0261E672E08EE694E00E94CD020E9494
:1029E0001A0EFF24F394F092D1028091C8028F2531
:1029F0008093C8028091C6029091C7020E94D70DB1
:102A0000C4CFEE24E394E092D40216E71093F602CA
:102A10001092D5021092F7028AE490E00E94D90445
:102A20000E947D0464E170E080E090E00E949106E5
:102A3000E092D4021093F6021092D5021092F7029F
:102A400080E090E00E94D9040E947D0483E090E041
:102A50000E94710410922006109221061092220604
:102A60001092230688EA95E00E9456084C01990FBF
:102A7000AA08BB088092200690922106A092220606
:102A8000B092230688EA95E00E945608BA2CA92C39
:102A9000982C88246C01990FEE08FF08C828D928C3
:102AA000EA28FB28C0922006D0922106E092220656
:102AB000F092230688EA95E00E945608FE2CED2C41
:102AC000DC2CCC24092E000CAA0BBB0BC82AD92A5B
:102AD000EA2AFB2AC0922006D0922106E092220622
:102AE000F0922306FF24F394F092D4021093F6029E
:102AF0001092D5021092F7028AE590E00E94D90464
:102B00000E947D0464E170E080E090E00E94910604
:102B1000F092D4021093F6021092D5021092F702AE
:102B200080E090E00E94D9040E947D0483E090E060
:102B30000E94710410922406109225061092260617
:102B40001092270688EA95E00E9456084C01990FDA
:102B5000AA08BB088092240690922506A092260619
:102B6000B092270688EA95E00E945608BA2CA92C54
:102B7000982C88246C01990FEE08FF08C828D928E2
:102B8000EA28FB28C0922406D0922506E092260669
:102B9000F092270688EA95E00E945608FE2CED2C5C
:102BA000DC2CCC24092E000CAA0BBB0BC82AD92A7A
:102BB000EA2AFB2AC0922406D0922506E092260635
:102BC000F092270680911A0690911B06A0E0B0E0D3
:102BD000BA2FA92F982F882797018601081B190B58
:102BE0002A0B3B0B0AA31BA32CA33DA31091300679
:102BF00029961FAF2997E0911606F0911706E090ED
:102C00001206F09013062091200630912106409183
:102C100022065091230628962CAF3DAF4EAF5FAFF2
:102C20002897113009F08DC0970140E050E060E036
:102C300070E080E090E000E10E94672019012A0125
:102C40003B014C01BF0180E090E02AA13BA14CA1D7
:102C50005DA10E942D20F22E032F142FB52FF62FE9
:102C6000E72FD82EE92EA0E00E94BC205CF4AFE74D
:102C70000E94A720F22E032F142FB52FF62FE72F37
:102C8000D82EE92E2F2D302F412F5B2F6F2F7E2F27
:102C90008D2D9E2D07E00E94802059016A017B0145
:102CA0008C019101A201B301C4010E949E202AABB4
:102CB0003AAF4BAF5CAF6DAF7EAF8FAF21969FAF9A
:102CC0002197E0911806F0911906809014069090D3
:102CD0001506940140E050E060E070E080E090E094
:102CE00001E10E94672019012A013B014C01BF014B
:102CF00080E090E02AA13BA14CA15DA10E942D2083
:102D0000F22E032F142FB52FF62FE72FD82EE92EF2
:102D1000A0E00E94BC205CF4AFE30E94A720F22E4A
:102D2000032F142FB52FF62FE72FD82EE92E2F2D96
:102D3000302F412F5B2F6F2F7E2F8D2D9E2D06E084
:102D400096C0BF0180E090E02AA13BA14CA15DA10B
:102D50000E942D20D22E032F142FB52FF62FE72FF0
:102D6000B82EC92EA0E00E94BC2084F421503F4F11
:102D70004F4F5F4F6F4F7F4F8F4F9F4FD22E032F7D
:102D8000142FB52FF62FE72FB82EC92E2D2D302F4B
:102D9000412F5B2F6F2F7E2F8B2D9C2D08E00E94E3
:102DA000802039014A01B62FA72FF82FE92FC12C17
:102DB000D12C9701A60160E070E080E090E00FE088
:102DC0000E94672059016A017B018C019301A401D3
:102DD0006B2F7A2F8F2F9E2F0E949E202AAB3AAF07
:102DE0004BAF5CAF6DAF7EAF8FAF21969FAF21979A
:102DF000E0911806F091190680901406909015063F
:102E0000940140E050E060E070E080E090E000E19C
:102E10000E94672019012A013B014C01BF0180E09B
:102E200090E02AA13BA14CA15DA10E942D20F22E91
:102E3000032F142FB52FF62FE72FD82EE92EA0E061
:102E40000E94BC205CF4AFE70E94A720F22E032F63
:102E5000142FB52FF62FE72FD82EE92E2F2D302F38
:102E6000412F5B2F6F2F7E2F8D2D9E2D07E00E940F
:102E7000802059016A017B018C019101A201B301FB
:102E8000C4010E949E202AA73EAB4FAB58AF69AF4A
:102E900022967FAF229723968FAF239724969FAFDA
:102EA00024974AA05BA06CA07DA0770C4408542C0A
:102EB000320160911C0670911D0680E090E02AA10D
:102EC0003BA14CA15DA10E942D20F22E032F142FB7
:102ED000B52FF62FE72FD82EE92EA0E00E94BC20B8
:102EE00084F42150310940485F4F6F4F7F4F8F4F1F
:102EF0009F4FF22E032F142FB52FF62FE72FD82E2A
:102F0000E92E2F2D302F412F5B2F6F2F7E2F8D2DF0
:102F10009E2D07E10E94802049015A0195018401FC
:102F20000053184F2F4F3F4F0EA71FA728AB39ABA9
:102F300029961FAD2997113009F07EC02EA53FA517
:102F400048A959A9203D3740410551050CF038C129
:102F50006AA17BA18CA19DA12BE030E040E050E074
:102F60000E942D20AAA0BBA0CCA0DDA0E42CF42CB4
:102F7000042D142D0E94D41FF22E032F142FB52FD1
:102F8000F62FE72FD82EE92EA0E00E94BC2084F473
:102F90002150310941095109684F7F4F8F4F9F4F91
:102FA000F22E032F142FB52FF62FE72FD82EE92E50
:102FB0002F2D302F412F5B2F6F2F7E2F8D2D9E2D8C
:102FC00003E20E9480202AA33BA34CA35DA3AFE1B0
:102FD000B0E08EA49FA4A8A8B9A870ED871A77E0E6
:102FE000970AA108B108A50194010E946D1F9B01D9
:102FF000AC01C501B4010E94A91F7B018C01F3E063
:1030000015950795F794E794FA95D1F7AFE3B0E0FB
:10301000A50194010E946D1F9B01AC01C501B40183
:103020000E94A91F1B012C01A5E0559447943794D9
:103030002794AA95D1F7CEC08EA59FA5A8A9B9A916
:10304000803D9740A105B1050CF0A6C06AA17BA107
:103050008CA19DA123E030E040E050E00E942D20B3
:10306000AAA0BBA0CCA0DDA0E42CF42C042D142D30
:103070000E94D41FF22E032F142FB52FF62FE72F07
:10308000D82EE92EA0E00E94BC2084F42150310902
:10309000410951096E4F7F4F8F4F9F4FF22E032FE3
:1030A000142FB52FF62FE72FD82EE92E2F2D302FE6
:1030B000412F5B2F6F2F7E2F8D2D9E2D01E20E94C1
:1030C00080202AA33BA34CA35DA3A3E0B0E08EA481
:1030D0009FA4A8A8B9A8F0ED8F1AF7E09F0AA1084D
:1030E000B108A50194010E946D1F9B01AC01C501AF
:1030F000B4010E94A91F7B018C0115950795F794D7
:10310000E794A5E0B0E0A50194010E946D1F9B012A
:10311000AC01C501B4010E94A91F1B012C01E3E011
:103120005594479437942794EA95D1F72EA53FA557
:1031300048A959A9213C69EF36076FEF46075607A2
:103140000CF048C0A7E0B0E049015A017CED870EC1
:1031500075E0971EA11CB11CA50194010E946D1F72
:103160009B01AC01C501B4010E94A91FE60EF71E28
:10317000081F191FA501940162E0220F331F441F8D
:10318000551F6A95D1F7C501B4010E94A91F260EEB
:10319000371E481E591E1EC0A5019401C501B40169
:1031A0000E94A91F7B018C0134E015950795F794C7
:1031B000E7943A95D1F71AA21BA21CA21DA207C040
:1031C0001AA21BA21CA21DA2E12CF12C8701212C0A
:1031D000312C210137014801990C6608762C4301F6
:1031E0002AA53EA94FA958AD69AD22967FAD229779
:1031F00023968FAD239724969FAD2497570168019E
:10320000E62CF62C062D162D0E94B3202EAB3FABDC
:1032100048AF59AF3B014C01D201C101BB0F880B34
:10322000982FDC018AA79BA7ACA7BDA72AA93AAD16
:103230004BAD5CAD6DAD7EAD8FAD21969FAD219751
:1032400051016201EAA4FE2C0E2D1E2D0E94B32016
:1032500059016A017B018C018EA59FA5A8A9B9A976
:103260002AA13BA14CA15DA1821B930BA40BB50B22
:103270008093280690932906A0932A06B0932B06E4
:1032800029963FAD2997313009F070C028966CAD72
:103290007DAD8EAD9FAD2897AB01BC0180E090E085
:1032A000DC014AA35BA36CA37DA38EA39FA3A8A765
:1032B000B9A79A01AB0160E070E080E090E00E9465
:1032C000D41FF22E032F142FB52FF62FE72FD82E51
:1032D000E92EA0E00E94BC2084F421503109404E28
:1032E0005F4F6F4F7F4F8F4F9F4FF22E032F142F43
:1032F000B52FF62FE72FD82EE92E2F2D302F412F67
:103300005B2F6F2F7E2F8D2D9E2D05E10E9480203B
:10331000AEA8BFA8C8ACD9AC730184010E94B32089
:10332000F22E032F142FB52FF62FE72FD82EE92ECC
:10333000A0E00E94BC2084F4215030484F4F5F4FE2
:103340006F4F7F4F8F4F9F4FF22E032F142FB52FAC
:10335000F62FE72FD82EE92E2F2D302F412F5B2F60
:103360006F2F7E2F8D2D9E2D0FE06DC028964CADBA
:103370005DAD6EAD7FAD28979A01AB0160E070E066
:10338000CB012AA33BA34CA35DA36EA37FA388A775
:1033900099A760E070E080E090E00E94D41FF22ED8
:1033A000032F142FB52FF62FE72FD82EE92EA0E0EC
:1033B0000E94BC2084F421503109404E5F4F6F4F72
:1033C0007F4F8F4F9F4FF22E032F142FB52FF62FC5
:1033D000E72FD82EE92E2F2D302F412F5B2F6F2F67
:1033E0007E2F8D2D9E2D05E10E948020AEA8BFA8C6
:1033F000C8ACD9AC730184010E94B320F22E032F14
:10340000142FB52FF62FE72FD82EE92EA0E00E941B
:10341000BC2084F42150304E4F4F5F4F6F4F7F4F91
:103420008F4F9F4FF22E032F142FB52FF62FE72F1C
:10343000D82EE92E2F2D302F412F5B2F6F2F7E2F6F
:103440008D2D9E2D0DE00E94802020932C06309320
:103450002D0640932E0650932F060E9416026B01F4
:103460007C0120E030E040E85FEB0E94DD2187FD39
:103470000BC020E030E048E452E4C701B6010E94EE
:103480002A1E18160CF08CC18091FE05882309F4C1
:1034900042C18FB7F894E090B405F090B505009163
:1034A000B6051091B705EAAAFBAA0CAB1DAB8FBFFE
:1034B0008091E6059091E705A091E805B091E905B6
:1034C000B801A701481B590B6A0B7B0B8091F205D1
:1034D0009091F305A091F405B091F50548175907AF
:1034E0006A077B0708F417C1E091E005F091E10558
:1034F000E080F18002811381EAA2FBA20CA31DA34C
:10350000E091E405F091E505A801970160817181E2
:10351000828193810E94C8204B015C012091EE05BD
:103520003091EF054091F0055091F105C801B701C8
:103530000E94C8206B017C012091D4053091D505F3
:103540004091D6055091D705C501B4010E94901E47
:103550002091EA053091EB054091EC055091ED0585
:103560000E94C9202B013C016093EA057093EB0592
:103570008093EC059093ED050091FF050EA70111D6
:103580001AC02091D0053091D1054091D2055091BB
:10359000D305C701B6010E94901E9B01AC01C30177
:1035A000B2010E94C8206093EA057093EB058093F6
:1035B000EC059093ED054090EA055090EB05609086
:1035C000EC057090ED052090FA053090FB05009118
:1035D000FC051091FD059101A801C301B2010E94F3
:1035E000DD2118165CF4C101D8018093EA0590939F
:1035F000EB05A093EC05B093ED051EC02091F605F8
:103600003091F7054091F8055091F9052AA73BA79D
:103610004CA75DA7C301B2010E942A1E87FF0CC000
:103620004AA55BA56CA57DA54093EA055093EB05E3
:103630006093EC057093ED055EA5552379F020911C
:10364000D0053091D1054091D2055091D305C501E7
:10365000B4010E94901E4B015C0103C0812C912C8F
:1036600054012091D8053091D9054091DA05509147
:10367000DB05C701B6010E94901E9B01AC01609161
:10368000EA057091EB058091EC059091ED050E94A3
:10369000C820A50194010E94C9206B017C019B01F7
:1036A000AC01B101C8010E942A1E87FD12C0209002
:1036B000F6053090F7050091F8051091F905910194
:1036C000A801B601C7010E942A1E87FD02C016018B
:1036D0008701E091E205F091E305C101D801808303
:1036E0009183A283B383EAA0FBA00CA11DA1E09269
:1036F000EE05F092EF050093F0051093F105EAA8AE
:10370000FBA80CA91DA9E092E605F092E70500933D
:10371000E8051093E9058EE692E00E94DD026091D3
:10372000C0057091C1058091C2059091C30542E02A
:103730000E94460386E792E00E94DD026091BC058C
:103740007091BD058091BE059091BF0542E00E9439
:1037500046036091BC057091BD058091BE059091B6
:10376000BF050E94A7218B0104521A4FC8010E9475
:103770006B0D82E892E00E94DD02B801110F880B08
:10378000990B97FF03C00E94250303C04AE00E94E3
:10379000E20261E672E08BE095E00E94CD02F5C89E
:1037A00020E030E040E251E4C701B6010E94901EE3
:1037B0006093C0057093C1058093C2059093C305C3
:1037C00063CE4F925F926F927F928F929F92AF9251
:1037D000BF92CF92DF92EF92FF92CF93DF9310923E
:1037E000D4031092D30388EE93E0A0E0B0E080937E
:1037F000D5039093D603A093D703B093D80322E1C7
:1038000032E03093D2032093D10345ED50E0509342
:10381000DE034093DD0344ED50E05093E00340931A
:10382000DF0340ED50E05093E2034093E10341EDAC
:1038300050E05093E4034093E30342ED50E0509393
:10384000E6034093E50346ED50E05093E8034093D0
:10385000E7031092EA031092EB031092EC0310922C
:10386000ED0310927104109270048093720490938F
:103870007304A0937404B093750430936F04209381
:103880006E044DEC50E050937B0440937A044CEC72
:1038900050E050937D0440937C0448EC50E05093FA
:1038A0007F0440937E0449EC50E0509381044093A0
:1038B00080044AEC50E050938304409382044EEC21
:1038C00050E0509385044093840410928704109232
:1038D00088041092890410928A0410920E051092A6
:1038E0000D0580930F0590931005A0931105B093DB
:1038F000120530930C0520930B0525EC30E0309336
:1039000018052093170524EC30E030931A05209316
:10391000190520EC30E030931C0520931B0521ECA9
:1039200030E030931E0520931D0522EC30E03093EB
:10393000200520931F0526EC30E0309322052093CC
:10394000210510922405109225051092260510924B
:1039500027051092AB051092AA058093AC059093B1
:10396000AD05A093AE05B093AF0584E292E09093CD
:10397000A9058093A80580E090EAA0E8B4E48093CC
:10398000310690933206A0933306B093340687E352
:1039900096E00E94D21D8DE096E00E94D21D8AE042
:1039A00096E00E94D21D87E096E00E94D21D84E03E
:1039B00096E00E94D21DC0900402D0900502E090D3
:1039C0000602F09007028090000690900106A090F9
:1039D0000206B090030640900002509001026090F1
:1039E0000202709003028CEB95E09093E3058093C4
:1039F000E20580EC95E09093E1058093E00588EB8B
:103A000095E09093E5058093E4051092FE051092F1
:103A1000F6051092F7051092F8051092F90580E06E
:103A200090E0AFE7B3E48093FA059093FB05A09391
:103A3000FC05B093FD0584E690E0A0E0B0E0809343
:103A4000F2059093F305A093F405B093F505C1E05A
:103A5000D0E0D093DD05C093DC0520E030E0A90183
:103A6000C301B2010E942A1E87FD6EC020E030E033
:103A7000A901C501B4010E942A1E87FD65C020E08E
:103A800030E0A901C701B6010E942A1E87FD5CC073
:103A9000D093DF05C093DE0581E08093FF0540925F
:103AA000C4055092C5056092C6057092C705809204
:103AB000C8059092C905A092CA05B092CB05C092E4
:103AC000CC05D092CD05E092CE05F092CF05A301B2
:103AD000920160E070E0CB010E94C8206093D005A5
:103AE0007093D1058093D2059093D3052DEC3CECD7
:103AF0004CEC5DE3C501B4010E94901E9B01AC013A
:103B000060E070E0CB010E94C8206093D405709300
:103B1000D5058093D6059093D7052DEC3CEC4CEC65
:103B20005DE3C701B6010E9435219B01AC0160E055
:103B300070E0CB010E94C8206093D8057093D9052E
:103B40008093DA059093DB052FB7F8948091B40544
:103B50009091B505A091B605B091B7052FBF4091E2
:103B6000F2055091F3056091F4057091F505841B01
:103B7000950BA60BB70B8093E6059093E705A093F2
:103B8000E805B093E905DF91CF91FF90EF90DF90CA
:103B9000CF90BF90AF909F908F907F906F905F90ED
:103BA0004F900895FC0190913E069033A0F481E07F
:103BB000890F80933E069083892F90E0FC01EE0FE1
:103BC000FF1F8E0F9F1FFC01EF5BFC4F88EB9BE0FC
:103BD0009283818308958FEF808308951F93FC0162
:103BE00099278827BC01E89411911032E9F3193024
:103BF00010F01E30C8F31B3251F01D3249F46894A6
:103C000006C00E94151E610F711D811D911D11912D
:103C100010531A30B0F33EF49095809570956195ED
:103C20007F4F8F4F9F4F1F910895592F482F372F48
:103C3000262F660F771F881F991F660F771F881F13
:103C4000991F620F731F841F951F660F771F881FB0
:103C5000991F08950E946C1E08F481E00895E8946D
:103C600009C097FB3EF490958095709561957F4FC4
:103C70008F4F9F4F9923A9F0F92F96E9BB27939572
:103C8000F695879577956795B795F111F8CFFAF482
:103C9000BB0F11F460FF1BC06F5F7F4F8F4F9F4FB3
:103CA00016C0882311F096E911C0772321F09EE811
:103CB000872F762F05C0662371F096E8862F70E077
:103CC00060E02AF09A95660F771F881FDAF7880F51
:103CD0009695879597F90895990F0008550FAA0BA7
:103CE000E0E8FEEF16161706E807F907C0F012160F
:103CF0001306E407F50798F0621B730B840B950B12
:103D000039F40A2661F0232B242B252B21F4089566
:103D10000A2609F4A140A6958FEF811D811D089503
:103D20000E94A31E0C94141F0E94061F38F00E94CC
:103D30000D1F20F0952311F00C94FD1E0C94031F11
:103D400011240C94481F0E94251F70F3959FC1F306
:103D5000950F50E0551F629FF001729FBB27F00D39
:103D6000B11D639FAA27F00DB11DAA1F649F66278E
:103D7000B00DA11D661F829F2227B00DA11D621FDD
:103D8000739FB00DA11D621F839FA00D611D221F97
:103D9000749F3327A00D611D231F849F600D211D7B
:103DA000822F762F6A2F11249F5750409AF0F1F0FE
:103DB00088234AF0EE0FFF1FBB1F661F771F881F67
:103DC00091505040A9F79E3F510580F00C94FD1E84
:103DD0000C94481F5F3FE4F3983ED4F386957795A3
:103DE0006795B795F795E7959F5FC1F7FE2B880F0D
:103DF000911D9695879597F9089597F99F6780E8A3
:103E000070E060E008959FEF80EC089500240A942C
:103E10001616170618060906089500240A941216A5
:103E20001306140605060895092E0394000C11F4D8
:103E3000882352F0BB0F40F4BF2B11F460FF04C085
:103E40006F5F7F4F8F4F9F4F089557FD9058440FDE
:103E5000551F59F05F3F71F04795880F97FB991FE9
:103E600061F09F3F79F087950895121613061406A6
:103E7000551FF2CF4695F1DF08C016161706180633
:103E8000991FF1CF86957105610508940895E8940E
:103E9000BB2766277727CB0197F90895052E97FB57
:103EA0001EF400940E94651F57FD07D00E94781FE2
:103EB00007FC03D04EF40C94651F50954095309547
:103EC00021953F4F4F4F5F4F089590958095709586
:103ED00061957F4F8F4F9F4F08950E949A1FA59F16
:103EE000900DB49F900DA49F800D911D11240895F5
:103EF000A1E21A2EAA1BBB1BFD010DC0AA1FBB1FEE
:103F0000EE1FFF1FA217B307E407F50720F0A21B5F
:103F1000B30BE40BF50B661F771F881F991F1A94CC
:103F200069F760957095809590959B01AC01BD01F6
:103F3000CF010895A29FB001B39FC001A39F700D50
:103F4000811D1124911DB29F700D811D1124911DA1
:103F50000895DB018F939F930E946D1FBF91AF91D6
:103F6000A29F800D911DA39F900DB29F900D1124D3
:103F70000895991B79E004C0991F961708F0961BC5
:103F8000881F7A95C9F780950895EE0FFF1F881F47
:103F90008BBF0790F691E02D19940E949A1FB7FFEE
:103FA0000895821B930B0895DF93CF931F930F9374
:103FB0009A9DF02D219FF00D8B9DF00D8A9DE02D97
:103FC000F10D039FF00D029FE00DF11D4E9DE00DE0
:103FD000F11D5E9DF00D4F9DF00D7F936F93BF928D
:103FE000AF925F934F93D5010E949A1F8B01AC0152
:103FF000D7010E949A1FEB01E80FF91FD6010E941A
:1040000024202F913F91D6010E949A1FC60FD71FDF
:10401000E81FF91FAF91BF910E9424202F913F917B
:104020000E949A1FC60FD71FE81FF91FD6010E94D2
:104030009A1FE60FF71F9801BE01CF0111240F91BF
:104040001F91CF91DF9108950E949A1F460F571F2D
:10405000C81FD91F08F43196089597FB57FF0C9499
:104060003D209F938F930E943D206E1B7F0BAF914D
:10407000BF918A0B9B0B0895E894DF93CF93FC01CB
:10408000DB010E949A1F7F936F93E9019A01AC01B3
:10409000BF93AF933F932F93DF010E949A1F26F4A3
:1040A0006C1B7D0B820B930B9E01EB01FC010E94AC
:1040B0002420AF91BF912F913F910E942420BE01F7
:1040C000CF01F9012F913F91CF91DF9108950F9387
:1040D000083090F0982F872F762F652F542F432F7D
:1040E000322F22270850F4CF220F331F441F551FB1
:1040F000661F771F881F991F0A95B2F70F910895C1
:1041000097FB10F8169400080F93083098F00850A9
:10411000232F342F452F562F672F782F892F902D3F
:10412000F4CF05949795879577956795579547951B
:10413000379527950A95AAF70F9108952A0D3B1DEB
:104140004C1D5D1D6E1D7F1D801F911F0895002455
:10415000A7FD00942A0F301D401D501D601D701DCD
:10416000801D901D08952A193B094C095D096E09AF
:104170007F09800B910B08950024A7FD00942A1756
:1041800030054005500560057005800590050895CF
:104190005058BB27AA270E94E0200C94141F0E94AD
:1041A000061F38F00E940D1F20F039F49F3F19F4CC
:1041B00026F40C94031F0EF4E095E7FB0C94FD1E0F
:1041C000E92F0E94251F58F3BA1762077307840767
:1041D000950720F079F4A6F50C94471F0EF4E095AE
:1041E0000B2EBA2FA02D0B01B90190010C01CA01B1
:1041F000A0011124FF27591B99F0593F50F4503E5C
:1042000068F11A16F040A22F232F342F4427585F4D
:10421000F3CF469537952795A795F0405395C9F765
:104220007EF41F16BA0B620B730B840BBAF091501D
:10423000A1F0FF0FBB1F661F771F881FC2F70EC0BC
:10424000BA0F621F731F841F48F48795779567958F
:10425000B795F7959E3F08F0B0CF9395880F08F07B
:104260009927EE0F9795879508950E9449210C9400
:10427000141F0E940D1F58F00E94061F40F029F4E1
:104280005F3F29F00C94FD1E51110C94481F0C94B3
:10429000031F0E94251F68F39923B1F3552391F35F
:1042A000951B550BBB27AA2762177307840738F0A5
:1042B0009F5F5F4F220F331F441FAA1FA9F335D002
:1042C0000E2E3AF0E0E832D091505040E695001CB6
:1042D000CAF72BD0FE2F29D0660F771F881FBB1F70
:1042E000261737074807AB07B0E809F0BB0B802D4E
:1042F000BF01FF2793585F4F3AF09E3F510578F07A
:104300000C94FD1E0C94481F5F3FE4F3983ED4F3D9
:10431000869577956795B795F7959F5FC9F7880F4D
:10432000911D9695879597F90895E1E0660F771F9F
:10433000881FBB1F621773078407BA0720F0621B30
:10434000730B840BBA0BEE1F88F7E09508950E945B
:10435000AE216894B1110C94481F08950E942D1F3E
:1043600088F09F5798F0B92F9927B751B0F0E1F036
:10437000660F771F881F991F1AF0BA95C9F714C0E6
:10438000B13091F00E94471FB1E008950C94471F8F
:10439000672F782F8827B85F39F0B93FCCF386951F
:1043A00077956795B395D9F73EF49095809570957C
:1043B00061957F4F8F4F9F4F08950E946C1E08F4A8
:1043C0008FEF08950E946C1E880B990B08950F9330
:1043D0001F93CF93DF938230910510F482E090E039
:1043E000E0918906F0918A0620E030E0A0E0B0E09C
:1043F000309719F140815181028113814817590783
:10440000C8F08417950769F4109731F012960C9351
:10441000129713961C9327C00093890610938A065F
:1044200022C02115310519F04217530718F49A01DB
:10443000BD01EF01DF01F801DBCF21153105F9F0F6
:10444000281B390B2430310580F48A819B8161154A
:10445000710521F0FB019383828304C090938A0647
:1044600080938906FE01329644C0FE01E20FF31FDD
:104470008193919322503109398328833AC0209146
:10448000870630918806232B41F420910A0230914F
:104490000B02309388062093870620910802309102
:1044A00009022115310541F42DB73EB740910C02A8
:1044B00050910D02241B350BE0918706F091880680
:1044C000E217F307A0F42E1B3F0B2817390778F0EB
:1044D000AC014E5F5F4F2417350748F04E0F5F1F4A
:1044E00050938806409387068193919302C0E0E041
:1044F000F0E0CF01DF91CF911F910F910895CF93FD
:10450000DF93009709F481C0FC0132971382128275
:10451000A0918906B0918A06109781F4208131819B
:10452000820F931F2091870630918806281739073C
:1045300051F5F0938806E093870667C0ED0120E00F
:1045400030E0CE17DF0740F44A815B819E014115C0
:104550005105F1F0EA01F5CFD383C2834081518147
:10456000840F951FC817D90759F488819981840F42
:10457000951F0296918380838A819B819383828396
:104580002115310529F4F0938A06E09389063DC090
:10459000E901FB83EA8349915991C40FD51FEC17B8
:1045A000FD0761F480819181840F951F0296E901D6
:1045B00099838883828193819B838A83E0E0F0E002
:1045C00012968D919C911397009719F0FD01DC01D3
:1045D000F7CF8D919C9111979D012E5F3F4F820FD8
:1045E000931F20918706309188062817390769F4B0
:1045F000309729F410928A061092890602C013821D
:104600001282B0938806A0938706DF91CF91089518
:104610006F927F928F929F92AF92BF92CF92DF92D2
:10462000EF92FF920F931F93CF93DF93009789F43C
:10463000CB01DF91CF911F910F91FF90EF90DF9011
:10464000CF90BF90AF909F908F907F906F900C9481
:10465000E721FC01E60FF71F9C0122503109E21708
:10466000F30708F4A9C0EC01D9010D911C91119731
:1046700006171707B0F00530110508F49BC0C801F4
:1046800004978617970708F495C002501109061B76
:10469000170B019311936D937C93CF010E947F229E
:1046A00089C05B01A01AB10A4C01800E911EA09135
:1046B0008906B0918A06612C712CE12CF12C10979F
:1046C00009F446C08D919C911197A815B905B1F5D3
:1046D0006C0142E0C40ED11CCA14DB0478F14C0119
:1046E0008A189B08640142E0C40ED11C1296BC904B
:1046F00012971396AC91B5E0CB16D10440F0B2827C
:10470000A38391828082D9016D937C9309C00E5F4F
:104710001F4F800F911FF90191838083EB2DFA2F9A
:10472000E114F10431F0D7011396FC93EE93129744
:1047300041C0F0938A06E09389063CC0681679066A
:1047400008F43C017D0112960D90BC91A02DB7CFCD
:10475000809187069091880688169906E1F466167E
:104760007706C8F48091080290910902009741F4FD
:104770008DB79EB740910C0250910D02841B950B92
:10478000E817F907C8F4F0938806E0938706F90163
:10479000718360830FC0CB010E94E7217C010097E9
:1047A00059F0A801BE010E94F223CE010E947F228F
:1047B000C70104C0CE0102C080E090E0DF91CF913C
:1047C0001F910F91FF90EF90DF90CF90BF90AF902F
:1047D0009F908F907F906F90089581E090E0F89483
:1047E0000C940224FB01DC0102C001900D924150A7
:1047F0005040D8F70895FB01DC0101900D92002094
:08480000E1F70895F894FFCFE1
:10480800000020400000104100008B06200000003E
:1048180000007207CB06F506BF072607040718072E
:10482800000000009F087208CF0846086A0856086A
:1048380047085265747261637400416374756174EA
:104848006F72204F4B2E00455343204F4B2E00498B
:104858006E6974204F4B005B44454255475D3A20D2
:10486800000D0A0046004200524C005252004465B6
:104878007074683A20002020204F75747075743A5F
:1048880020002020204143543A2000502053656ED8
:10489800736F72204F4B2E00502053656E736F72EA
:1048A80020496E6974204661696C2E006E616E0045
:1048B800696E66006F766600535400457874656EBD
:0248C80064008A
:00000001FF
