:100000000C9469010C949A010C949A010C949A0135
:100010000C949A010C949A010C949A010C949A01F4
:100020000C949A010C949A010C949A010C949A01E4
:100030000C949A010C949A010C949A010C949A01D4
:100040000C949A010C94EA0D0C949A010C949A0168
:100050000C949A010C949A010C949A010C94F60A4F
:100060000C949A010C94120C0C94E80B0C949A01C9
:100070000C949A010C949A010C949A010C949A0194
:100080000C94BC0D0C949A010C949A010C949A0156
:100090000C94BE0B0C94940B0C949A010C943C0C95
:1000A0000C949A010C949A010C948E0D0C949A0164
:1000B0000C949A010C949A010C949A010C94600D82
:1000C0000C949A010C949A010C949A010C946A0B6A
:1000D0000C94400B0C949A010C949A010C949A0184
:1000E0000C949A010C9497030C9475020C94B5032C
:1000F0000C943B050C94EA060C946A030C9453028E
:100100000C94AB030C9444020C947E020C943C03BC
:100110000C944C020C94DB060C9471040C9429048E
:100120000C94A1030C942B040C94330E0C94370301
:100130000C9471020C945D020C94A2040C94740350
:100140000C9494040C94DA060C9459020C94FD0659
:100150000C9432030C9448020C9450030C94310715
:100160000C9488030C943E020C945A030C947F0266
:100170000C947E030C9450020C94EE040C9404072F
:100180000C94C9030C9479020C9467020C946B02D2
:100190000C9480040C94BF030C9462030C944603EB
:1001A0000C9463020C942A040C9460070C94830250
:1001B00000002100240027002A002D003000330019
:1001C00001010000040107010A01000022002500CE
:1001D00028002B002E003100340002010000050130
:1001E00008010B01000020002300260029002C003C
:1001F0002F0032000001000003010601090105057E
:100200000505070508080808020202020A0A08088C
:1002100004040404010101010101010103030303BA
:1002200003030303040707070C0C0C0C0C0C0C0C49
:100230000202020206060606060606060B0B0B0B5A
:100240000B0B0B0B0102102020080810204010207F
:10025000408002010201080402010102040810208A
:100260004080804020100804020180040201804088
:1002700020100804020108040201010204081020F1
:100280004080010204081020408000000A0B02098F
:100290000C0D0E0807030401000000000000000020
:1002A000000000000000000000000000000000004E
:1002B000000000000000121110000000000000000B
:1002C000000000000000000000000000000000002E
:1002D000330E11241FBECFEFD1E2DEBFCDBF00E051
:1002E0000CBF12E0A0E0B2E0ECEBF7E300E00BBFE4
:1002F00002C007900D92A83AB107D9F726E0A8EA04
:10030000B2E001C01D92A937B207E1F711E0C9E6DA
:10031000D1E000E006C021970109802FFE010E9474
:100320009F18C836D10780E00807A9F70E9424105B
:100330000C94DC1B0C940000CF93DF93EC019A012A
:10034000AB01E889F98982E08083211581EE3807C5
:100350004105510581F160E079E08DE390E00E9474
:100360006218215031094109510956954795379531
:100370002795EC85FD851082EE85FF852083188EFC
:10038000EC89FD8986E08083EA89FB898081806130
:100390008083EA89FB89808188608083EA89FB8980
:1003A000808180688083EA89FB8980818F7D80835A
:1003B000DF91CF910895E889F989108220E1D9CFA2
:1003C000FC018081803378F42FB7F89490E0FC0131
:1003D000EE0FFF1FE80FF91FE258FC4F84EB9BE084
:1003E000928381832FBF0895482F181634F52091EA
:1003F0002C0330912D038A3079F4C9010196260F20
:10040000371FF9014083680F791FFB01108210929A
:100410002D0310922C0308952331310574F4C90182
:10042000019690932D0380932C03260F371FF9011B
:100430004083680F791FFB01108290E080E00895EF
:100440008150823108F05AC0E82FF0E08827E45D3F
:10045000FD4F8F4F0C949F184C0250023E024402F5
:1004600048027E02530259025D02630267026B0278
:10047000710275027E0279027F0283028091800000
:100480008F77809380000895809180008F7DF9CFD1
:1004900080918000877FF5CF84B58F7784BD0895E4
:1004A00084B58F7DFBCF8091B0008F778093B000B3
:1004B00008958091B0008F7DF9CF809190008F7763
:1004C000809390000895809190008F7DF9CF809166
:1004D0009000877FF5CF8091A0008F778093A00058
:1004E00008958091A0008F7DF9CF8091A000877F33
:1004F000F5CF809120018F7780932001089580911E
:1005000020018F7DF9CF80912001877FF5CFCF9398
:10051000DF93282F30E0F901E657FD4F8491F90170
:10052000EC5BFD4FD491F901E250FE4FC491CC2316
:10053000A1F081110E942002EC2FF0E0EE0FFF1FCE
:10054000EC51FE4FA591B491EC91ED2381E090E048
:1005500009F480E0DF91CF91089580E090E0FACF38
:100560001F93CF93DF93282F30E0F901E657FD4F1B
:100570008491F901EC5BFD4FD491F901E250FE4FFB
:10058000C491CC23A9F0162F81110E942002EC2FD8
:10059000F0E0EE0FFF1FE653FE4FA591B4918FB729
:1005A000F894EC91111108C0D095DE23DC938FBF35
:1005B000DF91CF911F910895DE2BF8CFCF93DF937A
:1005C00090E0FC01EC5BFD4F249182509E4FFC01BA
:1005D00084918823D1F090E0880F991FFC01E055A9
:1005E000FE4FA591B491FC01E653FE4FC591D49105
:1005F000623071F49FB7F8943C91822F80958323E9
:100600008C93E8812E2B28839FBFDF91CF91089593
:100610008FB7F894EC912E2B2C938FBFF6CF982F99
:10062000E82FF0E0E657FD4FE491E150E23108F0A9
:10063000B0C0F0E08827E05EFC4F8F4F0C949F180D
:10064000320337033C0346035003C9035A036203D2
:100650006A0374037E0388039703A103C903AB03F2
:10066000B503BF0384B5806884BD67BD089584B5B4
:10067000806284BD68BD0895809180008068809309
:1006800080007093890060938800089580918000B5
:1006900080628093800070938B0060938A0008953D
:1006A0008091800088608093800070938D006093BB
:1006B0008C0008958091B00080688093B0006093B2
:1006C000B30008958091B00080628093B000609381
:1006D000B40008958091900080688093900070939A
:1006E00099006093980008958091900080628093B3
:1006F000900070939B0060939A0008958091900001
:1007000088608093900070939D0060939C00089592
:100710008091A00080688093A0008091A0008F7BD2
:100720008093A0007093A9006093A8000895809121
:10073000A00080628093A0007093AB006093AA0039
:1007400008958091A00088608093A0007093AD0010
:100750006093AC000895809120018068809320010F
:10076000709329016093280108958091200180628F
:100770008093200170932B0160932A01089580914A
:10078000200188608093200170932D0160932C01DB
:1007900008956038710524F460E0892F0C94B0024C
:1007A00061E0FBCF3FB7F894809128039091290333
:1007B000A0912A03B0912B0326B5A89B05C02F3F1B
:1007C00019F00196A11DB11D3FBFBA2FA92F982F77
:1007D0008827BC01CD01620F711D811D911D42E072
:1007E000660F771F881F991F4A95D1F708958F923A
:1007F0009F92AF92BF92CF92DF92EF92FF924B0106
:100800005C010E94D2036B017C010E94D2036C192F
:100810007D098E099F09683E734081059105A8F303
:1008200021E0821A9108A108B10888EEC80E83E081
:10083000D81EE11CF11C81149104A104B10429F714
:10084000FF90EF90DF90CF90BF90AF909F908F90F0
:10085000089508950895AF92BF92CF92DF92EF92DC
:10086000FF920F931F93CF93DF936C017B018B015A
:10087000040F151FEB015E01AE18BF08C017D107AA
:1008800059F06991D601ED91FC910190F081E02D34
:10089000C6011995892B79F7C501DF91CF911F9179
:1008A0000F91FF90EF90DF90CF90BF90AF900895A1
:1008B000FC01A089B1898C91A689B78982FD0FC0FE
:1008C0009C91818D8F5F8F73228D821749F0A18D4E
:1008D000AE0FBF2FB11D5D969C93818F08958C91B3
:1008E0000895FC01538D448D252F30E0842F90E036
:1008F000821B930B541710F0CF960895019708951B
:10090000FC01918D828D981761F0A28DAE0FBF2FE3
:10091000B11D5D968C91928D9F5F9F73928F90E039
:1009200008958FEF9FEF0895FC01918D828D9817A8
:1009300031F0828DE80FF11D858D90E008958FEFE5
:100940009FEF0895FC01918D228D892F90E0805CAE
:100950009F4F821B91098F73992708958EE094E031
:100960000E94A20421E0892B09F420E0822F08953F
:100970008BEA94E00E94A20421E0892B09F420E094
:10098000822F089588E495E00E94A20421E0892B3B
:1009900009F420E0822F0895FC01A48DA80FB92F3F
:1009A000B11DA35ABF4F2C91848D90E001968F7397
:1009B0009927848FA689B7892C93A089B1898C91B6
:1009C000837080648C93938D848D981306C0028805
:1009D000F389E02D80818F7D80830895EF92FF92CF
:1009E0000F931F93CF93DF93EC0181E0888F9B8D52
:1009F0008C8D98131AC0E889F989808185FF15C00C
:100A00009FB7F894EE89FF896083E889F98980812E
:100A10008370806480839FBF81E090E0DF91CF91FD
:100A20001F910F91FF90EF900895F62E0B8D10E01F
:100A30000F5F1F4F0F731127E02E8C8D8E110CC08E
:100A40000FB607FCFACFE889F989808185FFF5CFD9
:100A5000CE010E94CC04F1CFEB8DEC0FFD2FF11DE8
:100A6000E35AFF4FF0829FB7F8940B8FEA89FB8916
:100A700080818062CFCFCF93DF93EC01888D882374
:100A8000B9F0AA89BB89E889F9898C9185FD03C0F1
:100A9000808186FD0DC00FB607FCF7CF8C9185FFD6
:100AA000F2CF808185FFEDCFCE010E94CC04E9CF4B
:100AB000DF91CF91089580E090E0892B29F00E948A
:100AC000C20481110E94000080E090E0892B29F08F
:100AD0000E94B80481110E94000080E090E0892B00
:100AE00029F00E94AE0481110E94000080E090E095
:100AF000892B49F080E090E0892B29F00E940000CA
:100B000081110C94000008952091CE02260F332706
:100B1000331F21323105ECF420915403FC0190E0A5
:100B200080E0243069F082E00895A091CE02219106
:100B3000AC0142555D4FA40FB52FB11D2C9301960A
:100B4000861798F38091CE02680F6093CE0280E002
:100B5000089581E008951092540381E08093530337
:100B600010922E0361E084E10E94B00261E085E111
:100B70000E94B002E9EBF0E080818E7F808380816B
:100B80008D7F808388E48093B80085E48093BC00E7
:100B90000895CF93DF9391E09093AD028823B9F04D
:100BA000C091B800D091BA008091BC008A7B80933C
:100BB000BC0060E084E10E94B00260E085E10E9438
:100BC000B0020E94AB05D093BA00C093B800DF9189
:100BD000CF9108958F929F92AF92BF92CF92DF9262
:100BE000EF92FF920F931F93CF93DF93D0917D03EA
:100BF000D13208F0D7C0182FC0917C030E94D203D5
:100C00006B017C018091540381116BC082E0809361
:100C10005403109353038FEF8093520310925103A8
:100C2000D0935003ACE5B3E0E0E3F3E080E0D81309
:100C300091C010922F0380912F03CC0FC82BC0932B
:100C40002F0380912E03813009F088C010922E036B
:100C50000E94D2036B017C0180912F038093BB0023
:100C60008091560390915703A0915803B091590376
:100C7000892B8A2B8B2BA1F00E94D2030091560363
:100C80001091570320915803309159036C197D0935
:100C90008E099F09061717072807390708F442C06D
:100CA0008091BC0083FDD8CF85EC8093BC000E946E
:100CB000D2036B017C0180915403823009F450C04F
:100CC000809152038F3F09F46FC0809152038032AC
:100CD00009F46CC080915203803309F469C084E048
:100CE00026C08091560390915703A0915803B0916C
:100CF0005903892B8A2B8B2B09F484CF0E94D203B2
:100D00008090560390905703A0905803B0905903D9
:100D10006C197D098E099F0986169706A806B906E3
:100D200008F070CF809155030E94C90585E01092AC
:100D30005B0310927D0310925A03DF91CF911F91B4
:100D40000F91FF90EF90DF90CF90BF90AF909F906A
:100D50008F9008959D9191938F5F69CF85EEA5CF78
:100D60008091560390915703A0915803B091590375
:100D7000892B8A2B8B2B09F49ECF0E94D2030091E2
:100D800056031091570320915803309159036C1961
:100D90007D098E099F09061717072807390708F0EC
:100DA0008ACFC0CF81E0C3CF80E0C1CF82E0BFCF88
:100DB00083E0BDCF0895E091F6028091F502E81737
:100DC00030F4F0E0E950FD4F808190E008958FEF1E
:100DD0009FEF08959091F6028091F5022FEF3FEF7B
:100DE000981748F4E92FF0E0E950FD4F208130E0FA
:100DF0009F5F9093F602C90108958091F50290914A
:100E0000F602891B990B0895CF92DF92EF92FF9221
:100E10000F931F93CF93DF937C01CB018A01209125
:100E20005A03222389F0EB016B01C40ED51ECC15A9
:100E3000DD0569F06991D701ED91FC910190F08198
:100E4000E02DC7011995F3CF642F0E948405C801D6
:100E5000DF91CF911F910F91FF90EF90DF90CF9096
:100E60000895CF93DF931F92CDB7DEB769832091AA
:100E70005A032223F9F020917D03203258F021E01B
:100E800030E0FC013383228390E080E00F90DF911B
:100E9000CF91089580915B03E82FF0E0E45AFC4F76
:100EA000998190838F5F80935B0380937D0381E0C2
:100EB00090E0ECCF61E0CE0101960E948405F7CF6F
:100EC00090E080E008951F93CF93DF93EC01162FFD
:100ED0008881803308F04EC061E0812F0E94DE02DD
:100EE0008881282F30E0F901EE0FFF1FE20FF31F7A
:100EF000E258FC4F1F736081607C612B6083198214
:100F00001A822CE0622F0E949318829FB001112454
:100F100030E020E0AB01420F531FFA01EE0FFF1F3C
:100F2000E40FF51FE258FC4F908196FD16C02F5F2D
:100F30003F4F2C30310571F7813009F51092800058
:100F400082E0809381001092850010928400B19A13
:100F500080916F00826080936F00E8818E2F90E017
:100F6000FC01EE0FFF1FE80FF91FE258FC4F8081D4
:100F7000806480838881DF91CF911F9108958230B2
:100F800061F410929000809391001092950010925D
:100F9000940088BB80937100E0CF833069F4109295
:100FA000A00082E08093A1001092A5001092A400FE
:100FB00089BB80937200D1CF8111CFCF10922001D5
:100FC00082E08093210110922501109224018ABBB6
:100FD00080937300C2CFAF92BF92CF92DF92EF9215
:100FE000FF920F931F93CF93DF936B017A01EC0174
:100FF000C855DD4F28813CE0389F8001399F100D96
:101000001124A090AC02B12C27FF1FC0FB0111825C
:10101000108288818F5F888388819801280F311D15
:1010200087FD3A95F6012A153B051CF488818C3022
:10103000C4F180819181049680349C4908F473C086
:10104000F60180819181049670C088819801280FF3
:10105000311D87FD3A952A153B05DCF68881A801EC
:10106000480F511D87FD5A95FA01EE0FFF1FE40F3F
:10107000F51FE258FC4F808186FFCBCF8881F801B5
:10108000E80FF11D87FDFA95CF01EE0FFF1FE80F66
:10109000F91FE258FC4F808160E08F730E94B0021C
:1010A000B8CF808191812881A801420F511D27FD71
:1010B0005A959A01FA01EE0FFF1FE20FF31FE25853
:1010C000FC4F21813281820F931FF701918380832E
:1010D00088819801280F311D87FD3A95F901EE0F9F
:1010E000FF1FE20FF31FE258FC4F808186FF22C0F2
:1010F0008881080F111D87FD1A95F801EE0FFF1F5B
:10110000E00FF11FE258FC4F808161E08F73DF91A7
:10111000CF911F910F91FF90EF90DF90CF90BF90F4
:10112000AF900C94B00280E49CE9F7019183808336
:101130008FEF8883DF91CF911F910F91FF90EF90F8
:10114000DF90CF90BF90AF900895680F791FFC019A
:101150001192CF01E617F707D1F7089561E08BE010
:101160000E94DE0260E08BE00E94B00261E08CE051
:101170000E94DE0260E08CE00C94B002FB01019062
:101180000020E9F73197AF01461B570B0C942B0455
:101190008F929F92AF92BF920F931F93CF93DF9343
:1011A000CDB7DEB7A1970FB6F894DEBF0FBECDBFA7
:1011B00019A2423008F44AE08E010F5D1F4F842EC1
:1011C000912CB12CA12CA50194010E946218E62F4C
:1011D000B901CA01EA3004F5E05DD801EE938D0152
:1011E000232B242B252B79F790E080E0109729F012
:1011F000BD0188E495E00E94BE08A1960FB6F89460
:10120000DEBF0FBECDBFDF91CF911F910F91BF9079
:10121000AF909F908F900895E95CDFCFCF92DF92DF
:10122000EF92FF926B017C0162E372E088E495E04B
:101230000E94BE084AE0C701B6010E94C8086CE3DC
:1012400072E088E495E0FF90EF90DF90CF900C94EF
:10125000BE088F929F92AF92BF92CF92DF92EF9291
:10126000FF926B017C0162E372E088E495E00E94EA
:10127000BE08A7019601C701B6010E94C1196FE31C
:1012800072E081111AC046015701E894B7F82FEFB8
:101290003FEF4FE75FE7C501B4010E94C11981111B
:1012A0001EC02FEF3FEF4FE75FE7C501B4010E947B
:1012B00014171816A4F463E472E088E495E00E9421
:1012C000BE086CE372E088E495E0FF90EF90DF9059
:1012D000CF90BF90AF909F908F900C94BE082FEF4F
:1012E0003FEF4FE75FE4C701B6010E94BC19181633
:1012F0001CF467E472E0E1CF2FEF3FEF4FE75FECC4
:10130000C701B6010E94141787FDF3CF20E030E03B
:10131000A901C701B6010E94141787FF09C06DE239
:1013200088E495E00E94EE04F7FAF094F7F8F09460
:101330002AE037ED43EA5BE3C701B6010E94AF182C
:101340004B015C010E948D196B017C010E941917F1
:101350009B01AC01C501B4010E94AE184B015C01B8
:101360004AE0C701B6010E94C8086EE288E495E031
:101370000E94EE0420E030E040E251E4C501B401F7
:101380000E947A174B015C010E948D196B01F12CB0
:10139000E12C4AE0C701B6010E94C808C701B601A6
:1013A0000E9419179B01AC01C501B4010E94AE183F
:1013B00020E030E040E251E40E947A170E948D194B
:1013C00090E080E04AE00E94C8087BCFCF93DF9393
:1013D000EC0162E372E088E495E00E94BE08BE0181
:1013E000DD0F880B990B4AE00E94C8086CE372E09D
:1013F00088E495E0DF91CF910C94BE08CF93DF9302
:10140000EC0162E372E088E495E00E94BE08BE0150
:1014100088E495E00E94BE086CE372E088E495E001
:10142000DF91CF910C94BE088BE492E00E94FE09FC
:101430008AE496E00E94E00187E496E00E94E001E1
:1014400084E496E00E94E00181E496E00C94E001DF
:101450008EE492E00E94FE0987E30E948702892BB6
:1014600091F461E08BE00E94DE0260E08BE00E947C
:10147000B00261E08CE00E94DE0268EC70E08CE07B
:101480000E940F03E9CF0C94AE0886E592E00E941B
:10149000FE0986E30E948702019791F461E08BE0E8
:1014A0000E94DE0268EC70E08BE00E940F0361E0B6
:1014B0008CE00E94DE0260E08CE00E94B002E9CF86
:1014C0000C94AE08FC0180819181009711F00C947E
:1014D000D81660E070E0CB010895FC018081918115
:1014E000009711F00C94621A0895EF92FF920F93F7
:1014F0001F93CF93DF93EC017B01198218821B822B
:101500001A821D821C82FB0101900020E9F73197AD
:101510008F01061B170BB8016F5F7F4F90E080E0D3
:101520000E94EB1A0097B9F0998388831B830A8382
:101530002C813D81232B11F4FC0110821D830C832F
:10154000B70188819981DF91CF911F910F91FF9011
:10155000EF900C94D51B88819981009711F00E941F
:10156000621A198218821D821C821B821A82DF91E4
:10157000CF911F910F91FF90EF90089585ED80938B
:10158000BC008091560390915703A0915803B091ED
:1015900059030796A11DB11D23E0B695A795979510
:1015A00087952A95D1F72091BC0024FD03C01092A5
:1015B0005403089540915603509157036091580386
:1015C00070915903452B462B472B69F30097A105D2
:1015D000B10541F025E32A95F1F700000197A10933
:1015E000B109E1CF809155030C94C9051F920F9268
:1015F0000FB60F9211242F933F938F939F93AF9326
:10160000BF938091F1059091F205A091F305B091FF
:10161000F4053091270323E0230F2D3758F5019669
:10162000A11DB11D209327038093F1059093F2052E
:10163000A093F305B093F4058091280390912903BA
:10164000A0912A03B0912B030196A11DB11D809397
:10165000280390932903A0932A03B0932B03BF91EF
:10166000AF919F918F913F912F910F900FBE0F904F
:101670001F90189526E8230F0296A11DB11DD2CF09
:101680001F920F920FB60F9211240BB60F922F9349
:101690003F934F935F936F937F938F939F93AF93FA
:1016A000BF93EF93FF938EE094E00E94CC04FF91F0
:1016B000EF91BF91AF919F918F917F916F915F91CA
:1016C0004F913F912F910F900BBE0F900FBE0F9037
:1016D0001F9018951F920F920FB60F9211240BB600
:1016E0000F922F933F934F935F936F937F938F93BB
:1016F0009F93AF93BF93EF93FF938EE094E00E948C
:101700005804FF91EF91BF91AF919F918F917F917D
:101710006F915F914F913F912F910F900BBE0F9062
:101720000FBE0F901F9018951F920F920FB60F9239
:1017300011240BB60F922F933F934F935F936F93A8
:101740007F938F939F93AF93BF93EF93FF938BEA16
:1017500094E00E94CC04FF91EF91BF91AF919F91D3
:101760008F917F916F915F914F913F912F910F904A
:101770000BBE0F900FBE0F901F9018951F920F92E7
:101780000FB60F9211240BB60F922F933F934F93E6
:101790005F936F937F938F939F93AF93BF93EF93D9
:1017A000FF938BEA94E00E945804FF91EF91BF9160
:1017B000AF919F918F917F916F915F914F913F91E9
:1017C0002F910F900BBE0F900FBE0F901F9018958A
:1017D0001F920F920FB60F9211240BB60F922F93F8
:1017E0003F934F935F936F937F938F939F93AF93A9
:1017F000BF93EF93FF9388E495E00E94CC04FF91A0
:10180000EF91BF91AF919F918F917F916F915F9178
:101810004F913F912F910F900BBE0F900FBE0F90E5
:101820001F9018951F920F920FB60F9211240BB6AE
:101830000F922F933F934F935F936F937F938F9369
:101840009F93AF93BF93EF93FF9388E495E00E943B
:101850005804FF91EF91BF91AF919F918F917F912C
:101860006F915F914F913F912F910F900BBE0F9011
:101870000FBE0F901F9018951F920F920FB60F92E8
:1018800011240BB60F922F933F934F935F936F9357
:101890007F938F939F93AF93BF93EF93FF93809129
:1018A000B900887F803609F44DC008F040C0883206
:1018B00009F4A9C028F5803109F49DC0C8F4882333
:1018C00009F4FBC0883009F496C0FF91EF91BF91F5
:1018D000AF919F918F917F916F915F914F913F91C8
:1018E0002F910F900BBE0F900FBE0F901F90189569
:1018F000883109F488C0803241F78093520314C0C4
:10190000803409F49DC040F48033B9F38833E9F69C
:101910008093520385ECB0C0803509F485C08835CA
:1019200009F496C0883489F60E94BE0ACECF883961
:1019300009F48CC038F5883729F050F4883611F056
:10194000803719F683E0809354031092F00257C059
:10195000883809F47BC0803919F0803809F0B5CF98
:101960008091F002803208F071C0E091F00281E0D5
:101970008E0F8093F0028091BB00F0E0E053FD4FAA
:1019800080833DC0803B39F0E0F4803A09F479C0AF
:10199000883A09F09ACF84E0809354031092CF02E2
:1019A0001092CE02E091F302F091F4021995809129
:1019B000CE0281110FC081E08093CE021092AE0260
:1019C00009C0803C09F4A6CF883C09F4A3CF883B2A
:1019D00009F07BCFE091CF0281E08E0F8093CF02A0
:1019E000F0E0E255FD4F80818093BB009091CF02E3
:1019F0008091CE0229C080912F038093BB0085EC9B
:101A00008093BC0062CF909151038091500398174E
:101A100058F5E091510381E08E0F80935103F0E07F
:101A2000E05DFC4F8081E9CFE091510381E08E0FB2
:101A3000809351038091BB00F0E0E05DFC4F808318
:101A400090915103809150039817C8F285E8D8CF40
:101A5000E091510381E08E0F809351038091BB0090
:101A6000F0E0E05DFC4F80838091530381115CCFF7
:101A700081E080932E0384EA8093BC00109254038B
:101A800024CF85EC8093BC00109254038091F00227
:101A9000803230F4E091F002F0E0E053FD4F10822C
:101AA0006091F00270E0E091F102F091F20280EDBD
:101AB00092E019951092F00208CF1092520334CFA1
:101AC0001F920F920FB60F9211240BB60F922F9305
:101AD0003F934F935F936F937F938F939F93AF93B6
:101AE000BF93EF93FF9348E251E064E271E090E02E
:101AF00080E00E94EB07FF91EF91BF91AF919F9122
:101B00008F917F916F915F914F913F912F910F90A6
:101B10000BBE0F900FBE0F901F9018951F920F9243
:101B20000FB60F9211240BB60F922F933F934F9342
:101B30005F936F937F938F939F93AF93BF93EF9335
:101B4000FF9348EA50E064EA70E083E090E00E948E
:101B5000EB07FF91EF91BF91AF919F918F917F9193
:101B60006F915F914F913F912F910F900BBE0F900E
:101B70000FBE0F901F9018951F920F920FB60F92E5
:101B800011240BB60F922F933F934F935F936F9354
:101B90007F938F939F93AF93BF93EF93FF9348E906
:101BA00050E064E970E082E090E00E94EB07FF9172
:101BB000EF91BF91AF919F918F917F916F915F91C5
:101BC0004F913F912F910F900BBE0F900FBE0F9032
:101BD0001F9018951F920F920FB60F9211240BB6FB
:101BE0000F922F933F934F935F936F937F938F93B6
:101BF0009F93AF93BF93EF93FF9348E850E064E85F
:101C000070E081E090E00E94EB07FF91EF91BF91BF
:101C1000AF919F918F917F916F915F914F913F9184
:101C20002F910F900BBE0F900FBE0F901F90189525
:101C3000FC019091AC02903398F481E0890F80937D
:101C4000AC029083892F90E0FC01EE0FFF1FE80F9C
:101C5000F91FE258FC4F88EB9BE092838183089543
:101C60008FEF808308954F925F926F927F928F9251
:101C70009F92AF92BF92CF92DF92EF92FF92CF935B
:101C8000DF93109211041092100488EE93E0A0E00C
:101C9000B0E08093120490931304A0931404B093C3
:101CA000150422E132E030930F0420930E0445ED39
:101CB00050E050931B0440931A0444ED50E05093BD
:101CC0001D0440931C0440ED50E050931F044093CA
:101CD0001E0441ED50E0509321044093200442ED56
:101CE00050E0509323044093220446ED50E050937B
:101CF0002504409324041092270410922804109283
:101D0000290410922A041092AE041092AD0480931C
:101D1000AF049093B004A093B104B093B204309395
:101D2000AC042093AB044DEC50E05093B8044093C6
:101D3000B7044CEC50E05093BA044093B90448EC1B
:101D400050E05093BC044093BB0449EC50E05093E6
:101D5000BE044093BD044AEC50E05093C00440934D
:101D6000BF044EEC50E05093C2044093C104109263
:101D7000C4041092C5041092C6041092C7041092B5
:101D80004B0510924A0580934C0590934D05A09306
:101D90004E05B0934F05309349052093480525EC37
:101DA00030E0309355052093540524EC30E0309317
:101DB00057052093560520EC30E0309359052093C9
:101DC000580521EC30E030935B0520935A0522EC56
:101DD00030E030935D0520935C0526EC30E03093D5
:101DE0005F0520935E0510926105109262051092C6
:101DF0006305109264051092E8051092E705809340
:101E0000E9059093EA05A093EB05B093EC0584E215
:101E100092E09093E6058093E50580E090EAA0E8E3
:101E2000B4E48093710690937206A0937306B09306
:101E300074068DE496E00E94180E8AE496E00E94F3
:101E4000180E87E496E00E94180E84E496E00E9443
:101E5000180E81E496E00E94180EC0900402D09003
:101E60000502E0900602F090070280903D069090F7
:101E70003E06A0903F06B090400640900002509071
:101E80000102609002027090030289EF95E0909346
:101E9000200680931F068DEF95E090931E06809399
:101EA0001D0685EF95E090932206809321061092FF
:101EB0003B061092330610923406109235061092AB
:101EC000360680E090E0AFE7B3E480933706909366
:101ED0003806A0933906B0933A0684E690E0A0E075
:101EE000B0E080932F0690933006A0933106B09314
:101EF0003206C1E0D0E0D0931A06C093190620E064
:101F000030E0A901C301B2010E94141787FD6EC021
:101F100020E030E0A901C501B4010E94141787FD3B
:101F200065C020E030E0A901C701B6010E94141786
:101F300087FD5CC0D0931C06C0931B0681E0809394
:101F40003C0640920106509202066092030670928F
:101F500004068092050690920606A0920706B092AB
:101F60000806C0920906D0920A06E0920B06F0928B
:101F70000C06A301920160E070E0CB010E94AE1854
:101F800060930D0670930E0680930F0690931006D3
:101F90002DEC3CEC4CEC5DE3C501B4010E947A17DA
:101FA0009B01AC0160E070E0CB010E94AE18609331
:101FB00011067093120680931306909314062DEC6D
:101FC0003CEC4CEC5DE3C701B6010E941B199B0180
:101FD000AC0160E070E0CB010E94AE186093150682
:101FE0007093160680931706909318062FB7F894EF
:101FF0008091F1059091F205A091F305B091F4055F
:102000002FBF40912F06509130066091310670919C
:102010003206841B950BA60BB70B80932306909377
:102020002406A0932506B0932606DF91CF91FF905A
:10203000EF90DF90CF90BF90AF909F908F907F9068
:102040006F905F904F900895CF93DF93CDB7DEB739
:10205000A3970FB6F894DEBF0FBECDBF789484B5BA
:10206000826084BD84B5816084BD85B5826085BD94
:1020700085B5816085BD80916E00816080936E0022
:102080001092810080918100826080938100809114
:1020900081008160809381008091800081608093C5
:1020A00080008091B10084608093B1008091B00085
:1020B00081608093B0008091910082608093910054
:1020C0008091910081608093910080919000816067
:1020D000809390008091A10082608093A100809104
:1020E000A10081608093A1008091A0008160809315
:1020F000A0008091210182608093210180912101C3
:102100008160809321018091200181608093200172
:1021100080917A00846080937A0080917A00826056
:1021200080937A0080917A00816080937A00809118
:102130007A00806880937A001092C10061E08DE09F
:102140000E94DE0261E08DE00E94B00262E086E360
:102150000E94DE0262E087E30E94DE0261E08AE024
:102160000E94DE0261E084E00E94DE0261E08BE01A
:102170000E94DE0261E08CE00E94DE0240E052EC50
:1021800061E070E088E495E00E949C0140E855E23F
:1021900060E070E08BEA94E00E949C0140E052EC29
:1021A00061E070E08EE094E00E949C011092F602E3
:1021B0001092F50210925B0310927D030E94AB0512
:1021C00089E294E09093F4028093F3028AE294E02F
:1021D0009093F2028093F10281E080935A0386E7A4
:1021E00080937C036EE185EE95E00E94310781E0EB
:1021F0000E94EA056AE070E080E090E00E94F70348
:10220000F0E5CF2EF6E0DF2E00EA11E0A6E72A2E59
:1022100033243A94B5EE8B2E85EC982E10935A0306
:1022200020927C0310925B0310927D03602F85EE59
:1022300095E00E94310781E00E94EA050E94D203E6
:102240002B013C0180915403811161C01093540310
:102250001093530330925203109251031093500382
:1022600010932F0380912F038C6E80932F03809106
:102270002E03813009F048C110922E030E94D20330
:102280002B013C0180912F038093BB00809156036A
:1022900090915703A0915803B0915903892B8A2B31
:1022A0008B2BA1F00E94D20320915603309157034B
:1022B000409158035091590364197509860997098B
:1022C000261737074807590708F442C08091BC0019
:1022D00083FDD8CF9092BC000E94D2032B013C0119
:1022E00080915403813009F412C1809151038230EE
:1022F00008F02FC180915103E0E3F3E0A7EFB2E0D3
:1023000090E0981751F121912D939F5FFACF809122
:10231000560390915703A0915803B0915903892B0C
:102320008A2B8B2B09F48ECF0E94D2032091560367
:10233000309157034091580350915903641975091E
:1023400086099709261737074807590708F07ACFF3
:10235000809155030E94C90580E01092F602809397
:10236000F50285EE95E00E94EA06782E85EE95E06E
:102370000E94EA06A12C8A299729D6018D939D9364
:102380006D010E5F0E3A09F049CF80915006909191
:102390005106592F52955F709F709093510680930C
:1023A000500610925F0610925E0630E020E090E04A
:1023B00080E0F901EE7FE05BF94F6081418120FF11
:1023C000CAC0862748E0BC01880F991F77FF02C06A
:1023D000B0E39B274150B9F72F5F3F4F20313105C4
:1023E00041F7892F82958F705813B9C08DE592E01F
:1023F0000E94FE0964E670E080E090E00E94F7032E
:102400001092700680E090E4A9E7B4E4809371062E
:1024100090937206A0937306B093740661E084E013
:102420000E94B0020E94450A0E94280A0E94450AA2
:102430008EE792E00E94FE0967E070E08AE496E091
:102440000E94630768E070E087E496E00E946307FB
:1024500066E070E084E496E00E94630769E070E063
:1024600081E496E00E94630764EF71E080E090E011
:102470000E94F7030E94140A64EF71E080E090E08C
:102480000E94F7038BE892E00E94FE0980913B06D0
:1024900000911F0610912006811176C0F801C080BE
:1024A000D180E280F380C0922706D0922806E09285
:1024B0002906F0922A06E0911D06F0911E06808101
:1024C0009181A281B38180932B0690932C06A093D7
:1024D0002D06B0932E068090370690903806A09077
:1024E0003906B0903A06A5019401C701B6010E94D1
:1024F000BC191816CCF58092270690922806A09257
:102500002906B0922A0640C08092BC00E5CE809198
:10251000560390915703A0915803B0915903892B0A
:102520008A2B8B2B09F4DCCE0E94D2032091560318
:10253000309157034091580350915903641975091C
:1025400086099709261737074807590708F0C8CEA4
:10255000FFCE82E0D1CEF12C84279F2533CF8AE6AF
:1025600092E00E94FE095ACF809033069090340684
:10257000A0903506B0903606A5019401C701B601BA
:102580000E94141787FDB7CF81E080933B06C12CD2
:10259000D12C9AEFE92E93ECF92EC0923306D0920B
:1025A0003406E0923506F0923606412C512C2AEF83
:1025B000622E23E4722E40923706509238066092C3
:1025C000390670923A06D8018D909D90AD90BC90DE
:1025D000A3019201C501B4010E94BC19181634F57B
:1025E000F801408251826282738280902706909027
:1025F0002806A0902906B0902A06C0903706D090F1
:102600003806E0903906F0903A06A7019601C50118
:10261000B4010E94BC191816D4F4C0922706D092B7
:102620002806E0922906F0922A0621C020E030E038
:102630004AEF53ECC501B4010E94141787FFD5CFB0
:10264000D801CD92DD92ED92FC921397CECFC0903F
:102650003306D0903406E0903506F0903606A70198
:102660009601C501B4010E94141787FDD6CF83E9F6
:1026700092E00E94FE0960E08DE00E94B00285E0D9
:10268000282E8E01055E1F4F3324339488E495E095
:102690000E948004BE016F5F7F4F0E94F4011816F4
:1026A00019060CF06BC1CE0101960E94FE098981CA
:1026B000803709F090C1F801222D11922A95E9F78F
:1026C000DE0112966801F8017F01E01AF10A8D918E
:1026D000893611F08193F8CFB801CE0145960E945A
:1026E000750ACE0145960E94620A0E941B1720E0DF
:1026F00030E048EC52E40E941B1960930002709392
:10270000010280930202909303020E942909CE01E4
:1027100045960E946D0A65E070E0C8010E94A50818
:10272000F701329681E090E08C0F9D1FE80FF91FB2
:10273000D801C701801B910B7C01EA0EFB1E219181
:10274000243611F02D93F8CFB801CE0145960E94A2
:10275000750ACE0145960E94620A0E941B1720E06E
:1027600030E048EC52E40E941B1960933D067093E0
:102770003E0680933F06909340060E942909CE01B1
:1027800045960E946D0A65E070E0C8010E94A508A8
:1027900093E0E90EF11CE1E0F0E0EC0FFD1FEE0D1F
:1027A000FF1D8191853621F0D6018D936D01F9CF02
:1027B000B801CE0145960E94750ACE0145960E9449
:1027C000620A0E941B1720E030E048EC52E40E94AD
:1027D0001B19609304027093050280930602909384
:1027E00007020E942909CE0145960E946D0A409079
:1027F000000250900102609002027090030220E0FB
:1028000030E0A901C301B2010E94141787FDB6C0D0
:1028100080903D0690903E06A0903F06B090400606
:1028200020E030E0A901C501B4010E94141787FD22
:10283000A5C0C0900402D0900502E0900602F0907E
:10284000070220E030E0A901C701B6010E94141779
:1028500087FD94C081E020911B0630911C06213039
:10286000310509F080E080933C06409201065092C9
:10287000020660920306709204068092050690920A
:102880000606A0920706B0920806C0920906D092EA
:102890000A06E0920B06F0920C0660912F067091EA
:1028A000300680913106909132060E94191720E07F
:1028B00030E04AE754E40E941B1968A379A38AA375
:1028C0009BA340920D0650920E0660920F067092E6
:1028D00010069B01AC01C501B4010E947A174B019F
:1028E0005C018092110690921206A0921306B0929B
:1028F000140628A139A14AA15BA1C701B6010E9413
:102900001B196B017C01C0921506D0921606E0924D
:102910001706F09218068091190690911A060197F1
:1029200069F5A301920160E070E0CB010E94AE184E
:1029300060930D0670930E0680930F069093100619
:10294000A501940160E070E0CB010E94AE18609395
:102950001106709312068093130690931406A70134
:10296000960160E070E0CB010E94AE1860931506FE
:102970007093160680931706909318068BEA94E0DE
:102980000E948004BE016F5F7F4F0E94F401181601
:1029900019060CF0CCC0CE0101960E94FE09898177
:1029A000833709F0C4C08A81843709F0EEC01B8EDA
:1029B0001C8E1D8E1E8EDE0113967E01EBE1EE0E47
:1029C000F11CF70147016F01CE18DF088D918936A0
:1029D00059F18193F8CF833789F61B8E1C8E1D8E9B
:1029E0001E8EDE011296FE017B96BF018D9185360B
:1029F00011F08193FBCFCE0145960E94750ACE015E
:102A000045960E94620A0E941B176093F505709319
:102A1000F6058093F7059093F8050E942909CE01E9
:102A200045960E946D0AAACFB701CE0145960E9435
:102A3000750ACE0145960E94620A9B01AC01A8EE80
:102A4000B3E00E94571860931703709318038093A4
:102A5000190390931A030E940E09CE0145960E9415
:102A60006D0A64E070E0C7010E94A508F601339684
:102A700021E030E02C0F3D1FE20FF31FD701CE18ED
:102A8000DF085601AA0EBB1E8191843611F08D938A
:102A9000F8CFB701CE0145960E94750ACE01459642
:102AA0000E94620A609321037093220380932303A0
:102AB000909324030E940E09CE0145960E946D0A50
:102AC00064E070E0C7010E94A50834E0A30EB11CC9
:102AD000E1E0F0E0EC0FFD1FEA0DFB1D8191853672
:102AE00021F0D7018D937D01F9CFB401CE01459638
:102AF0000E94750ACE0145960E94620A0E941B1729
:102B000020E030E0A9010E94AF186093F5057093B2
:102B1000F6058093F7059093F8050E942909CE01E8
:102B200045960E946D0A30922603309220038091D0
:102B30002603882339F180912503882319F1809198
:102B4000210390912203A0912303B0912403892BA8
:102B50008A2B8B2B09F0BEC01092260310922503FE
:102B60001092200310921F030E94450A65EA72E04A
:102B70008BEA94E00E94BE086CE372E08BEA94E07A
:102B80000E94BE080E945B0581CD803709F097C086
:102B90001B8E1C8E1D8E1E8EDE011396F8017F018A
:102BA000E01AF10A8D91843711F08193F8CFB801C2
:102BB000CE0145960E94750ACE0145960E94620A92
:102BC000DB0124EF31E00E94A71824E630E040E06A
:102BD00050E00E943818C901253F314014F084EFBD
:102BE00091E097FF02C090E080E00E94E609CE01EC
:102BF00045960E946D0A64E070E0C8010E94A50835
:102C0000F701339621E030E02C0F3D1FE20FF31F58
:102C1000D801E01AF10A6701CA0EDB1E81918536E0
:102C200011F08D93F8CFB801CE0145960E94750A38
:102C3000CE0145960E94620A6B30710514F06AE07D
:102C400070E077FF02C070E060E0A8EEB3E06A9F3A
:102C5000C0016B9F900D7A9F900D11240E94E60990
:102C6000CE0145960E946D0AE5E0F0E0EC0FFD1FF5
:102C7000EC0DFD1D80818536F9F03CF48136B1F014
:102C80008436B9F00E94140A52CF833761F0873737
:102C900029F08137B9F78FE992E002C08BE992E021
:102CA0000E94FE0944CF8DE992E0FACF80EA92E0DB
:102CB000F7CF83EA92E0F4CF82EA92E0F1CF833754
:102CC00009F035CF80912603882309F430CF309264
:102CD00025032DCF809120038823A9F02FB7F894E6
:102CE0008091F1059091F205A091F305B091F40562
:102CF0002FBF80931B0390931C03A0931D03B093DD
:102D00001E03109220034091170350911803609105
:102D1000190370911A038FB7F894C090F105D09001
:102D2000F205E090F305F090F4058FBF80911B034E
:102D300090911C03A0911D03B0911E03840F951F59
:102D4000A61FB71F20911F03C816D906EA06FB0667
:102D500098F030922003822F832580931F038111E6
:102D600013C06091210370912203809123039091FD
:102D700024030E940E0906CF222319F00E94450A5F
:102D800001CF0E94280AFECE809121039091220358
:102D9000A0912303B09124030197A109B109809365
:102DA000210390932203A0932303B0932403D9CF4C
:102DB0001F93FC0199278827BC01E89411911032D8
:102DC000E9F3193010F01E30C8F31B3251F01D32F8
:102DD00049F4689406C00E94FF16610F711D811DA1
:102DE000911D119110531A30B0F33EF490958095D7
:102DF000709561957F4F8F4F9F4F1F910895592F69
:102E0000482F372F262F660F771F881F991F660FB1
:102E1000771F881F991F620F731F841F951F660FEE
:102E2000771F881F991F08950E94561708F481E0A4
:102E30000895E89409C097FB3EF4909580957095AD
:102E400061957F4F8F4F9F4F9923A9F0F92F96E9F6
:102E5000BB279395F695879577956795B795F1116B
:102E6000F8CFFAF4BB0F11F460FF1BC06F5F7F4F08
:102E70008F4F9F4F16C0882311F096E911C077231A
:102E800021F09EE8872F762F05C0662371F096E823
:102E9000862F70E060E02AF09A95660F771F881FF2
:102EA000DAF7880F9695879597F90895990F000896
:102EB000550FAA0BE0E8FEEF16161706E807F9070C
:102EC000C0F012161306E407F50798F0621B730BA7
:102ED000840B950B39F40A2661F0232B242B252B28
:102EE00021F408950A2609F4A140A6958FEF811DCB
:102EF000811D08950E948D170C94FE170E94F017F3
:102F000038F00E94F71720F0952311F00C94E71782
:102F10000C94ED1711240C9432180E940F1870F3C2
:102F2000959FC1F3950F50E0551F629FF001729F6E
:102F3000BB27F00DB11D639FAA27F00DB11DAA1F7D
:102F4000649F6627B00DA11D661F829F2227B00DCA
:102F5000A11D621F739FB00DA11D621F839FA00D55
:102F6000611D221F749F3327A00D611D231F849FA5
:102F7000600D211D822F762F6A2F11249F575040FC
:102F80009AF0F1F088234AF0EE0FFF1FBB1F661F77
:102F9000771F881F91505040A9F79E3F510580F040
:102FA0000C94E7170C9432185F3FE4F3983ED4F387
:102FB000869577956795B795F795E7959F5FC1F7E4
:102FC000FE2B880F911D9695879597F9089597F98F
:102FD0009F6780E870E060E008959FEF80EC0895BF
:102FE00000240A94161617061806090608950024E8
:102FF0000A9412161306140605060895092E039462
:10300000000C11F4882352F0BB0F40F4BF2B11F4D5
:1030100060FF04C06F5F7F4F8F4F9F4F089557FD34
:103020009058440F551F59F05F3F71F04795880F36
:1030300097FB991F61F09F3F79F0879508951216CD
:1030400013061406551FF2CF4695F1DF08C0161679
:1030500017061806991FF1CF86957105610508942A
:103060000895E894BB2766277727CB0197F9089541
:10307000052E97FB1EF400940E944F1857FD07D0B1
:103080000E94621807FC03D04EF40C944F18509520
:103090004095309521953F4F4F4F5F4F0895909544
:1030A0008095709561957F4F8F4F9F4F08950E9437
:1030B0008418A59F900DB49F900DA49F800D911D25
:1030C00011240895A1E21A2EAA1BBB1BFD010DC0FD
:1030D000AA1FBB1FEE1FFF1FA217B307E407F507C8
:1030E00020F0A21BB30BE40BF50B661F771F881FA4
:1030F000991F1A9469F760957095809590959B013A
:10310000AC01BD01CF010895A29FB001B39FC001E2
:10311000A39F700D811D1124911DB29F700D811D03
:103120001124911D0895991B79E004C0991F9617E9
:1031300008F0961B881F7A95C9F780950895EE0FC1
:10314000FF1F881F8BBF0790F691E02D19940E94F6
:103150008418B7FF0895821B930B08955058BB271E
:10316000AA270E94C6180C94FE170E94F01738F088
:103170000E94F71720F039F49F3F19F426F40C94BD
:10318000ED170EF4E095E7FB0C94E717E92F0E948A
:103190000F1858F3BA17620773078407950720F0D2
:1031A00079F4A6F50C9431180EF4E0950B2EBA2F95
:1031B000A02D0B01B90190010C01CA01A00111243D
:1031C000FF27591B99F0593F50F4503E68F11A16E9
:1031D000F040A22F232F342F4427585FF3CF46957A
:1031E00037952795A795F0405395C9F77EF41F169C
:1031F000BA0B620B730B840BBAF09150A1F0FF0F66
:10320000BB1F661F771F881FC2F70EC0BA0F621F51
:10321000731F841F48F4879577956795B795F79541
:103220009E3F08F0B0CF9395880F08F09927EE0FD6
:103230009795879508950E942F190C94FE170E9468
:10324000F71758F00E94F01740F029F45F3F29F07B
:103250000C94E71751110C9432180C94ED170E943E
:103260000F1868F39923B1F3552391F3951B550B70
:10327000BB27AA2762177307840738F09F5F5F4F49
:10328000220F331F441FAA1FA9F335D00E2E3AF088
:10329000E0E832D091505040E695001CCAF72BD0A0
:1032A000FE2F29D0660F771F881FBB1F26173707F1
:1032B0004807AB07B0E809F0BB0B802DBF01FF2723
:1032C00093585F4F3AF09E3F510578F00C94E71702
:1032D0000C9432185F3FE4F3983ED4F386957795CB
:1032E0006795B795F7959F5FC9F7880F911D9695DC
:1032F000879597F90895E1E0660F771F881FBB1F38
:10330000621773078407BA0720F0621B730B840BE4
:10331000BA0BEE1F88F7E09508950E94171888F001
:103320009F5798F0B92F9927B751B0F0E1F0660F89
:10333000771F881F991F1AF0BA95C9F714C0B130CA
:1033400091F00E943118B1E008950C943118672F64
:10335000782F8827B85F39F0B93FCCF386957795F9
:103360006795B395D9F73EF49095809570956195E2
:103370007F4F8F4F9F4F08950E94561708F48FEF8D
:1033800008950E945617880B990B08950F931F9369
:10339000CF93DF938230910510F482E090E0E091CA
:1033A0007706F091780630E020E0B0E0A0E03097BA
:1033B00099F42115310509F44AC0281B390B243032
:1033C0003105D8F58A819B816115710589F1FB0171
:1033D00093838283FE0111C0408151810281138158
:1033E00048175907E0F04817590799F4109761F00A
:1033F00012960C93129713961C933296CF01DF917D
:10340000CF911F910F91089500937706109378063E
:10341000F4CF2115310551F04217530738F0A901B7
:10342000DB019A01BD01DF01F801C1CFEF01F9CF46
:103430009093780680937706CDCFFE01E20FF31FBD
:10344000819391932250310939832883D7CF2091DA
:10345000750630917606232B41F420910A023091B3
:103460000B02309376062093750620910802309166
:1034700009022115310541F42DB73EB740910C02E8
:1034800050910D02241B350BE0917506F0917606E4
:10349000E217F307A0F42E1B3F0B2817390778F02B
:1034A000AC014E5F5F4F2417350748F04E0F5F1F8A
:1034B0005093760640937506819391939FCFF0E0E9
:1034C000E0E09CCFCF93DF930097E9F0FC013297C7
:1034D00013821282A0917706B0917806ED0130E058
:1034E00020E01097A1F420813181820F931F209159
:1034F0007506309176062817390709F061C0F093F8
:103500007606E0937506DF91CF910895EA01CE1714
:10351000DF07E8F54A815B819E0141155105B1F74E
:10352000E901FB83EA8349915991C40FD51FEC1738
:10353000FD0761F4808191810296840F951FE90156
:1035400099838883828193819B838A83F0E0E0E082
:1035500012968D919C9113970097B9F52D913C91FE
:103560001197CD010296820F931F2091750630911D
:1035700076062817390739F6309751F510927806F4
:1035800010927706B0937606A0937506BCCFD383CE
:10359000C28340815181840F951FC817D90761F4F8
:1035A0004E5F5F4F88819981480F591F5183408337
:1035B0008A819B81938382832115310509F0B0CFE5
:1035C000F0937806E09377069ECFFD01DC01C0CF33
:1035D00013821282D7CF4F925F926F927F928F9217
:1035E0009F92AF92BF92CF92DF92EF92FF920F9392
:1035F0001F93CF93DF938C01009799F4CB01DF9158
:10360000CF911F910F91FF90EF90DF90CF90BF90DF
:10361000AF909F908F907F906F905F904F900C94A1
:10362000C619FC01E60FF71F9C0122503109E21771
:10363000F30708F4AEC0D901CD91DC911197C617FC
:10364000D70720F1C530D10578F0CE010497861751
:10365000970750F0C61BD70B2297C193D1936D9358
:103660007C93CF010E94621AC801DF91CF911F9114
:103670000F91FF90EF90DF90CF90BF90AF909F9011
:103680008F907F906F905F904F9008955B01AC1A80
:10369000BD0A4C018C0E9D1EA0917706B091780654
:1036A000512C412CF12CE12C109731F580917506AD
:1036B000909176068815990509F05CC04616570664
:1036C00008F058C08091080290910902009741F4D7
:1036D0008DB79EB740910C0250910D02841B950B43
:1036E000E817F90708F055C0F0937606E0937506E1
:1036F000F90171836083B8CF8D919C9111971296D7
:103700006C90129713967C901397A815B90559F5EC
:103710006C0142E0C40ED11CCA14DB0420F1AC01E0
:103720004A195B09DA011296159780F0628273825A
:1037300051834083D9016D937C93E114F10471F0BE
:10374000D7011396FC93EE9312978ECF22968C0F8F
:103750009D1FF90191838083F301EFCFF0937806E9
:10376000E093770681CF4816590608F42C017D01B5
:10377000D3019ACFCB010E94C6197C01009749F072
:10378000AE01B8010E94CC1BC8010E94621A8701D9
:103790006BCF10E000E068CFFB01DC0102C00190BC
:1037A0000D9241505040D8F70895FB01DC01019083
:0C37B0000D920020E1F70895F894FFCF7F
:1037BC00000020400000104100007906800000004D
:1037CC000000EE042B0471043B05A2048004940455
:1037DC0000000000310704076007DA06FD06EA0660
:1037EC00DB065B44454255475D3A20000D0A006EEE
:1037FC00616E00696E66006F766600535400526508
:10380C00747261637400457874656E640050205363
:10381C00656E736F72204F4B2E00502053656E7384
:10382C006F7220496E6974204661696C2E00416389
:10383C00747561746F72204F4B2E00455343204FAB
:10384C004B2E00496E6974204F4B004600420052CB
:08385C004C00525200646500AB
:00000001FF
