:100000000C9469010C949A010C949A010C949A0135
:100010000C949A010C949A010C949A010C949A01F4
:100020000C949A010C949A010C949A010C949A01E4
:100030000C949A010C949A010C949A010C949A01D4
:100040000C949A010C94280F0C949A010C949A0128
:100050000C949A010C949A010C949A010C94340C0F
:100060000C949A010C94500D0C94260D0C949A014A
:100070000C949A010C949A010C949A010C949A0194
:100080000C94FA0E0C949A010C949A010C949A0117
:100090000C94FC0C0C94D20C0C949A010C947A0DD8
:1000A0000C949A010C949A010C94CC0E0C949A0125
:1000B0000C949A010C949A010C949A010C949E0E43
:1000C0000C949A010C949A010C949A010C94A80C2B
:1000D0000C947E0C0C949A010C949A010C949A0145
:1000E0000C949A010C949D020C9481040C944F087A
:1000F0000C948C020C94C7020C94C3020C94B603AB
:100100000C9488020C9497020C9446050C94E4031A
:100110000C9493050C948B030C94BE030C94B502C1
:100120000C94A1020C94EC040C94C2020C94B9023D
:100130000C9483040C94D8040C9422080C94AC0303
:100140000C9483080C94C9040C9425040C94DA03D1
:100150000C9493030C94FA040C94AF020C94820256
:100160000C94BD020C94F3030C9408080C94F8074B
:100170000C94C6030C9498030C94F9070C94110486
:100180000C941B040C941B080C9490020C94820495
:100190000C94AB020C94FD030C94A2030C94710F0D
:1001A0000C94D0030C9494020C94A7020C940704B2
:1001B00000002100240027002A002D003000330019
:1001C00001010000040107010A01000022002500CE
:1001D00028002B002E003100340002010000050130
:1001E00008010B01000020002300260029002C003C
:1001F0002F0032000001000003010601090105057E
:100200000505070508080808020202020A0A08088C
:1002100004040404010101010101010103030303BA
:1002200003030303040707070C0C0C0C0C0C0C0C49
:100230000202020206060606060606060B0B0B0B5A
:100240000B0B0B0B0102102020080810204010207F
:10025000408002010201080402010102040810208A
:100260004080804020100804020180040201804088
:1002700020100804020108040201010204081020F1
:100280004080010204081020408000000A0B02098F
:100290000C0D0E0807030401000000000000000020
:1002A000000000000000000000000000000000004E
:1002B000000000000000121110000000000000000B
:1002C000000000000000000000000000000000002E
:1002D000710F11241FBECFEFD1E2DEBFCDBF00E012
:1002E0000CBF12E0A0E0B2E0E0E4F9E400E00BBFF4
:1002F00002C007900D92A23CB107D9F726E0A2EC0C
:10030000B2E001C01D92A139B207E1F711E0C9E6E0
:10031000D1E000E006C021970109802FFE010E9474
:100320006820C836D10780E00807A9F70E9462114B
:100330000C949E240C940000CF92DF92EF92FF92D7
:10034000609184067091850680918606909187065B
:100350000E94D41E20E030E048EC52E40E94331F9B
:1003600020918806213039F520E030E048EC52E455
:100370000E94D62120E03AED45EC57E40E94692125
:100380006B017C012AE038EE4CE151E46091890672
:1003900070918A0680918B0690918C060E94331F83
:1003A0009B01AC01C701B6010E94D621FF90EF90DE
:1003B000DF90CF90089520E030E040E251E4D8CFC4
:1003C000CF93DF93EC019A01AB01E889F98982E0D0
:1003D0008083211581EE38074105510581F160E0E8
:1003E00079E08DE390E00E941B2021503109410902
:1003F00051095695479537952795EC85FD851082CF
:10040000EE85FF852083188EEC89FD8986E0808348
:10041000EA89FB89808180618083EA89FB89808108
:1004200088608083EA89FB89808180688083EA898B
:10043000FB8980818F7D8083DF91CF910895E8894A
:10044000F989108220E1D9CFFC018081803378F4D2
:100450002FB7F89490E0FC01EE0FFF1FE80FF91F93
:10046000EA56FC4F84EB9BE0928381832FBF089573
:10047000482F181634F520912403309125038A3033
:1004800079F4C9010196260F371FF9014083680FDF
:10049000791FFB0110821092250310922403089506
:1004A0002331310574F4C90101969093250380939B
:1004B0002403260F371FF9014083680F791FFB01C2
:1004C000108290E080E008958150823108F05AC097
:1004D000E82FF0E08827E059FD4F8F4F0C946820FB
:1004E00090029402820288028C02C20297029D024C
:1004F000A102A702AB02AF02B502B902C202BD025D
:10050000C302C702809180008F7780938000089596
:10051000809180008F7DF9CF80918000877FF5CF1B
:1005200084B58F7784BD089584B58F7DFBCF80918E
:10053000B0008F778093B00008958091B0008F7DD8
:10054000F9CF809190008F778093900008958091EB
:1005500090008F7DF9CF80919000877FF5CF8091BB
:10056000A0008F778093A00008958091A0008F7DD8
:10057000F9CF8091A000877FF5CF809120018F7700
:10058000809320010895809120018F7DF9CF809183
:100590002001877FF5CFCF93DF93282F30E0F9013B
:1005A000E657FD4F8491F901EC5BFD4FD491F901C1
:1005B000E250FE4FC491CC23A1F081110E9464024D
:1005C000EC2FF0E0EE0FFF1FEC51FE4FA591B49120
:1005D000EC91ED2381E090E009F480E0DF91CF9190
:1005E000089580E090E0FACF1F93CF93DF93282FF8
:1005F00030E0F901E657FD4F8491F901EC5BFD4FC6
:10060000D491F901E250FE4FC491CC23A9F0162FEA
:1006100081110E946402EC2FF0E0EE0FFF1FE65301
:10062000FE4FA591B4918FB7F894EC91111108C0C9
:10063000D095DE23DC938FBFDF91CF911F9108957A
:10064000DE2BF8CFCF93DF9390E0FC01EC5BFD4F06
:10065000249182509E4FFC0184918823D1F090E038
:10066000880F991FFC01E055FE4FA591B491FC0144
:10067000E653FE4FC591D491623071F49FB7F89460
:100680003C91822F809583238C93E8812E2B2883A5
:100690009FBFDF91CF9108958FB7F894EC912E2BE7
:1006A0002C938FBFF6CF1F93CF93DF93182FEB01BF
:1006B00061E00E942203209739F460E0812FDF91EE
:1006C000CF911F910C94F402CF3FD10511F461E05A
:1006D000F5CFE12FF0E0E657FD4FE491E150E23134
:1006E00008F0B3C0F0E08827E758FC4F8F4F0C9418
:1006F00068208B0393039803A203AC032504B6037D
:10070000BE03C603D003DA03E403F303FD032504A9
:10071000070411041B0484B5806884BDC7BDDF9144
:10072000CF911F91089584B5806284BDC8BDF7CF75
:1007300080918000806880938000D0938900C0936E
:100740008800EDCF80918000806280938000D093FC
:100750008B00C0938A00E3CF8091800088608093F3
:100760008000D0938D00C0938C00D9CF8091B000D1
:1007700080688093B000C093B300D1CF8091B00067
:1007800080628093B000C093B400C9CF8091900084
:10079000806880939000D0939900C0939800BFCF59
:1007A00080919000806280939000D0939B00C093D2
:1007B0009A00B5CF80919000886080939000D0938C
:1007C0009D00C0939C00ABCF8091A0008068809377
:1007D000A0008091A0008F7B8093A000D093A900FF
:1007E000C093A8009CCF8091A00080628093A0005D
:1007F000D093AB00C093AA0092CF8091A0008860F4
:100800008093A000D093AD00C093AC0088CF8091BE
:100810002001806880932001D0932901C093280192
:100820007ECF80912001806280932001D0932B01A4
:10083000C0932A0174CF80912001886080932001A9
:10084000D0932D01C0932C016ACFC038D1050CF094
:100850003ECF33CF3FB7F89480912003909121038E
:10086000A0912203B091230326B5A89B05C02F3F7A
:1008700019F00196A11DB11D3FBFBA2FA92F982FC6
:100880008827BC01CD01620F711D811D911D42E0C1
:10089000660F771F881F991F4A95D1F708958F9289
:1008A0009F92AF92BF92CF92DF92EF92FF924B0155
:1008B0005C010E942A046B017C010E942A046C19CD
:1008C0007D098E099F09683E734081059105A8F353
:1008D00021E0821A9108A108B10888EEC80E83E0D1
:1008E000D81EE11CF11C81149104A104B10429F764
:1008F000FF90EF90DF90CF90BF90AF909F908F9040
:10090000089508950895AF92BF92CF92DF92EF922B
:10091000FF920F931F93CF93DF936C017B018B01A9
:10092000040F151FEB015E01AE18BF08C017D107F9
:1009300059F06991D601ED91FC910190F081E02D83
:10094000C6011995892B79F7C501DF91CF911F91C8
:100950000F91FF90EF90DF90CF90BF90AF900895F0
:10096000FC01A089B1898C91A689B78982FD0FC04D
:100970009C91818D8F5F8F73228D821749F0A18D9D
:10098000AE0FBF2FB11D5D969C93818F08958C9102
:100990000895FC01538D448D252F30E0842F90E085
:1009A000821B930B541710F0CF960895019708956A
:1009B000FC01918D828D981761F0A28DAE0FBF2F33
:1009C000B11D5D968C91928D9F5F9F73928F90E089
:1009D00008958FEF9FEF0895FC01918D828D9817F8
:1009E00031F0828DE80FF11D858D90E008958FEF35
:1009F0009FEF0895FC01918D228D892F90E0805CFE
:100A00009F4F821B91098F739927089586E294E086
:100A10000E94FA0421E0892B09F420E0822F089536
:100A200083EC94E00E94FA0421E0892B09F420E091
:100A3000822F089580E695E00E94FA0421E0892B38
:100A400009F420E0822F0895FC01A48DA80FB92F8E
:100A5000B11DA35ABF4F2C91848D90E001968F73E6
:100A60009927848FA689B7892C93A089B1898C9105
:100A7000837080648C93938D848D981306C0028854
:100A8000F389E02D80818F7D80830895EF92FF921E
:100A90000F931F93CF93DF93EC0181E0888F9B8DA1
:100AA0008C8D98131AC0E889F989808185FF15C05B
:100AB0009FB7F894EE89FF896083E889F98980817E
:100AC0008370806480839FBF81E090E0DF91CF914D
:100AD0001F910F91FF90EF900895F62E0B8D10E06F
:100AE0000F5F1F4F0F731127E02E8C8D8E110CC0DE
:100AF0000FB607FCFACFE889F989808185FFF5CF29
:100B0000CE010E942405F1CFEB8DEC0FFD2FF11DDE
:100B1000E35AFF4FF0829FB7F8940B8FEA89FB8965
:100B200080818062CFCFCF93DF93EC01888D8823C3
:100B3000B9F0AA89BB89E889F9898C9185FD03C040
:100B4000808186FD0DC00FB607FCF7CF8C9185FF25
:100B5000F2CF808185FFEDCFCE010E942405E9CF41
:100B6000DF91CF91089580E090E0892B29F00E94D9
:100B70001A0581110E94000080E090E0892B29F085
:100B80000E94100581110E94000080E090E0892BF6
:100B900029F00E94060581110E94000080E090E08B
:100BA000892B49F080E090E0892B29F00E94000019
:100BB00081110C94000008952091E802260F33273C
:100BC000331F21323105ECF420919003FC0190E0B9
:100BD00080E0243069F082E00895A091E80221913C
:100BE000AC0148535D4FA40FB52FB11D2C93019656
:100BF000861798F38091E802680F6093E80280E01E
:100C0000089581E008951092900381E080936F032E
:100C100010926A0361E084E10E94F40261E085E1E0
:100C20000E94F402E9EBF0E080818E7F8083808176
:100C30008D7F808388E48093B80085E48093BC0036
:100C40000895CF93DF9391E09093C7028823B9F082
:100C5000C091B800D091BA008091BC008A7B80938B
:100C6000BC0060E084E10E94F40260E085E10E9443
:100C7000F4020E940306D093BA00C093B800DF913B
:100C8000CF910895CF92DF92EF92FF920F931F932F
:100C9000CF93DF93D82FC62F613208F098C00E94FF
:100CA0002A046B017C018091900381116BC081E06B
:100CB0008093900380936F039FEF90936E03109245
:100CC0006D039C0F90936C0380936B0380916B0377
:100CD000DD0FD82BD0936B0380916A03813009F02C
:100CE00078C010926A030E942A046B017C018091F3
:100CF0006B038093BB008091920390919303A0912A
:100D00009403B0919503892B8A2B8B2BA1F00E9421
:100D10002A0400919203109193032091940330913F
:100D200095036C197D098E099F0906171707280777
:100D3000390708F448C08091BC0083FDD8CF85EC0A
:100D40008093BC000E942A046B017C018091900377
:100D5000813009F440C080916D038C1710F4C0916C
:100D60006D03EAE4F3E0A0E7B3E080E08C1355C044
:100D70008C2FDF91CF911F910F91FF90EF90DF901B
:100D8000CF9008958091920390919303A091940342
:100D9000B0919503892B8A2B8B2B09F484CF0E9469
:100DA0002A040091920310919303209194033091AF
:100DB00095036C197D098E099F09061717072807E7
:100DC000390708F070CF809191030E942106C0E09E
:100DD000CFCF85EEB5CF8091920390919303A091F0
:100DE0009403B0919503892B8A2B8B2B09F4AECFFA
:100DF0000E942A040091920310919303209194037E
:100E0000309195036C197D098E099F090617170704
:100E10002807390708F09ACFD6CF91919D938F5F1D
:100E2000A5CFCF92DF92EF92FF920F931F93CF93B4
:100E3000DF93D091490381E0D13208F09CC0C0918A
:100E400048030E942A046B017C0180919003811168
:100E50006CC082E08093900381E080936F038FEFFA
:100E600080936E0310926D03D0936C03A8E2B3E0FD
:100E7000EAE4F3E080E0D8138DC010926B03809118
:100E80006B03CC0FC82BC0936B0380916A03813036
:100E900009F084C010926A030E942A046B017C014D
:100EA00080916B038093BB00809192039091930398
:100EB000A0919403B0919503892B8A2B8B2BA1F0E1
:100EC0000E942A04009192031091930320919403AD
:100ED000309195036C197D098E099F090617170734
:100EE0002807390708F442C08091BC0083FDD8CFA1
:100EF00085EC8093BC000E942A046B017C018091E8
:100F00009003823009F44CC080916E038F3F09F446
:100F100069C080916E03803209F466C080916E03CF
:100F2000803309F463C084E026C0809192039091DD
:100F30009303A0919403B0919503892B8A2B8B2B5B
:100F400009F483CF0E942A04009192031091930325
:100F500020919403309195036C197D098E099F09A6
:100F6000061717072807390708F06FCF80919103FC
:100F70000E94210685E010922703109249031092E7
:100F80002603DF91CF911F910F91FF90EF90DF909B
:100F9000CF9008959D9191938F5F6DCF85EEA9CFEE
:100FA0008091920390919303A0919403B091950343
:100FB000892B8A2B8B2B09F4A2CF0E942A04009143
:100FC00092031091930320919403309195036C192F
:100FD0007D098E099F09061717072807390708F0AA
:100FE0008ECFC4CF80E0C7CF82E0C5CF83E0C3CF30
:100FF0000895E091100380910F03E81730F4F0E0BA
:10100000E059FC4F808190E008958FEF9FEF0895A5
:101010009091100380910F032FEF3FEF981748F442
:10102000E92FF0E0E059FC4F208130E09F5F909382
:101030001003C901089580910F0390911003891B3B
:10104000990B0895CF92DF92EF92FF920F931F9327
:10105000CF93DF937C01CB018A01209126032223C9
:1010600089F0EB016B01C40ED51ECC15DD0569F0CE
:101070006991D701ED91FC910190F081E02DC701BC
:101080001995F3CF642F0E94DC05C801DF91CF9141
:101090001F910F91FF90EF90DF90CF900895CF9325
:1010A000DF931F92CDB7DEB76983209126032223F9
:1010B000F9F020914903203258F021E030E0FC01A2
:1010C0003383228390E080E00F90DF91CF910895E9
:1010D00080912703E82FF0E0E85DFC4F9981908331
:1010E0008F5F809327038093490381E090E0ECCFEA
:1010F00061E0CE0101960E94DC05F7CF682F8DEFED
:1011000095E00C944F0890E080E008951F93CF93F2
:10111000DF93EC01162F8881803308F04EC061E028
:10112000812F0E9422038881282F30E0F901EE0FE1
:10113000FF1FE20FF31FEA56FC4F1F736081607CB4
:10114000612B608319821A822CE0622F0E945C203E
:10115000829FB001112430E020E0AB01420F531F09
:10116000FA01EE0FFF1FE40FF51FEA56FC4F9081C6
:1011700096FD16C02F5F3F4F2C30310571F781303F
:1011800009F51092800082E0809381001092850022
:1011900010928400B19A80916F00826080936F00FA
:1011A000E8818E2F90E0FC01EE0FFF1FE80FF91F82
:1011B000EA56FC4F8081806480838881DF91CF91E3
:1011C0001F910895823061F41092900080939100F5
:1011D000109295001092940088BB80937100E0CF2C
:1011E000833069F41092A00082E08093A1001092F5
:1011F000A5001092A40089BB80937200D1CF811109
:10120000CFCF1092200182E080932101109225011E
:10121000109224018ABB80937300C2CFAF92BF9219
:10122000CF92DF92EF92FF920F931F93CF93DF93B2
:101230006B017A01EC01CE53DD4F28813CE0389FF1
:101240008001399F100D1124A090C602B12C27FFF8
:101250001FC0FB011182108288818F5F8883888183
:101260009801280F311D87FD3A95F6012A153B0597
:101270001CF488818C30C4F1808191810496803483
:101280009C4908F473C0F60180819181049670C076
:1012900088819801280F311D87FD3A952A153B0555
:1012A000DCF68881A801480F511D87FD5A95FA0187
:1012B000EE0FFF1FE40FF51FEA56FC4F808186FFFB
:1012C000CBCF8881F801E80FF11D87FDFA95CF019A
:1012D000EE0FFF1FE80FF91FEA56FC4F808160E018
:1012E0008F730E94F402B8CF808191812881A80178
:1012F000420F511D27FD5A959A01FA01EE0FFF1F6B
:10130000E20FF31FEA56FC4F21813281820F931FB7
:10131000F7019183808388819801280F311D87FD13
:101320003A95F901EE0FFF1FE20FF31FEA56FC4F4B
:10133000808186FF22C08881080F111D87FD1A95C4
:10134000F801EE0FFF1FE00FF11FEA56FC4F8081FE
:1013500061E08F73DF91CF911F910F91FF90EF901C
:10136000DF90CF90BF90AF900C94F40280E49CE9A2
:10137000F701918380838FEF8883DF91CF911F9155
:101380000F91FF90EF90DF90CF90BF90AF900895B6
:10139000680F791FFC011192CF01E617F707D1F70B
:1013A000089570E060E08BE00E94530370E060E01D
:1013B0008CE00C945303FB0101900020E9F7319776
:1013C000AF01461B570B0C9483048F929F92AF92F0
:1013D000BF920F931F93CF93DF93CDB7DEB7A19743
:1013E0000FB6F894DEBF0FBECDBF19A2423008F48D
:1013F0004AE08E010F5D1F4F842E912CB12CA12C41
:10140000A50194010E941B20E62FB901CA01EA3010
:1014100004F5E05DD801EE938D01232B242B252BC1
:1014200079F790E080E0109729F0BD0180E695E023
:101430000E94DB09A1960FB6F894DEBF0FBECDBFA8
:10144000DF91CF911F910F91BF90AF909F908F90A0
:101450000895E95CDFCFCF92DF92EF92FF92CF93B6
:10146000DF936B017C016DE280E695E00E9446050A
:10147000EC0166277727CB016C197D098E099F093E
:101480004AE00E94E5098C0F9D1FDF91CF91FF90EC
:10149000EF90DF90CF9008954F925F926F927F927E
:1014A0008F929F92AF92BF92CF92DF92EF92FF9274
:1014B0000F931F93CF936B017C01742EAC019B01A2
:1014C0000E94832262E372E0811126C04601570127
:1014D000E894B7F82FEF3FEF4FE75FE7C501B4019E
:1014E0000E94832281110CC02FEF3FEF4FE75FE78F
:1014F000C501B4010E94CD1E66E372E0181664F0C7
:101500002FEF3FEF4FE75FE4C701B6010E947E2255
:101510001816ACF46AE372E080E695E0CF911F9173
:101520000F91FF90EF90DF90CF90BF90AF909F9082
:101530008F907F906F905F904F900C94DB092FEF0E
:101540003FEF4FE75FECC701B6010E94CD1E87FD5C
:10155000E1CF20E030E0A901C701B6010E94CD1E15
:1015600010E000E087FF0AC06DE280E695E00E948F
:1015700046058C01F7FAF094F7F8F094C0E060E0CB
:1015800070E080E09FE37C1641F020E030E040E234
:1015900051E40E94D621CF5FF6CFA70196010E94A9
:1015A0006A212B013C010E944F224B015C014AE061
:1015B0000E94E5097C01E00EF11ECC23C1F1C501BA
:1015C000B4010E94D21E9B01AC01C301B2010E9472
:1015D00069214B015C016EE280E695E00E944605C0
:1015E000E80EF91EC15018F120E030E040E251E46D
:1015F000C501B4010E94331F2B013C010E944F2200
:101600004B01B12CA12C4AE0C501B4010E94E509AF
:10161000E80EF91EC501B4010E94D21E9B01AC0167
:10162000C301B2010E9469214B015C01DBCFC701FC
:10163000CF911F910F91FF90EF90DF90CF90BF90CF
:10164000AF909F908F907F906F905F904F90089594
:10165000CF92DF92EF92FF926B017C016EE372E01A
:1016600080E695E00E94DB0942E0C701B6010E94D6
:101670004C0A68E472E080E695E0FF90EF90DF901E
:10168000CF900C94DB09CF93DF93EC016EE372E013
:1016900080E695E00E94DB09BE01DD0F880B990B07
:1016A00097FF0AC00E942B0A68E472E080E695E08A
:1016B000DF91CF910C94DB094AE00E94E509F4CF59
:1016C000CF93DF93EC016EE372E080E695E00E9439
:1016D000DB09BE0180E695E00E94DB0968E472E068
:1016E00080E695E0DF91CF910C94DB098BE492E0EA
:1016F0000E94600B82E696E00E9424028FE596E04D
:101700000E9424028CE596E00E94240289E596E07E
:101710000C9424028EE492E00E94600B86E30E9407
:10172000CB02019759F464E670E08BE00E9453030A
:1017300070E060E08CE00E945303F0CF0C94D1097C
:10174000FC0180819181009711F00C94911E60E062
:1017500070E0CB010895FC0180819181009711F028
:101760000C9424230895EF92FF920F931F93CF932D
:10177000DF93EC017B01198218821B821A821D8281
:101780001C82FB0101900020E9F731978F01061BB5
:10179000170BB8016F5F7F4F90E080E00E94AD2390
:1017A0000097B9F0998388831B830A832C813D813C
:1017B000232B11F4FC0110821D830C83B701888157
:1017C0009981DF91CF911F910F91FF90EF900C9431
:1017D000972488819981009711F00E94242319820F
:1017E00018821D821C821B821A82DF91CF911F9169
:1017F0000F91FF90EF90089585ED8093BC0080914C
:10180000920390919303A0919403B091950307964E
:10181000A11DB11D23E0B695A795979587952A95AB
:10182000D1F72091BC0024FD03C0109290030895CD
:1018300040919203509193036091940370919503AA
:10184000452B462B472B69F30097A105B10541F0C5
:1018500025E32A95F1F700000197A109B109E1CF2D
:10186000809191030C9421061F920F920FB60F9254
:1018700011242F933F938F939F93AF93BF938091A6
:10188000090690910A06A0910B06B0910C063091C2
:101890001F0323E0230F2D3758F50196A11DB11D1D
:1018A00020931F038093090690930A06A0930B06CA
:1018B000B0930C068091200390912103A091220304
:1018C000B09123030196A11DB11D80932003909335
:1018D0002103A0932203B0932303BF91AF919F9163
:1018E0008F913F912F910F900FBE0F901F901895E1
:1018F00026E8230F0296A11DB11DD2CF1F920F9291
:101900000FB60F9211240BB60F922F933F934F9364
:101910005F936F937F938F939F93AF93BF93EF9357
:10192000FF9386E294E00E942405FF91EF91BF911E
:10193000AF919F918F917F916F915F914F913F9167
:101940002F910F900BBE0F900FBE0F901F90189508
:101950001F920F920FB60F9211240BB60F922F9376
:101960003F934F935F936F937F938F939F93AF9327
:10197000BF93EF93FF9386E294E00E94B004FF913F
:10198000EF91BF91AF919F918F917F916F915F91F7
:101990004F913F912F910F900BBE0F900FBE0F9064
:1019A0001F9018951F920F920FB60F9211240BB62D
:1019B0000F922F933F934F935F936F937F938F93E8
:1019C0009F93AF93BF93EF93FF9383EC94E00E94B8
:1019D0002405FF91EF91BF91AF919F918F917F91DE
:1019E0006F915F914F913F912F910F900BBE0F9090
:1019F0000FBE0F901F9018951F920F920FB60F9267
:101A000011240BB60F922F933F934F935F936F93D5
:101A10007F938F939F93AF93BF93EF93FF9383EC49
:101A200094E00E94B004FF91EF91BF91AF919F911C
:101A30008F917F916F915F914F913F912F910F9077
:101A40000BBE0F900FBE0F901F9018951F920F9214
:101A50000FB60F9211240BB60F922F933F934F9313
:101A60005F936F937F938F939F93AF93BF93EF9306
:101A7000FF9380E695E00E942405FF91EF91BF91CE
:101A8000AF919F918F917F916F915F914F913F9116
:101A90002F910F900BBE0F900FBE0F901F901895B7
:101AA0001F920F920FB60F9211240BB60F922F9325
:101AB0003F934F935F936F937F938F939F93AF93D6
:101AC000BF93EF93FF9380E695E00E94B004FF91EF
:101AD000EF91BF91AF919F918F917F916F915F91A6
:101AE0004F913F912F910F900BBE0F900FBE0F9013
:101AF0001F9018951F920F920FB60F9211240BB6DC
:101B00000F922F933F934F935F936F937F938F9396
:101B10009F93AF93BF93EF93FF938091B900887F1A
:101B2000803609F44DC008F040C0883209F4A9C0DD
:101B300028F5803109F49DC0C8F4882309F4FBC05E
:101B4000883009F496C0FF91EF91BF91AF919F91BA
:101B50008F917F916F915F914F913F912F910F9056
:101B60000BBE0F900FBE0F901F901895883109F48F
:101B700088C0803241F780936E0314C0803409F42A
:101B80009DC040F48033B9F38833E9F680936E0347
:101B900085ECB0C0803509F485C0883509F496C05D
:101BA000883489F60E94FC0BCECF883909F48CC0AA
:101BB00038F5883729F050F4883611F0803719F657
:101BC00083E08093900310920A0357C0883809F489
:101BD0007BC0803919F0803809F0B5CF80910A03B5
:101BE000803208F071C0E0910A0381E08E0F80938B
:101BF0000A038091BB00F0E0E651FD4F80833DC0B9
:101C0000803B39F0E0F4803A09F479C0883A09F071
:101C10009ACF84E0809390031092E9021092E80238
:101C2000E0910D03F0910E0319958091E802811166
:101C30000FC081E08093E8021092C80209C0803C86
:101C400009F4A6CF883C09F4A3CF883B09F07BCFE9
:101C5000E091E90281E08E0F8093E902F0E0E85321
:101C6000FD4F80818093BB009091E9028091E80252
:101C700029C080916B038093BB0085EC8093BC00EE
:101C800062CF90916D0380916C03981758F5E091A5
:101C90006D0381E08E0F80936D03F0E0E65BFC4FF7
:101CA0008081E9CFE0916D0381E08E0F80936D0319
:101CB0008091BB00F0E0E65BFC4F808390916D0368
:101CC00080916C039817C8F285E8D8CFE0916D0336
:101CD00081E08E0F80936D038091BB00F0E0E65BA6
:101CE000FC4F808380916F0381115CCF81E08093F2
:101CF0006A0384EA8093BC001092900324CF85ECA1
:101D00008093BC001092900380910A03803230F4DB
:101D1000E0910A03F0E0E651FD4F108260910A0362
:101D200070E0E0910B03F0910C038AEE92E01995BC
:101D300010920A0308CF10926E0334CF1F920F92B5
:101D40000FB60F9211240BB60F922F933F934F9320
:101D50005F936F937F938F939F93AF93BF93EF9313
:101D6000FF9348E251E064E271E090E080E00E947D
:101D70000E09FF91EF91BF91AF919F918F917F914C
:101D80006F915F914F913F912F910F900BBE0F90EC
:101D90000FBE0F901F9018951F920F920FB60F92C3
:101DA00011240BB60F922F933F934F935F936F9332
:101DB0007F938F939F93AF93BF93EF93FF9348EAE3
:101DC00050E064EA70E083E090E00E940E09FF9129
:101DD000EF91BF91AF919F918F917F916F915F91A3
:101DE0004F913F912F910F900BBE0F900FBE0F9010
:101DF0001F9018951F920F920FB60F9211240BB6D9
:101E00000F922F933F934F935F936F937F938F9393
:101E10009F93AF93BF93EF93FF9348E950E064E93A
:101E200070E082E090E00E940E09FF91EF91BF9177
:101E3000AF919F918F917F916F915F914F913F9162
:101E40002F910F900BBE0F900FBE0F901F90189503
:101E50001F920F920FB60F9211240BB60F922F9371
:101E60003F934F935F936F937F938F939F93AF9322
:101E7000BF93EF93FF9348E850E064E870E081E09F
:101E800090E00E940E09FF91EF91BF91AF919F9159
:101E90008F917F916F915F914F913F912F910F9013
:101EA0000BBE0F900FBE0F901F901895FC019091E4
:101EB000C602903398F481E0890F8093C602908324
:101EC000892F90E0FC01EE0FFF1FE80FF91FEA5683
:101ED000FC4F88EB9BE09283818308958FEF808392
:101EE00008954F925F926F927F928F929F92AF92DE
:101EF000BF92CF92DF92EF92FF92CF93DF93109237
:101F000029041092280488EE93E0A0E0B0E08093CA
:101F10002A0490932B04A0932C04B0932D0422E167
:101F200032E0309327042093260445ED50E050938F
:101F300033044093320444ED50E050933504409311
:101F4000340440ED50E0509337044093360441EDA3
:101F500050E0509339044093380442ED50E05093E0
:101F60003B0440933A0446ED50E050933D044093C7
:101F70003C0410923F0410924004109241041092CD
:101F800042041092C6041092C5048093C704909333
:101F9000C804A093C904B093CA043093C404209326
:101FA000C3044DEC50E05093D0044093CF044CEC6C
:101FB00050E05093D2044093D10448EC50E0509349
:101FC000D4044093D30449EC50E05093D60440939A
:101FD000D5044AEC50E05093D8044093D7044EEC1B
:101FE00050E05093DA044093D9041092DC0410922C
:101FF000DD041092DE041092DF041092630510924B
:1020000062058093640590936505A0936605B0937F
:102010006705309361052093600525EC30E030932F
:102020006D0520936C0524EC30E030936F05209310
:102030006E0520EC30E0309371052093700521ECA3
:1020400030E0309373052093720522EC30E030933A
:1020500075052093740526EC30E0309377052093C6
:1020600076051092790510927A0510927B051092F0
:102070007C05109200061092FF0580930106909354
:102080000206A0930306B093040684E292E09093C4
:10209000FE058093FD0580E090EAA0E8B4E480931B
:1020A000890690938A06A0938B06B0938C0685E6EA
:1020B00096E00E94560F82E696E00E94560F8FE54A
:1020C00096E00E94560F8CE596E00E94560F89E537
:1020D00096E00E94560FC0900402D0900502E09056
:1020E0000602F09007028090550690905606A09048
:1020F0005706B09058064090000250900102609040
:1021000002027090030281E196E09093380680937A
:10211000370685E196E090933606809335068DE08C
:1021200096E090933A0680933906109253061092E7
:102130004B0610924C0610924D0610924E0680E00F
:1021400090E0AFE7B3E480934F0690935006A093DE
:102150005106B093520684E690E0A0E0B0E0809390
:10216000470690934806A0934906B0934A06C1E0FB
:10217000D0E0D0933206C093310620E030E0A901D0
:10218000C301B2010E94CD1E87FD6EC020E030E089
:10219000A901C501B4010E94CD1E87FD65C020E0E4
:1021A00030E0A901C701B6010E94CD1E87FD5CC0C9
:1021B000D0933406C093330681E080935406409256
:1021C000190650921A0660921B0670921C068092A5
:1021D0001D0690921E06A0921F06B0922006C09285
:1021E0002106D0922206E0922306F0922406A30153
:1021F000920160E070E0CB010E94692160932506A6
:102200007093260680932706909328062DEC3CECCD
:102210004CEC5DE3C501B4010E94331F9B01AC018E
:1022200060E070E0CB010E94692160932906709301
:102230002A0680932B0690932C062DEC3CEC4CEC5C
:102240005DE3C701B6010E94D6219B01AC0160E0AD
:1022500070E0CB010E94692160932D0670932E06D9
:1022600080932F06909330062FB7F894809109063B
:1022700090910A06A0910B06B0910C062FBF4091D9
:102280004706509148066091490670914A06841BA2
:10229000950BA60BB70B80933B0690933C06A0933F
:1022A0003D06B0933E06DF91CF91FF90EF90DF9017
:1022B000CF90BF90AF909F908F907F906F905F90E6
:1022C0004F900895CF93DF93CDB7DEB7CE54D109A9
:1022D0000FB6F894DEBF0FBECDBF789484B5826090
:1022E00084BD84B5816084BD85B5826085BD85B5BA
:1022F000816085BD80916E00816080936E00109238
:1023000081008091810082608093810080918100B2
:102310008160809381008091800081608093800043
:102320008091B10084608093B1008091B0008160A1
:102330008093B000809191008260809391008091A1
:1023400091008160809391008091900081608093E2
:1023500090008091A10082608093A1008091A100F3
:1023600081608093A1008091A00081608093A00093
:1023700080912101826080932101809121018160FF
:1023800080932101809120018160809320018091C0
:102390007A00846080937A0080917A0082608093D2
:1023A0007A0080917A00816080937A0080917A002F
:1023B000806880937A001092C10061E08DE00E94F5
:1023C000220361E08DE00E94F40262E086E30E9455
:1023D000220362E087E30E94220361E08AE00E9418
:1023E000220361E084E00E94220361E08BE00E940E
:1023F000220361E08CE00E94220340E052EC61E0A5
:1024000070E080E695E00E94E00140E855E260E07F
:1024100070E083EC94E00E94E00140E052EC61E067
:1024200070E086E294E00E94E0011092270310928F
:1024300049030E94030681E894E090930E03809381
:102440000D0382E894E090930C0380930B0381E0EA
:102450008093260386E7809348038EE190E00E94F4
:102460007E080E9411076AE070E080E090E00E9420
:102470004F04A8E6AA2EA6E0BA2EB0EAEB2EF12C65
:102480007724739416E7812E709226038092480376
:102490001092270310924903C7010E947E080E94F0
:1024A000110762E086E70E944206109210038093B3
:1024B0000F038DEF95E00E940808982E8DEF95E0B0
:1024C0000E940808C12C8C299929D5018D939D93D0
:1024D0005D01B2E0EB0EF11CEEEAEE16F104A1F69E
:1024E0008091680690916906592F52955F709F7090
:1024F000909369068093680610927706109276068C
:1025000030E020E090E080E0F901EE7FE859F94FFB
:102510006081418120FF47C0862748E0BC01880FC9
:10252000991F77FF02C0F0E39F274150B9F72F5F53
:102530003F4F2031310541F7892F82958F70581315
:1025400036C085E592E00E94600B64E670E080E0B2
:1025500090E00E944F041092880680E090E4A9E782
:10256000B4E48093890690938A06A0938B06B09377
:102570008C0661E084E00E94F4020E948A0B86E7E8
:1025800092E00E94600B87E30E94CB02892BA1F4AA
:1025900070E060E08BE00E94530364E670E08CE042
:1025A0000E945303F0CF10E084279127B6CF82E634
:1025B00092E00E94600BDDCF0E94D1090E948A0B3D
:1025C0008EE792E00E94600B67E070E082E696E0A2
:1025D0000E94860868E070E08FE596E00E94860819
:1025E00066E070E08CE596E00E94860869E070E0A5
:1025F00089E596E00E94860864EF71E080E090E053
:102600000E944F040E94760B64EF71E080E090E03E
:102610000E944F048BE892E00E94600B8091530669
:102620000091370610913806811146C0D801CD902F
:10263000DD90ED90FC90C0923F06D0924006E09273
:102640004106F0924206E0913506F091360680810F
:102650009181A281B3818093430690934406A09315
:102660004506B093460680904F0690905006A09085
:102670005106B0905206A5019401C701B6010E940F
:102680007E2218164CF480923F0690924006A0924B
:102690004106B092420610C080904B0690904C06C6
:1026A000A0904D06B0904E06A5019401C701B60159
:1026B0000E94CD1E87FDE7CF81E080935306C12C99
:1026C000D12C7AEFE72E73ECF72EC0924B06D09206
:1026D0004C06E0924D06F0924E06412C512CEAEF4A
:1026E0006E2EE3E47E2E40924F065092500660928A
:1026F000510670925206F80180809180A280B380CA
:10270000A3019201C501B4010E947E2218163CF576
:10271000D8014D925D926D927C92139780903F0606
:1027200090904006A0904106B0904206C0904F069F
:10273000D0905006E0905106F0905206A701960105
:10274000C501B4010E947E221816CCF4C0923F0647
:10275000D0924006E0924106F092420620C020E06E
:1027600030E04AEF53ECC501B4010E94CD1E87FF53
:10277000D5CFF801C082D182E282F382CFCFC09060
:102780004B06D0904C06E0904D06F0904E06A70107
:102790009601C501B4010E94CD1E87FDD7CF83E904
:1027A00092E00E94600B60E08DE00E94F4021E0146
:1027B000FBE12F0E311C80E695E00E94D804BE019B
:1027C0006F5F7F4F0E943802181619060CF06AC11D
:1027D000CE0101960E94600B8981803709F08EC17D
:1027E000D101E5E01D92EA95E9F7DE01129671014B
:1027F000F1018F01021913098D91893611F081932E
:10280000F8CFB101CE0145960E94B30BCE0145969B
:102810000E94A00B0E94D41E20E030E048EC52E45D
:102820000E94D621609300027093010280930202FD
:10283000909303020E94280BCE0145960E94AB0B99
:1028400065E070E0C1010E94C809F801329621E0FC
:1028500030E02C0F3D1FE20FF31FD101C801821998
:1028600093098C010A0F1B1F2191243611F02D931F
:10287000F8CFB101CE0145960E94B30BCE0145962B
:102880000E94A00B0E94D41E20E030E048EC52E4ED
:102890000E94D62160935506709356068093570682
:1028A000909358060E94280BCE0145960E94AB0BD0
:1028B00065E070E0C1010E94C809F801339641E06B
:1028C00050E04C0F5D1FE40FF51F8191853621F01C
:1028D000D7018D937D01F9CFB101CE0145960E94BC
:1028E000B30BCE0145960E94A00B0E94D41E20E09F
:1028F00030E048EC52E40E94D621609304027093C9
:10290000050280930602909307020E94280BCE01D5
:1029100045960E94AB0B40900002509001026090DF
:1029200002027090030220E030E0A901C301B2016D
:102930000E94CD1E87FDB6C0809055069090560629
:10294000A0905706B090580620E030E0A901C501DC
:10295000B4010E94CD1E87FDA5C0C0900402D09096
:102960000502E0900602F090070220E030E0A901A5
:10297000C701B6010E94CD1E87FD94C081E0209161
:102980003306309134062130310509F080E0809320
:1029900054064092190650921A0660921B067092D5
:1029A0001C0680921D0690921E06A0921F06B092F1
:1029B0002006C0922106D0922206E0922306F092D1
:1029C00024066091470670914806809149069091CF
:1029D0004A060E94D21E20E030E04AE754E40E94FA
:1029E000D62168A379A38AA39BA34092250650927F
:1029F000260660922706709228069B01AC01C5014D
:102A0000B4010E94331F4B015C0180922906909211
:102A10002A06A0922B06B0922C0628A139A14AA121
:102A20005BA1C701B6010E94D6216B017C01C09257
:102A30002D06D0922E06E0922F06F092300680915D
:102A4000310690913206019769F5A301920160E089
:102A500070E0CB010E9469216093250670932606E1
:102A60008093270690932806A501940160E070E00A
:102A7000CB010E9469216093290670932A068093F6
:102A80002B0690932C06A701960160E070E0CB0125
:102A90000E94692160932D0670932E0680932F0665
:102AA0009093300683EC94E00E94D804BE016F5FDF
:102AB0007F4F0E943802181619060CF0DCC0CE01B8
:102AC00001960E94600B8981833709F0D4C08A8106
:102AD000843709F055C11B8E1C8E1D8E1E8EDE01A3
:102AE00013968E01055E1F4FF80168017F01E01A01
:102AF000F10A8D91893659F18193F8CF833791F698
:102B00001B8E1C8E1D8E1E8EDE011296FE017B9684
:102B1000BF018D91853611F08193FBCFCE01459693
:102B20000E94B30BCE0145960E94A00B0E94D41EBA
:102B300060930D0670930E0680930F069093100617
:102B40000E94280BCE0145960E94AB0BABCFB8017B
:102B5000CE0145960E94B30BCE0145960E94A00B74
:102B60009B01AC01A8EEB3E00E9410204B015C0178
:102B70008092180390921903A0921A03B0921B033B
:102B80006EE372E080E695E00E94DB094AE0C50151
:102B9000B4010E94E50968E472E080E695E00E94D5
:102BA000DB09CE0145960E94AB0B64E070E0C801E2
:102BB0000E94C809F701339621E030E02C0F3D1F39
:102BC000E20FF31FD801C701801B910B7C01EA0EB5
:102BD000FB1E2191243611F02D93F8CFB801CE01C0
:102BE00045960E94B30BCE0145960E94A00B7093B0
:102BF000120360931103CB010E94430BCE01459653
:102C00000E94AB0B64E070E0C8010E94C80934E088
:102C1000E30EF11CE1E0F0E0EC0FFD1FEE0DFF1DF7
:102C20008191853621F0D8018D938D01F9CFB601C0
:102C3000CE0145960E94B30BCE0145960E94A00B93
:102C40000E94D41E20E030E048EC52E40E9469214A
:102C500060930D0670930E0680930F0690931006F6
:102C60000E94280BCE0145960E94AB0B81E0809319
:102C70001E0380931C0380911E03882309F42CC13A
:102C800080911D03882309F427C180911C038823A8
:102C900091F18FB7F894C0900906D0900A06E090A1
:102CA0000B06F0900C068FBF8091180390911903CA
:102CB000A0911A03B0911B03C80ED91EEA1EFB1E79
:102CC000C0921403D0921503E0921603F0921703FA
:102CD00010921C036EE372E080E695E00E94DB092F
:102CE0004AE0C701B6010E94E50968E472E080E6A7
:102CF00095E00E94DB098FB7F89440910906509146
:102D00000A0660910B0670910C068FBF00911403A8
:102D1000109115032091160330911703809113032E
:102D2000401751076207730708F4D2C08111EFC73B
:102D300080911103909112031816190694F01092C5
:102D40001D0310921E0363E572E083EC94E00E9481
:102D5000DB0968E472E083EC94E00E94DB090E94E6
:102D60008A0B91E090931C03809113038927809331
:102D7000130380911103909112030E94430BACC086
:102D8000803709F099C01B8E1C8E1D8E1E8EDE01B1
:102D90001396F1018F01021913098D91843711F0F7
:102DA0008193F8CFB101CE0145960E94B30BCE01BD
:102DB00045960E94A00BDB0124EF31E00E947020B9
:102DC00024E630E040E050E00E94F11FC901253FB9
:102DD000314014F084EF91E097FF02C090E080E072
:102DE0000E94430BCE0145960E94AB0B64E070E05D
:102DF000C1010E94C809F8013396EE24E394F12C36
:102E0000EC0EFD1EEE0DFF1DD101C80182199309C4
:102E10008C010A0F1B1F2191253611F02D93F8CF3D
:102E2000B101CE0145960E94B30BCE0145960E949A
:102E3000A00B6B30710514F06AE070E077FF02C000
:102E400070E060E028EE33E0629FC001639F900D68
:102E5000729F900D11240E94430BCE0145960E9453
:102E6000AB0BE5E0F0E0EC0FFD1FE00FF11F808100
:102E70008536F9F03CF48136B1F08436B9F00E9421
:102E8000760BF9CE833761F0873729F08137B9F7B0
:102E90008FE992E002C08BE992E00E94600BEBCEDA
:102EA0008DE992E0FACF80EA92E0F7CF83EA92E0F0
:102EB000F4CF82EA92E0F1CF833709F0DCCE809143
:102EC0001E03882309F4D7CE81E080931D03D3CE5F
:102ED000882329F00E948A0B0E94B3056CCC11E074
:102EE0001093260386E780934803109227031092DD
:102EF00049038AE490E00E947E080E94110764E181
:102F000070E080E090E00E944F041093260310923E
:102F100027031092490390E080E00E947E080E94FF
:102F2000110763E086E70E94420610921003809327
:102F30000F03109278061092790610927A0610927A
:102F40007B068DEF95E00E9408086C01990FEE0852
:102F5000FF08C0927806D0927906E0927A06F09245
:102F60007B068DEF95E00E940808FE2CED2CDC2CF2
:102F7000CC24092E000CAA0BBB0BC82AD92AEA2A9A
:102F8000FB2AC0927806D0927906E0927A06F092F7
:102F90007B068DEF95E00E940808FE2CED2CDC2CC2
:102FA000CC24092E000CAA0BBB0B8C299D29AE2921
:102FB000BF298093780690937906A0937A06B09300
:102FC0007B061093260310922703109249038AE58B
:102FD00090E00E947E080E94110764E170E080E0AA
:102FE00090E00E944F041093260310922703109242
:102FF000490390E080E00E947E080E94110763E090
:1030000086E70E9442061092100380930F031092ED
:103010007C0610927D0610927E0610927F068DEF40
:1030200095E00E9408086C01990FEE08FF08C09215
:103030007C06D0927D06E0927E06F0927F068DEFB0
:1030400095E00E940808FE2CED2CDC2CCC24092EE7
:10305000000CAA0BBB0BC82AD92AEA2AFB2AC09269
:103060007C06D0927D06E0927E06F0927F068DEF80
:1030700095E00E940808FE2CED2CDC2CCC24092EB7
:10308000000CAA0BBB0BC82AD92AEA2AFB2AC09239
:103090007C06D0927D06E0927E06F0927F068091BB
:1030A000720690917306B0E0A0E0BA2FA92F982F76
:1030B000882726013701481A590A6A0A7B0A309183
:1030C00088062B963FAF2B9760916E0670916F0626
:1030D0008091780690917906A0917A06B0917B064E
:1030E0002F968CAF9DAFAEAFBFAF2F9790E080E033
:1030F000A301313009F023C492010E94CF20F22EA7
:10310000032F142FB52FF62FE72FD82EE92EA0E08E
:103110000E945D215CF4AFE70E944821F22E032F4C
:10312000142FB52FF62FE72FD82EE92E2F2D302F65
:10313000412F5B2F6F2F7E2F8D2D9E2D07E00E943C
:10314000222128A338A74A01B62FA72FF82FE92F4D
:10315000A0906A06B0906B06950140E050E060E0F8
:1031600070E080E090E000E10E94092159016A01CD
:103170007B018C0128A138A5A4016B2F7A2F8F2FFA
:103180009E2F0E943F212CAB3DAB49AF5DAF6EAF90
:103190007FAF21968FAF219722969FAF22976091A4
:1031A00070067091710690E080E0A30192010E9488
:1031B000CF20F22E032F142FB52FF62FE72FD82E66
:1031C000E92EA0E00E945D215CF4AFE30E9448215B
:1031D000F22E032F142FB52FF62FE72FD82EE92E1E
:1031E0002F2D302F412F5B2F6F2F7E2F8D2D9E2D5A
:1031F00006E00E94222128A338A74A01B62FA72F54
:10320000F82FE92FA0906C06B0906D06950140E074
:1032100050E060E070E080E090E001E10E94092170
:1032200059016A017B018C0128A138A5A4016B2FEB
:103230007A2F8F2F9E2F0E943F2123962FAF239707
:1032400024963FAF249725964FAF259726965FAFDC
:10325000269727966FAF279728967FAF28972996AE
:103260008FAF29972A969FAF2A972F96ECACFDAC8B
:103270000EAD1FAD2F97A801970160E070E0CB0164
:1032800028A339A34AA35BA36CA37DA38EA39FA30A
:1032900093018201330F000B102F980108A319A38B
:1032A0002AA33BA3609174067091750690E080E0BC
:1032B000A30192010E94CF20F22E032F142FB52FCD
:1032C000F62FE72FD82EE92EA0E00E945D2184F48E
:1032D0002150310940485F4F6F4F7F4F8F4F9F4FB5
:1032E000F22E032F142FB52FF62FE72FD82EE92E0D
:1032F0002F2D302F412F5B2F6F2F7E2F8D2D9E2D49
:1033000007E10E94222149015A012053384F4F4FB3
:103310005F4F28A739A74AA75BA72B963FAD2B97EE
:10332000313009F0A5C348A559A56AA57BA5403D44
:103330005740610571050CF06FC4C301B2012BE069
:1033400030E040E050E00E94CF2052016301E8A04D
:10335000FE2C0E2D1E2D0E947720F22E032F142FEF
:10336000B52FF62FE72FD82EE92EA0E00E945D2181
:1033700084F42150310941095109684F7F4F8F4F23
:103380009F4FF22E032F142FB52FF62FE72FD82E95
:10339000E92E2F2D302F412F5B2F6F2F7E2F8D2D5C
:1033A0009E2D03E20E942221822E932EA42EB52E62
:1033B000AFE1B0E0C8A4D9A4EAA4FBA490EDC91A77
:1033C00097E0D90AE108F108A70196010E941020B0
:1033D0009B01AC01C701B6010E944C208B019C01EE
:1033E000F3E03595279517950795FA95D1F708A33A
:1033F00019A32AA33BA3AFE3B0E0A70196010E9463
:1034000010209B01AC01C701B6010E944C207B013A
:103410008C01A5E015950795F794E794AA95D1F747
:1034200088A599A5AAA5BBA588199909AA09BB09C8
:103430008093800690938106A0938206B0938306C2
:103440002F964CAD5DAD6EAD7FAD2F979A01AB0160
:1034500060E070E0CB0128A739A74AA75BA76CA75B
:103460007DA78EA79FA727013801770C4408542C0D
:1034700032012CA93DA949AD5DAD6EAD7FAD219660
:103480008FAD219722969FAD229757016801E42CBA
:10349000F42C042D142D0E94542159016A017B0142
:1034A0008C0128A539A54AA55BA560E070E080E005
:1034B00090E00E947720F22E032F142FB52FF62FC5
:1034C000E72FD82EE92EA0E00E945D2184F4215040
:1034D0003109404E5F4F6F4F7F4F8F4F9F4FF22EFE
:1034E000032F142FB52FF62FE72FD82EE92E2F2DCF
:1034F000302F412F5B2F6F2F7E2F8D2D9E2D05E1BD
:103500000E94222128A738AB4A01B62FA72FF82FF7
:10351000E92F48A059A06AA07BA0770C4408542C3E
:10352000320123962FAD239724963FAD24972596FD
:103530004FAD259726965FAD269727966FAD2797B7
:1035400028967FAD289729968FAD29972A969FAD0B
:103550002A97A8A0B9A0CAA0DBA0E42CF42C042DC3
:10356000142D0E94542159016A017B018C0128A568
:1035700038A9A4016B2F7A2F8F2F9E2F0E945421E0
:103580002B96AFAD2B97F22E032F142FB52FF62FBE
:10359000E72FD82EE92EA13009F046C3A0E00E9403
:1035A0005D2184F4215030484F4F5F4F6F4F7F4F64
:1035B0008F4F9F4FF22E032F142FB52FF62FE72F8B
:1035C000D82EE92E2F2D302F412F5B2F6F2F7E2FDE
:1035D0008D2D9E2D0FE00E94222120938406309392
:1035E000850640938606509387060E949C016B01D6
:1035F0007C0120E030E040E85FEB0E947E2287FD06
:103600001AC020E030E048E452E4C701B6010E944D
:10361000CD1E181684F020E030E040E251E4C701EE
:10362000B6010E94331F60931506709316068093AF
:1036300017069093180680915306882309F42FC12A
:103640008FB7F894E0900906F0900A0600910B06F7
:1036500010910C06E9AEFAAE0BAF1CAF8FBF809194
:103660003B0690913C06A0913D06B0913E06B80104
:10367000A701481B590B6A0B7B0B80914706909161
:103680004806A0914906B0914A06481759076A07AB
:103690007B0708F404C1E0913506F09136064080BE
:1036A000518062807380E0913906F0913A06A3015F
:1036B000920160817181828193810E9469216B01F5
:1036C0007C0120914306309144064091450650917B
:1036D0004606C301B2010E94692168AB79AB8AAB8F
:1036E0009BAB2091290630912A0640912B065091E0
:1036F0002C06C701B6010E94331F20913F0630916E
:10370000400640914106509142060E946A214B01B9
:103710005C0180923F0690924006A0924106B092D2
:103720004206009154060CAB01111CC020912506E5
:1037300030912606409127065091280668A979A95C
:103740008AA99BA90E94331F9B01AC01C501B4014A
:103750000E94692160933F06709340068093410662
:103760009093420620913F063091400640914106D9
:10377000509142062DAB3EAB4FAB58AF00914F0678
:1037800008A31091500618A70091510610915206F7
:1037900028A138A5A8016DA97EA98FA998AD0E947E
:1037A0007E2218160CF05EC288A198A5D8018093DD
:1037B0003F0690934006A0934106B09342062CA981
:1037C000222309F46AC220912506309126064091F1
:1037D000270650912806C701B6010E94331F6B01CE
:1037E0007C0120912D0630912E0640912F0650919C
:1037F000300668A979A98AA99BA90E94331F9B0159
:10380000AC0160913F067091400680914106909115
:1038100042060E946921A70196010E946A216B015C
:103820007C019B01AC0168A178A5C8010E94CD1E56
:1038300087FD16C000914B0608A310914C0618A7EF
:1038400000914D0610914E0628A138A5A801B60199
:10385000C7010E94CD1E87FD03C0C8A2D8A687015C
:10386000E0913706F091380688A198A5D8018083A9
:103870009183A283B38340924306509244066092A0
:10388000450670924606E9ACFAAC0BAD1CADE09271
:103890003B06F0923C0600933D0610933E0665EA17
:1038A00072E080E695E00E94DB0960911506709158
:1038B0001606809117069091180642E00E944C0A65
:1038C0006DEA72E080E695E00E94DB0960911106E6
:1038D00070911206809113069091140642E00E94A6
:1038E0004C0A609111067091120680911306909116
:1038F00014060E9448226B018B0104521A4F0D3DA1
:1039000025E012070CF4E4C186E30E94CB02019784
:1039100009F0C7C1D6012FEF30E00E94702024EFDC
:1039200031E040E050E00E94F11FB9018BE00E94BD
:10393000530370E060E08CE00E945303B4C1920135
:103940000E94CF20F22E032F142FB52FF62FE72F32
:10395000D82EE92EA0E00E945D2184F421503F4F33
:103960004F4F5F4F6F4F7F4F8F4F9F4FF22E032F61
:10397000142FB52FF62FE72FD82EE92E2F2D302F0D
:10398000412F5B2F6F2F7E2F8D2D9E2D08E00E94E3
:10399000222128A338A74A01B62FA72FF82FE92FF5
:1039A000A0906A06B0906B06D12CC12C9501A6019F
:1039B00060E070E080E090E00FE00E940921590192
:1039C0006A017B018C0128A138A5A4016B2F7A2FF5
:1039D0008F2F9E2F0E943F212CAB3DAB49AF5DAF97
:1039E0006EAF7FAF21968FAF219722969FAF229720
:1039F000609170067091710690E080E0A3019201E1
:103A00000E94CF20F22E032F142FB52FF62FE72F71
:103A1000D82EE92EA0E00E945D215CF4AFE70E9461
:103A20004821F22E032F142FB52FF62FE72FD82E73
:103A3000E92E2F2D302F412F5B2F6F2F7E2F8D2DB5
:103A40009E2D07E00E94222128A338A74A01B62F05
:103A5000A72FF82FE92FA0906C06B0906D06950166
:103A600040E050E060E070E080E090E000E1D6CB24
:103A700088AA99AAAAAABBAA28A539A54AA55BA57E
:103A8000203D3740410551050CF0ACC0C301B201E7
:103A900023E030E040E050E00E94CF20520163017B
:103AA000E8A0FE2C0E2D1E2D0E947720F22E032F53
:103AB000142FB52FF62FE72FD82EE92EA0E00E9465
:103AC0005D2184F421503109410951096E4F7F4F26
:103AD0008F4F9F4FF22E032F142FB52FF62FE72F66
:103AE000D82EE92E2F2D302F412F5B2F6F2F7E2FB9
:103AF0008D2D9E2D01E20E942221822E932EA42E36
:103B0000B52EA3E0B0E028A939A94AA95BA90E9473
:103B100010209B01AC0168A979A98AA99BA90E94E0
:103B20004C207B018C0115950795F794E794E8A24A
:103B3000F9A20AA31BA3A5E0B0E028A939A94AA9C4
:103B40005BA90E9410209B01AC0168A979A98AA9F0
:103B50009BA90E944C207B018C01E3E01595079501
:103B6000F794E794EA95D1F728A539A54AA55BA56E
:103B7000213C69EF36076FEF460756070CF050CC33
:103B8000A7E0B0E029013A017CED470E75E0571E31
:103B9000611C711CA30192010E9410209B01AC01C9
:103BA000C301B2010E944C2028A139A14AA15BA106
:103BB000260F371F481F591F28A339A34AA35BA309
:103BC000A301920162E0220F331F441F551F6A9523
:103BD000D1F7C301B2010E944C20E60EF71E081F68
:103BE000191F1ECCA5019401C501B4010E944C20EF
:103BF0007B018C0124E015950795F794E7942A95AD
:103C0000D1F7E8A2F9A20AA31BA3812C912C54019D
:103C1000E12CF12C870104CC812C912C540118A2A9
:103C200019A21AA21BA2F4CFA0E00E945D2184F485
:103C30002150304E4F4F5F4F6F4F7F4F8F4F9F4FF1
:103C4000F22E032F142FB52FF62FE72FD82EE92EA3
:103C50002F2D302F412F5B2F6F2F7E2F8D2D9E2DDF
:103C60000DE0B9CC80904B0690904C06A0904D068C
:103C7000B0904E06A50194016DA97EA98FA998ADBB
:103C80000E94CD1E87FF9BCD80923F0690924006FA
:103C9000A0924106B092420692CDC12CD12C760161
:103CA000A0CD0E94D10969EB72E080E695E00E9408
:103CB000DB09B801110F880B990B97FF24C00E94F4
:103CC0002B0A68E472E080E695E00E94DB0904C9F3
:103CD0000C3D35E0130729F387E30E94CB02892BC3
:103CE00001F770E060E08BE00E945303D6012FEFF4
:103CF00030E00E9470202CE03EEF4FEF5FEF0E941B
:103D0000F11FB90118CE4AE00E94E509DACF80918F
:103D10001103909112030197909312038093110362
:103D200007C81F93FC0199278827BC01E8941191CB
:103D30001032E9F3193010F01E30C8F31B3251F085
:103D40001D3249F4689406C00E94B81E610F711DAF
:103D5000811D911D119110531A30B0F33EF49095CE
:103D60008095709561957F4F8F4F9F4F1F9108955C
:103D7000592F482F372F262F660F771F881F991F1F
:103D8000660F771F881F991F620F731F841F951F6F
:103D9000660F771F881F991F08950E940F1F08F450
:103DA00081E00895E89409C097FB3EF490958095D2
:103DB000709561957F4F8F4F9F4F9923A9F0F92FF1
:103DC00096E9BB279395F695879577956795B7956F
:103DD000F111F8CFFAF4BB0F11F460FF1BC06F5F55
:103DE0007F4F8F4F9F4F16C0882311F096E911C067
:103DF000772321F09EE8872F762F05C0662371F088
:103E000096E8862F70E060E02AF09A95660F771F9B
:103E1000881FDAF7880F9695879597F90895990F77
:103E20000008550FAA0BE0E8FEEF16161706E80784
:103E3000F907C0F012161306E407F50798F0621BA5
:103E4000730B840B950B39F40A2661F0232B242B7A
:103E5000252B21F408950A2609F4A140A6958FEF99
:103E6000811D811D08950E94461F0C94B71F0E945A
:103E7000A91F38F00E94B01F20F0952311F00C9478
:103E8000A01F0C94A61F11240C94EB1F0E94C81FA6
:103E900070F3959FC1F3950F50E0551F629FF0019D
:103EA000729FBB27F00DB11D639FAA27F00DB11DB6
:103EB000AA1F649F6627B00DA11D661F829F22273F
:103EC000B00DA11D621F739FB00DA11D621F839FC6
:103ED000A00D611D221F749F3327A00D611D231F9C
:103EE000849F600D211D822F762F6A2F11249F57EA
:103EF00050409AF0F1F088234AF0EE0FFF1FBB1FED
:103F0000661F771F881F91505040A9F79E3F5105AB
:103F100080F00C94A01F0C94EB1F5F3FE4F3983EDD
:103F2000D4F3869577956795B795F795E7959F5F55
:103F3000C1F7FE2B880F911D9695879597F90895E7
:103F400097F99F6780E870E060E008959FEF80EC4C
:103F5000089500240A9416161706180609060895EF
:103F600000240A9412161306140605060895092E55
:103F70000394000C11F4882352F0BB0F40F4BF2BC4
:103F800011F460FF04C06F5F7F4F8F4F9F4F089504
:103F900057FD9058440F551F59F05F3F71F04795FA
:103FA000880F97FB991F61F09F3F79F087950895DF
:103FB000121613061406551FF2CF4695F1DF08C0FE
:103FC000161617061806991FF1CF8695710561051B
:103FD00008940895E894BB2766277727CB0197F9C3
:103FE0000895052E97FB1EF400940E94082057FDAB
:103FF00007D00E941B2007FC03D04EF40C9408202D
:1040000050954095309521953F4F4F4F5F4F089504
:1040100090958095709561957F4F8F4F9F4F089534
:104020000E943D20A59F900DB49F900DA49F800DF0
:10403000911D11240895A1E21A2EAA1BBB1BFD019C
:104040000DC0AA1FBB1FEE1FFF1FA217B307E40777
:10405000F50720F0A21BB30BE40BF50B661F771FCF
:10406000881F991F1A9469F76095709580959095AF
:104070009B01AC01BD01CF010895A29FB001B39F88
:10408000C001A39F700D811D1124911DB29F700D61
:10409000811D1124911D0895DB018F939F930E9430
:1040A0001020BF91AF91A29F800D911DA39F900DF5
:1040B000B29F900D11240895991B79E004C0991FB7
:1040C000961708F0961B881F7A95C9F78095089572
:1040D000EE0FFF1F881F8BBF0790F691E02D1994FC
:1040E0000E943D20B7FF0895821B930B0895DF9334
:1040F000CF931F930F939A9DF02D219FF00D8B9DD1
:10410000F00D8A9DE02DF10D039FF00D029FE00D53
:10411000F11D4E9DE00DF11D5E9DF00D4F9DF00DCA
:104120007F936F93BF92AF925F934F93D5010E949D
:104130003D208B01AC01D7010E943D20EB01E80F2F
:10414000F91FD6010E94C6202F913F91D6010E94EF
:104150003D20C60FD71FE81FF91FAF91BF910E94E6
:10416000C6202F913F910E943D20C60FD71FE81F08
:10417000F91FD6010E943D20E60FF71F9801BE01EE
:10418000CF010F911F91CF91DF9108950E943D20A3
:10419000460F571FC81FD91F08F43196089597FB83
:1041A00057FF0C94DF209F938F930E94DF206E1B9C
:1041B0007F0BAF91BF918A0B9B0B0895E894DF931F
:1041C000CF93FC01DB010E943D207F936F93E901B7
:1041D0009A01AC01BF93AF933F932F93DF010E94ED
:1041E0003D2026F46C1B7D0B820B930B9E01EB0193
:1041F000FC010E94C620AF91BF912F913F910E9478
:10420000C620BE01CF01F9012F913F91CF91DF91DF
:104210000895002E083090F0982F872F762F652F65
:10422000542F432F322F22270850F4CF220F331F51
:10423000441F551F661F771F881F991F0A95B2F7E5
:10424000002D089597FD1094002E083098F0085026
:10425000232F342F452F562F672F782F892F912DFD
:10426000F4CF1594979587957795679557954795CA
:10427000379527950A95AAF71124002D08952A0D40
:104280003B1D4C1D5D1D6E1D7F1D801F911F0895E0
:104290000024A7FD00942A0F301D401D501D601DF5
:1042A000701D801D901D08952A193B094C095D0958
:1042B0006E097F09800B910B08950024A7FD0094DF
:1042C0002A173005400550056005700580059005EA
:1042D00008955058BB27AA270E9481210C94B71F2C
:1042E0000E94A91F38F00E94B01F20F039F49F3FB0
:1042F00019F426F40C94A61F0EF4E095E7FB0C9439
:10430000A01FE92F0E94C81F58F3BA17620773074E
:104310008407950720F079F4A6F50C94EA1F0EF4B3
:10432000E0950B2EBA2FA02D0B01B90190010C01C5
:10433000CA01A0011124FF27591B99F0593F50F4DD
:10434000503E68F11A16F040A22F232F342F442735
:10435000585FF3CF469537952795A795F04053952D
:10436000C9F77EF41F16BA0B620B730B840BBAF0FD
:104370009150A1F0FF0FBB1F661F771F881FC2F768
:104380000EC0BA0F621F731F841F48F4879577957C
:104390006795B795F7959E3F08F0B0CF9395880F36
:1043A00008F09927EE0F9795879508950E94EA21C6
:1043B0000C94B71F0E94B01F58F00E94A91F40F034
:1043C00029F45F3F29F00C94A01F51110C94EB1FAE
:1043D0000C94A61F0E94C81F68F39923B1F35523BC
:1043E00091F3951B550BBB27AA2762177307840708
:1043F00038F09F5F5F4F220F331F441FAA1FA9F39E
:1044000035D00E2E3AF0E0E832D091505040E6958B
:10441000001CCAF72BD0FE2F29D0660F771F881FEC
:10442000BB1F261737074807AB07B0E809F0BB0BDF
:10443000802DBF01FF2793585F4F3AF09E3F5105F3
:1044400078F00C94A01F0C94EB1F5F3FE4F3983EB0
:10445000D4F3869577956795B795F7959F5FC9F7DC
:10446000880F911D9695879597F90895E1E0660F5D
:10447000771F881FBB1F621773078407BA0720F0D6
:10448000621B730B840BBA0BEE1F88F7E09508953F
:104490000E944F226894B1110C94EB1F08950E9462
:1044A000D01F88F09F5798F0B92F9927B751B0F0D7
:1044B000E1F0660F771F881F991F1AF0BA95C9F7A8
:1044C00014C0B13091F00E94EA1FB1E008950C943D
:1044D000EA1F672F782F8827B85F39F0B93FCCF3F0
:1044E000869577956795B395D9F73EF49095809525
:1044F000709561957F4F8F4F9F4F08950E940F1FBA
:1045000008F48FEF08950E940F1F880B990B0895F0
:104510000F931F93CF93DF938230910510F482E0C5
:1045200090E0E0918F06F091900630E020E0B0E05E
:10453000A0E0309799F42115310509F44AC0281BF1
:10454000390B24303105D8F58A819B8161157105BD
:1045500089F1FB0193838283FE0111C04081518167
:104560000281138148175907E0F04817590799F459
:10457000109761F012960C93129713961C93329633
:10458000CF01DF91CF911F910F91089500938F0676
:1045900010939006F4CF2115310551F042175307BF
:1045A00038F0A901DB019A01BD01DF01F801C1CF9B
:1045B000EF01F9CF9093900680938F06CDCFFE0147
:1045C000E20FF31F8193919322503109398328839D
:1045D000D7CF20918D0630918E06232B41F4209168
:1045E0000A0230910B0230938E0620938D062091A3
:1045F0000802309109022115310541F42DB73EB76B
:1046000040910C0250910D02241B350BE0918D0658
:10461000F0918E06E217F307A0F42E1B3F0B28172C
:10462000390778F0AC014E5F5F4F2417350748F02B
:104630004E0F5F1F50938E0640938D06819391938A
:104640009FCFF0E0E0E09CCFCF93DF930097E9F0BD
:10465000FC01329713821282A0918F06B0919006CE
:10466000ED0130E020E01097A1F420813181820F2C
:10467000931F20918D0630918E062817390709F077
:1046800061C0F0938E06E0938D06DF91CF9108957F
:10469000EA01CE17DF07E8F54A815B819E014115EB
:1046A0005105B1F7E901FB83EA8349915991C40FA0
:1046B000D51FEC17FD0761F4808191810296840F6C
:1046C000951FE90199838883828193819B838A83E3
:1046D000F0E0E0E012968D919C9113970097B9F568
:1046E0002D913C911197CD010296820F931F20913D
:1046F0008D0630918E062817390739F6309751F517
:104700001092900610928F06B0938E06A0938D069D
:10471000BCCFD383C28340815181840F951FC817BA
:10472000D90761F44E5F5F4F88819981480F591F07
:10473000518340838A819B81938382832115310534
:1047400009F0B0CFF0939006E0938F069ECFFD0165
:10475000DC01C0CF13821282D7CF4F925F926F924B
:104760007F928F929F92AF92BF92CF92DF92EF9201
:10477000FF920F931F93CF93DF938C01009799F4CF
:10478000CB01DF91CF911F910F91FF90EF90DF90C0
:10479000CF90BF90AF909F908F907F906F905F90E1
:1047A0004F900C948822FC01E60FF71F9C012250C9
:1047B0003109E217F30708F4AEC0D901CD91DC91BD
:1047C0001197C617D70720F1C530D10578F0CE0173
:1047D00004978617970750F0C61BD70B2297C193F3
:1047E000D1936D937C93CF010E942423C801DF9164
:1047F000CF911F910F91FF90EF90DF90CF90BF90DE
:10480000AF909F908F907F906F905F904F900895A2
:104810005B01AC1ABD0A4C018C0E9D1EA0918F0647
:10482000B0919006512C412CF12CE12C109731F5D0
:1048300080918D0690918E068815990509F05CC0CF
:104840004616570608F058C0809108029091090258
:10485000009741F48DB79EB740910C0250910D0224
:10486000841B950BE817F90708F055C0F0938E06E6
:10487000E0938D06F90171836083B8CF8D919C918F
:10488000119712966C90129713967C901397A81517
:10489000B90559F56C0142E0C40ED11CCA14DB0401
:1048A00020F1AC014A195B09DA011296159780F0E4
:1048B0006282738251834083D9016D937C93E114AA
:1048C000F10471F0D7011396FC93EE9312978ECFFB
:1048D00022968C0F9D1FF90191838083F301EFCF06
:1048E000F0939006E0938F0681CF4816590608F49E
:1048F0002C017D01D3019ACFCB010E9488227C013B
:10490000009749F0AE01B8010E948E24C8010E94B0
:10491000242387016BCF10E000E068CFFB01DC01AE
:1049200002C001900D9241505040D8F70895FB010C
:10493000DC0101900D920020E1F70895F894FFCF7B
:10494000000020400000104100009106800000009F
:10495000000046058304C9049305FA04D804EC0456
:10496000000000004F0822088308F8071B08080809
:10497000F9076E616E00696E66006F7666005B44D3
:10498000454255475D3A20000D0A005354004578D2
:1049900074656E6400502053656E736F72204F4BC8
:1049A0002E00502053656E736F7220496E6974201B
:1049B0004661696C2E0052657472616374004163D4
:1049C000747561746F72204F4B2E00455343204F16
:1049D0004B2E00496E6974204F4B00460042005236
:1049E0004C0052520044657074683A200020202028
:1049F0004F75747075743A20002020204143543A5A
:024A0000200094
:00000001FF
